:020000040020DA
:10200000801D002075242000C36C2000C16C2000BE
:10201000C16C2000C16C2000C16C200000000000D9
:1020200000000000000000000000000075732000A8
:10203000C16C20000000000093732000256D20007B
:10204000376D20003D6D2000436D2000496D20005C
:10205000000000002B6D2000316D2000C16C2000BD
:10206000C16C200000000000000000000000000023
:102070000000000000000000C16C20000000000013
:102080000000000000000000C16C2000C16C2000B6
:10209000C16C2000C16C2000C16C2000C16C20000C
:1020A000C16C2000C16C2000C16C2000C16C2000FC
:1020B000C16C2000C16C2000C16C2000C16C2000EC
:1020C000C16C2000C16C2000C16C2000C16C2000DC
:1020D000C16C2000000000000000000000000000B3
:1020E00000000000000000000000000000000000F0
:1020F0000000000000000000F1392000013A20003B
:1021000000000000000000000000000000000000CF
:1021100000000000000000000000000000000000BF
:1021200000000000000000000000000000000000AF
:10213000000000000000000000000000000000009F
:10214000000000000000000000000000000000008F
:10215000000000000000000000000000000000007F
:10216000000000000000000000000000000000006F
:10217000000000000000000000000000000000005F
:10218000000000000000000000000000000000004F
:10219000000000000000000000000000000000003F
:1021A000000000000000000000000000000000002F
:1021B000000000000000000000000000000000001F
:1021C000000000000000000000000000000000000F
:1021D00000000000000000000000000000000000FF
:1021E00000000000000000000000000000000000EF
:1021F00000000000000000000000000000000000DF
:1022000000000000000000000000000000000000CE
:1022100000000000000000000000000000000000BE
:1022200000000000000000000000000000000000AE
:10223000000000000000000000000000000000009E
:10224000000000000000000000000000000000008E
:10225000000000000000000000000000000000007E
:10226000000000000000000000000000000000006E
:10227000C16C2000D5382000F9382000792F2000CB
:10228000613B20009D2A2000C16C2000000000005E
:10229000F0B5832985B0044602D1674805F053F8AC
:1022A0002388872B11D0AF2B73D0002B40F0B78041
:1022B000624B0C210120DB6A98474FF42071604883
:1022C00004F0CCFD8723238003E05D4804F0D8FDB3
:1022D00010B9012005B0F0BD00235A480C27014673
:1022E0004FF4804C9E46002207FB03065D0093429C
:1022F00018BF21F812C002F1010208BF26F805E05C
:10230000062AF4D10133062B01F10C01EBD14E4B1F
:1023100024215A784D4B26261A7000234FF4804C06
:102320001F464B4D5143043A9A420EBF06FB0250E2
:1023300001EB4300401903F1010314BF20F878CCEE
:102340000783062BF0D102F0B1FB03F06FFE36A33A
:10235000D3E9002303F0D4FE35A3D3E9002303F02F
:10236000F9FF00223B4B03F015FD04F0DBF80146BA
:10237000394804F073FD394804F0FAFF384A8121E6
:102380002D4802F0F7FC374A1368013B1360AF2376
:1023900099E7314804F074FD00289AD0012000F03C
:1023A00057F92A4B27481A78131F0C225A438118D1
:1023B000825EB1F90A00B1F902300390B1F9080068
:1023C0000290B1F906000190B1F90410264800917D
:1023D000264901F02BFC244804F056FB81B2224828
:1023E00002F082FE144802F0D7FC1B4804F03FFDC7
:1023F000012000F035F91B4B1A68002AC3DA0522C8
:102400000D481A6004F09FFF03F012FC0C4804F022
:102410002EFD00228621164802F0DEF952E7002345
:102420000320238056E700BF9A9999999999B93F5B
:1024300000000000E0FFEF40900C0020F877200043
:10244000B80C0020A206002024150020E71400206C
:10245000DA12002000003940A80C0020C80C00202F
:10246000607920000C0500202D150020327D200011
:1024700010050020FF22482408B5084B08481A60C0
:10248000084AE369121A084998470848084AA369A4
:10249000121A0021984700F00DF8FEE7B4200D4015
:1024A00040000020EC060020A07D2000F006002067
:1024B0007D15002073B500F03FFC00F0F9FC00F042
:1024C00055FC00F059FA01F039FB04F0E4FC00F08F
:1024D000E7FC00F0B3F8012004F0F6FB02F016F977
:1024E00000F016FC002000F031FB012000F02EFB74
:1024F0004049002000F0F6FB02F03EFA62B60420EC
:1025000004F0E2FB3C4804F043FC3C4804F040FC8F
:1025100000F0CEF9002002F0DBFA01F001FA002110
:10252000374802F081F902F01FF804F0F9FB00F0DF
:1025300047FD00F063FD02F03FFE0821684601F010
:1025400023FB9DF806309DF807502E4C45EA0325E5
:10255000BDF806302C48238001F058FB2B4E217823
:102560002B4801F053FB61782A4801F04FFBF46AD5
:102570004AF6CD310220A04729460320A0471A2160
:102580000120A04708226946736B0B209847224818
:1025900001F03CFB214B186804F0FAFB204801F0E5
:1025A00035FB204B186804F0F3FB1F4801F02EFBAD
:1025B0001E4B186804F0ECFB00211D4802F034F9B2
:1025C0001C4B01219B688120984704F046FC1A4867
:1025D00004F039FC00F0A2FB022004F075FB00F0CF
:1025E000A3FB02F0ABF810F0FF0FF8D101F03CFABA
:1025F000F5E700BF31492000887A20009A7A200050
:102600009004002024150020BF7A2000F8772000D5
:10261000DD7A2000E37A2000E97A2000CC782000DF
:10262000F07A2000FC782000F77A2000187920004A
:10263000C0040020807720005479200008B500F005
:10264000DDF80022014B1A7008BD00BFB213002054
:10265000024A13781843107000F0F4B8B213002047
:10266000034A137823EA0000107000F0EBB800BFB3
:10267000B213002018B1012804D000207047034B8A
:1026800018687047024B1878704700BF20900D40C3
:10269000B313002010B5094A0020137801331370DA
:1026A000074B197802F098F8BDE81040054900235F
:1026B000054A0968054801F08DBF00BFB31300202B
:1026C0002615002028070020952620000807002056
:1026D000812808B52BD0B0F5807F3AD0802824D14E
:1026E00002F00CF81C4B1D4A18701368032123F0EC
:1026F0000803136052F8203C002023F0080342F83E
:10270000203C52F81C3C23F0080342F81C3C52F8D1
:10271000183C43F0080342F8183C042200F0D6FBB2
:10272000032200210E4800F073FB012108E00D4B4D
:102730000D481A6831B142F008021A6001230360A3
:10274000084608BD22F008021A600123C0F8803054
:10275000F6E7064B1960E8E72615002020940D40A7
:102760007127200010940D4000E100E028070020B0
:1027700008B50F4804F09DFBC8B108210C4804F0CF
:102780008CFB0C4B196849B100220B4B1A700B4B98
:102790001B6843B90A4A0B4801F01CFFBDE808401A
:1027A000094802F065B9074801F01EFFF6E708BDC9
:1027B0000007002028070020B313002020900D40C0
:1027C000952620000807002080772000084A13681B
:1027D00023F00403136052F8203C43F0040342F852
:1027E000203C0022034B1A600122034B1A707047F1
:1027F00020C40D4010C00D40B41300200D4A0E49F6
:10280000136823F0C003136052F8203C43F0C00368
:1028100042F8203C0022094B1A600B6823F0100399
:102820000B6051F8203C43F0100341F8203C044B6E
:102830001A60704720A40D4020C40D4000A30D4035
:1028400040C00D4010F0020218BFFF22084B1A6072
:1028500010F0040218BFFF22064B10F001001A60AE
:1028600018BFFF22044B14BF1A601860704700BFE6
:1028700000A20D4000A10D4040C00D40044B18685F
:10288000C0F30720030904BF1030C0B2704700BF77
:102890001C300D40054B1868C0F3C21001289ABFC8
:1028A000C0F1020040034FF40040704714300D4067
:1028B0002DE9F047482588B0FFF7E0FF164B0746A3
:1028C0001C68AB6898476B68804698470546FFF7D9
:1028D000E1FF064600F084FA814600F08DFA824658
:1028E00000F03AFAB60A04F00103AD0AC4F340045A
:1028F000CDE905A00393CDF81090029401960095C0
:1029000007F00F03C7F307124146044801F07EF9B0
:1029100008B0BDE8F08700BF1C300D40057B2000EB
:102920002DE9F04800F07CF8114B4FF0000BD3E993
:1029300000673A46B04238BF7A1C15464BEA00049D
:10294000C3E900450B49D1E900BCBBEB06026CEBC7
:102950000703161943EB0507C1E9006701F0A4FD61
:1029600018B1BDE8F04801F023BDBDE8F08800BF14
:10297000F8060020F0060020E0210D4B0D4A5A60B9
:102980000D4A82F82310002207219A6019600B4932
:102990000B6843F001030B60094B1A60042243F8F3
:1029A0000C2C012243F8082C0F22DA62704700BF7A
:1029B00010E000E047E8010000ED00E008200D40D5
:1029C0000C000340034BD3E90023100A40EA0360E4
:1029D000704700BFF8060020054B18601C3B1A68C2
:1029E00042F001021A601A68D207FCD4704700BF97
:1029F0002800034010B5064C236823F00103236030
:102A0000FFF78EFF236843F00103236010BD00BF72
:102A100010E000E0014B1868704700BF2C07002051
:102A2000064B18685A6808331B681B0443EA0223E4
:102A3000034A0343106843EA0060704740500D406A
:102A40004C500D40014608B5104A1368DB07FCD511
:102A500072B6FFF7E5FF0B1A062BD8BFC11D0C4B52
:102A60000A0E1A60C1F3074243F8042CC1F307228F
:102A700043F8082CCAB243F80C2C62B64FF400326B
:102A8000044B1960044B1A6108BD00BF50500D4043
:102A90004C500D402C07002000E100E008B500F08C
:102AA000CBFF0022064B1A604FF40032054BC3F8EF
:102AB0009021C3F89020BDE8084001F0D9BE00BFC6
:102AC0002C07002000E100E0064B1B681B075FBFDE
:102AD000054B186880F00800C0F3C00048BF002014
:102AE000704700BF18C0004018D000402C23154A82
:102AF00070B503FB00234FF6BF72DC680546236CFC
:102B0000626413F050020DD00F4EA369DB0600D5AE
:102B100070BD56F825301BB12068C0B29847F4E765
:102B20002368F2E713F4D06FF2D04FF440732363BD
:102B3000FF236360E36AE262E362236B43F0010315
:102B40002363E5E7907720003007002001282DE976
:102B5000F74F064600F2B4802C2545435A4F7C19A6
:102B600094F92080B8F1000FC0F2AA8094F9229065
:102B7000B9F1000FC0F2A480544800F0CFFF544ACE
:102B800079591368E5680B4313605368616894F9D9
:102B900021A00B4353609368A1685FFA89FB0B4344
:102BA00093600023C5F8C83F23690AEBC8021A6086
:102BB00094F92330227D00939DF800305846194641
:102BC000019300F08DF9019B08221946584600F048
:102BD0007DF901233F494FEA0939009A59F801006C
:102BE00003FA02F2024349F801204FEA083858F884
:102BF000010003FA0AF2024348F801205022AA63B6
:102C0000AA6B94F9240042F4D062AA6302226A6398
:102C10004FF440722A63A26900286A62E269AA62DC
:102C20004FF07002EA620D4614DB94F925102A4A2F
:102C300041EAC0041460020354598B4023435351AA
:102C4000C9B20022C0B200F041F9244A136843F42B
:102C5000004313602C2303FB067393F92640002CDA
:102C60001BDB93F927A05FFA84F85FFA8AF9012247
:102C70004946404600F034F901232403625903FA1F
:102C80000AF31343635108224946404600F01EF9F7
:102C9000124A136843F4804313602C2303FB067627
:102CA000F268136B43F001031363012296F8283096
:102CB000590903F01F0302FA03F3094A42F82130CD
:102CC00003B0BDE8F08F00BF90772000C92A200034
:102CD00028200D4020940D4004410D4030D000408C
:102CE00000E100E001289CBF014B43F82010704731
:102CF00030070020012808D82C22044B02FB0030AA
:102D0000C3689A699206FCD41960704790772000D6
:102D10000022014B1A60704700500D400822014B01
:102D20001A60704700500D40A022024B1A605022DA
:102D30001A60704700500D40014A024B9A6070477C
:102D40000020200000ED00E0024B1868C0F3815025
:102D5000704700BF04200D4008B5FFF7F5FF024B98
:102D600053F8200008BD00BFE877200038B5164DA5
:102D7000164C2B68012223F040032B6023680621A8
:102D800023F040032360032000F0A0F82B68012209
:102D900023F080032B602368072123F08003236046
:102DA000032000F093F80A4B0A4A0B491A600B4AB9
:102DB000134610680842FCD11A685101FCD41A6805
:102DC0005201FCD538BD00BF20C40D4000C40D40E9
:102DD00000200D40010102000000010104200D400F
:102DE000034B04481B6803F007031841704700BFFA
:102DF00004200D400048E801034B04481B68C3F35E
:102E000002231841704700BF04200D400048E8012C
:102E1000024B02EBC10243F8220070473807002042
:102E2000F8B507460E460024084D05EB411547FA54
:102E300004F3DB07E1B204D555F824300BB130467A
:102E400098470134082CF2D1F8BD00BF38070020A4
:102E50002DE9F04780464FEA0837DFF8409007F148
:102E6000804505F5592500F0E7FDD5F8186457F8B9
:102E700009404FEAC80A24FA0AF446EA0400E4B218
:102E80004146C0B2F6B204FA0AF4FFF7C9FFC5F82A
:102E90001C6447F80940BDE8F08700BF18970D4053
:102EA00080220021014803F0A5BD00BF38070020A3
:102EB000034B044A1A60044B803A1A60704700BF03
:102EC000B807002080400D40BC070020034B01EBF9
:102ED000C0011B6843F82120704700BFB8070020DD
:102EE000034B01EBC0011B6843F82120704700BF72
:102EF000BC0700200E2870B50BD1154B154E1C6871
:102F000044F002051D60356825F03F0343F00103DE
:102F10003360114E336823F0FF031A43114301431A
:102F20000E4A316013681B06FCD50D4B0D4A1B6819
:102F300012680E2803F0FC0343EA022308BF054A87
:102F40001BB204BF1560024A184608BF146070BD6A
:102F500034000144F486084008700D4000700D40B4
:102F60000C700D4010700D40024B1868B0FA80F0E4
:102F70004009704700B708404FF40042064B10B5B7
:102F8000064CC3F89021C3F89020206818B101F0D6
:102F900063FC0023236010BD00E100E0C0070020B7
:102FA000064A136843F002031360536843F00203B8
:102FB0005360936843F002039360704748200D40CC
:102FC00007B50C4800F0AAFDFFF7EAFF0A4B1A68A4
:102FD00042F002021A6000220192019A0F2A06DDD5
:102FE0001A6822F002021A6003B05DF804FB019A2D
:102FF0000132F1E7692F200054200D40064A136882
:1030000023F002031360536823F0020353609368B4
:1030100023F002039360704748200D400B4B1A6861
:103020009207FCD41B685B065FBFED22084B1A6059
:103030001A60084B1B6813B1EF22054B1A60064A51
:103040000120137803F07F03137070474C8608400B
:10305000388808402C860840B7130020044B1868B5
:1030600000F02200A0F1200358425841704700BFF1
:103070004C860840024B186800F04000704700BFC3
:103080004C860840204B1870002832D01F4A136825
:103090001B03FCD51E4B1A6842F002021A601A6824
:1030A00042F001021A601A685007FCD51A6822F033
:1030B00001021A601A685107FCD41A6842F0020231
:1030C0001A601A6842F001021A601A685207FCD5A9
:1030D000104A136823F004031360D2F8A83123F0D8
:1030E0000403C2F8A8314FF400520B4BC3F89020F0
:1030F0007047084A136843F0040313604FF400520A
:10310000054B1A61704700BFB613002004200D4024
:10311000048808408C86084000E100E0084B93F9E1
:103120000020002A09DBED21064A11601160E3212D
:1031300011601A7862F07F021A700120704700BF98
:10314000B713002038880840A0F10B01CBB20F2B39
:1031500010B5044613D80B4B1B6813F03F0302D085
:10316000FFF75CFF012301EB8101074A0B3111607E
:103170000BB1FFF7D3FF054B60B21C7010BD4FF0D1
:10318000FF30FBE7488608403C860840EA060020FE
:1031900010B50C46002900F08680102800F28580CA
:1031A000DFE800F009101B22243B44575C72768351
:1031B000837B7D547F003E4B1B68003318BF012387
:1031C000236024E005223B4B1B6803F07F030B3B8D
:1031D00093FBF2F30B33DBB2F2E7374B1A68043B95
:1031E0001B6843EA0223EBE7344BF7E700230B604D
:1031F000334B344A1B6803F001030B6012689006DE
:1032000044BF43F002030B602F4B1B780BB9002027
:103210000BE00B6843F00403D2E700202B4B08605F
:103220001B78002BF3D001230B6010BD284B2949DC
:103230001A680023D2B201EBC3000079904202D891
:1032400051F83330BCE701330E2BF4D16FF0170384
:10325000B6E7214B1B685BB2493BB1E71F4B1B68CC
:1032600099060FD1FFF75AFF01231D490A68D207BB
:10327000FCD51C4A1168493949B20BB1FFF7CEFEA3
:103280002160C4E70023F0E7174B93F9003097E77C
:10329000164B1B7803F07F0392E70B2390E71A236A
:1032A0008EE707238CE70220BFE70120BDE700BFC0
:1032B0002C8608403C860840CC850840D4850840D0
:1032C0000086084024860840B6130020EB06002044
:1032D00040860840307820005886084048860840DC
:1032E0006486084060860840B8130020B5130020AB
:1032F00008B50B4B1B6899060FD1FFF70FFF012391
:1033000008490A68D207FCD5074A1168C1F30011C1
:103310000BB1FFF783FE084608BD0023F0E700BFAE
:1033200048860840648608404C86084010B5072847
:1033300061D8DFE800F0040F1A212541475B01291D
:1033400003D1FFF7EBFE00203BE0002955D1FFF74A
:1033500065FEF8E7A1F10B030F2B4ED8C8B2FFF7BB
:10336000F3FE0130EFD103202BE089B2244BCAB227
:10337000090A1A605960E6E789B2CAB2214BF7E739
:1033800031F0070339D1204B11F0010F1A68C1F356
:10339000800014BF42F0010222F001021A601B4BB0
:1033A00011F0020F1A6814BF42F0200222F020022E
:1033B0001A60FFF767FEC6E731F001001DD1144B1C
:1033C000197010BD01F118031F2B16D80D23114AD7
:1033D00052F83340D800A14204DC024412790E4B6B
:1033E0001A60B0E713F1FF33F2D2ACE7C9B20B4B6E
:1033F00049311960A7E70120E3E70220E1E700BFB8
:10340000C8850840D08508400086084024860840CA
:10341000EB0600203078200040860840588608409F
:1034200038B505460C46134A13689B07FCD4124B6B
:1034300093F90030002B01DBFFF770FEEE220F4BFB
:10344000691E1A601A60A21C43F8102C2144022045
:1034500000F080FA0A49013C41EA0411022000F020
:103460008BFA022000F092FA022000F0A7FA002066
:1034700038BD00BF4C860840B7130020388808408C
:1034800002C001C0F8B5224B93F90030002B18DBC5
:10349000FFF7C6FA0446FFF741FEC4F1FF2404F526
:1034A0007F04F634FFF7BCFAC442FBD40126194B63
:1034B0001B7843B9184C2368990609D502210846A0
:1034C000F8BD0026F3E7FFF713FF0028F2D1F5E778
:1034D000E9230427114D2B6023689A0703D4013F89
:1034E00017F0FF070BD123689B070CD4EE230121B3
:1034F0002B602B60002EE2D0FFF790FDDFE7062067
:10350000FFF76AFAE8E7216811F00201FBD1F1E761
:10351000B7130020EB0600204C860840388808408E
:103520000B280DD1082A0DD161B1074B074A08318C
:1035300011F8010D43F8040B9342F9D100207047B4
:103540000120704702207047A8850840C8850840C0
:1035500070B5304E336813F0400358D02E4D2C68B0
:10356000230605D5ED2200202C4B1A601A6070BD91
:10357000E4B2042CF6D9023C8C42F3DCE4B2032C16
:103580001ED12B6803702B6843702B6883702968E9
:10359000234B493949B219702B68224D18062B70FC
:1035A000E0D589B2042001F0DDFD2978032001F087
:1035B0007F0101F0D7FD1C4B1B78CBB12046D6E72D
:1035C00001190139032000F0CDF9184B611E43EABF
:1035D0000111032000F0D0F9032000F0D7F90320F7
:1035E00000F0ECF9032000F0F5F90028FAD1CEE75D
:1035F00033685A06E2D533681B0603D50C4801F040
:103600002BF9DBE7ED22054B1A601A60D6E7184666
:10361000ADE700BF4C86084028880840388808403D
:10362000B8130020B5130020B613002002C0010C0F
:1036300078040020F8B5294F3D7815F001054BD1ED
:103640000124F822264B7F261C605C609C60A3F559
:103650009323A3F514731A600922C3F8902115224D
:1036600070331A600B2203F59B2303F59E731A60D7
:103670004022A3F59B23A3F5F0731A601A6842F069
:1036800020021A60D52243F81C5CDE62DA61154B19
:103690001878FFF759FD4FF48042134B02201E604B
:1036A000124B1A6100F07EF91149022000F05AF91C
:1036B000032000F077F90E49032000F04BF90D4B81
:1036C0001878FFF7DFFC0C48294601F0ADF82046DA
:1036D0003B7823433B70F8BD0020FCE7B713002084
:1036E000A8200D40EA0600209486084000E100E092
:1036F00028880840B61300207804002038B50388D5
:10370000044653B340F20342934233D11B4B187823
:103710001A4638BB822923D1137873B901F0D4FC3F
:1037200001F062FC8021FFF713FF002805DD80B265
:1037300001F01AFC124B1B699847124B1A7852067B
:103740000BD500221A70104B1D68FFF767FCFFF7BE
:1037500071FFAB0601D0FFF7E1FC40F20343238089
:1037600001200AE01B78002BFAD0064B1B78580684
:10377000F6D5CFE700230380032038BDB613002021
:1037800018792000B7130020488608400B282DE93F
:10379000F74F8A4613D1082A40F08680002900F0AE
:1037A0008380424B424A01F1FF3A53F80419934295
:1037B0000AF8011FF9D1002003B0BDE8F08F0C28F2
:1037C00070D1042A70D100296ED03A4A3A49136860
:1037D000DFF8F09023F0070313600B68DFF8E88050
:1037E00043F008030B60D9F80030D8F800401068A7
:1037F000DFF8D8E0DFF8D8C020F070001060DEF805
:103800000000DCF80050DBB2240243EA0563A4B2F6
:103810000004234300F47F00034328480668F4B201
:10382000019400240094DDE9006746EA030613686A
:1038300023F0070343F0010313600B6843F0080310
:103840000B60D9F80030D8F800101568DBB225F00D
:10385000700545F010051560DEF80020DCF800501A
:10386000090243EA056389B212040B4302F47F02A2
:10387000134302680098D1B2894640EA0308FFF773
:10388000CFF8B6EB080667EB0907F90305460C4AC3
:103890000023F00341EA564102F064FE281ACAF8F8
:1038A000000088E7012087E7022085E7C4850840FB
:1038B000A485084010880840048808401C880840F7
:1038C0000048E80114880840188808402488084007
:1038D0002088084008B5054B1B7813B9044800F050
:1038E000BBFF0022034B1A6008BD00BFB6130020C7
:1038F0007804002034880840064B07481A68042AD8
:103900001FBF06490A7842F040020A7000221A607E
:1039100000F0A2BF2C88084078040020B7130020D4
:1039200008B5094B40220021184603F063F8012135
:10393000064A074B116050604FF480425A604FF4C2
:1039400000425A6008BD00BF0000002004F00F4094
:1039500000E100E003289EBF014B000119507047B1
:103960000000002003289EBF024B03EB00104160C3
:10397000704700BF0000002003289EBF024B03EBEE
:1039800000108160704700BF00000020032806D8A7
:103990000123034A03FA00F01168084310607047DE
:1039A00028F00F40032806D80123034A03FA00F049
:1039B000116808431060704720F00F40032806D8B4
:1039C0000123034A03FA00F01168084310607047AE
:1039D00014F00F4003289FBF044B03EB00108068D6
:1039E00000F0070088BF0020704700BF00000020E3
:1039F0004FF0FF32014B1A60704700BF04F50F40D3
:103A00000122014B1A6070474CF00F40084B1946D9
:103A10001A68D002FCD4074B1A6822F480321A606C
:103A20000A68D203FCD41A6842F400321A60704764
:103A300004200D4000200D4010B5094C226890076D
:103A40000DD0084B1A4619684901FCD413685B0174
:103A5000FCD5FEF7CFFFFFF7D9FF0023236010BD91
:103A600058200D4004200D4038B5264B1C6814F03A
:103A70003F0414D1244D55F8243023B1984770B138
:103A80000134052CF7D1214D2B7843B1FEF7C2FF4D
:103A90000446FEF7C5FF201A092800D90CB930BF2B
:103AA00027E01B4B1A6822F400321A60194A1146AB
:103AB0001068C002FCD41A6842F480321A600B68A5
:103AC000DB03FCD5FEF7ACFF201A092803D8BDE8BC
:103AD0003840FFF79BBF63280F4C0BD92B78022B84
:103AE00008D1236000F06EFE30B1FFF78FFF002396
:103AF000236038BD0123F4E7FEF78CFF0028CED108
:103B0000F3E700BF48860840C4070020B91300202F
:103B100000200D4004200D4058200D400023064A8F
:103B200052F82310814206D011B942F823007047A1
:103B30000133052BF4D17047C40700200022054B48
:103B400005491A600B6943F004030B61034B1A70BB
:103B5000704700BF58200D4000ED00E0B913002071
:103B60004FF48032064B10B5064CC3F89021C3F8D1
:103B70009020206818B100F06FFE0023236010BD74
:103B800000E100E0D807002070B51C4B1B787BBB20
:103B90001B4A1278122A2CD11A4A12784B2A28D1A1
:103BA0004A0802F52013184D2733441EAB420ED1AC
:103BB000002301F520142734851893420CDB0923D8
:103BC000014401F8013C002301F8023C70BD13F8E8
:103BD000016904F8016FE9E7E61A3678EE5401331B
:103BE000EBE7D41A2478C45401338B42F9DBE6E7BF
:103BF000002301F520122732F7E700BF2B00280031
:103C00002A00280029002800270028000FB407B543
:103C100004AA52F8041B0448019200F039F803B0DA
:103C20005DF804EB04B07047880400200EB43FB583
:103C3000094B07AA52F8041B0190049304A801AB96
:103C40000392059300F024F80022019B1A7006B03D
:103C50005DF804EB03B07047316E200070B5054687
:103C60000C460A4E102C07D874B12B68224668689F
:103C70000649BDE8704018472B6810223146686835
:103C8000984710B9103CEDE7204670BDF07B20004E
:103C90002DE9F04F0746144600258FB00791079B8A
:103CA0001B78B3B1DDF81C8000E0B046464616F83C
:103CB000013B0BB1252BF8D1079B98450ED0A8EB03
:103CC00003094A463B6807997868984728B14FF03E
:103CD000FF3528460FB0BDE8F08F4D4498F800300E
:103CE000002BF6D098F80130002BF2D04FF0000AEC
:103CF000314611F8012B33462B2A16D00AD8202A38
:103D000016D0232A17D0A2F1310008283FD84FF04F
:103D1000000918E02D2A04D0302AF4D14AF0100A04
:103D200001E04AF0010A0E46E2E74AF0060AFAE725
:103D30004AF0020AF7E74AF0080AF4E70A2303FB0D
:103D40000929A9F13009334616F8012BA2F13001F7
:103D50000929F3D91A782E2A35D159785A1CA1F19C
:103D60003000092828D8002611781346A1F1300028
:103D7000092802F101021AD91A786C2A40F09280BF
:103D80005A786C2A22D14AF0800A023321E02A2A8A
:103D90000AD1D4F800900B46B9F1000F04F10404E5
:103DA000B8BF4AF0010AD5E74FF00009D2E70A236D
:103DB00003FB0616303ED7E72A2903D126680233D3
:103DC0000434D9E713464FF0FF36D5E701334AF004
:103DD000600A1A78642A00F0928000F28580462AF0
:103DE00000F0AF8071D8252A00F0C08066D8002A84
:103DF0003FF46FAF013307930AF4E063B3F5806FCC
:103E000000F0568200F2B580B3F5807F00F0EA80C2
:103E1000B3F5407F7FF443AFAF4B1AF4804FAF4A06
:103E200018BF1A460DF1330300211E4620680434E2
:103E300050EA010C40F07482F61A04BF302203F8F5
:103E4000012C4FF0780208BF03F1FF3303F8012C77
:103E50004FF0300208BF012603F8022C232203365C
:103E6000B1458CBFA9EB06094FF000091AF0010A11
:103E7000A3F1030803F8032C06D149463846FFF79F
:103E8000EDFE00287FF423AF3B6832464146786858
:103E9000984700287FF41BAF3544BAF1000F00F0BB
:103EA0003682ACE1682A94D15A78682A02D14AF065
:103EB000200A6AE701334AF0400A8AE7412A4CD0D7
:103EC000452A97D14AF4424A94E7582A33D004D875
:103ED000472A8FD14AF4A13A8CE7612A3AD0632A63
:103EE00088D14AF4A06A85E76E2A3CD00AD8662AAF
:103EF00024D029D3672A2AD0692A7FF47BAF4AF4D9
:103F0000245A77E7732A2BD007D86F2A10D0702A4B
:103F10007FF470AF4AF4407A6CE7752A05D0782AAE
:103F20007FF468AF4AF4C85A64E74AF4106A61E75C
:103F30004AF4885A5EE74AF4B24A5BE74AF4007AE8
:103F400058E74AF4844A55E74AF4024A52E74AF4E9
:103F5000813A4FE74AF4C13A4CE74AF4E13A49E77B
:103F60004AF4806A46E74AF4E06A43E74AF4C06AE2
:103F700040E7B3F5C06F2BD0B3F5E06F00F0DF8101
:103F8000B3F5A06F7FF48BAEB9F1010F38BF4FF0DE
:103F9000010923681AF0010604F104048DF82030A9
:103FA00009F1FF3807D141463846FFF757FE002890
:103FB0007FF48DAE45443B68012208A97868984794
:103FC00000287FF484AE002E00F0A181414617E165
:103FD0003B68012242497868984700287FF477AE11
:103FE00001355CE6002EACBF2AF0100A01261AF457
:103FF00000520AF0E003069243D0402B3AD009D891
:10400000002B3AD0202B11D000220023CDE9002331
:10401000002319E0602B30D0802BF5D1073424F039
:10402000070303F10804D3E9002303E094F9002017
:10403000D3170434002A73F10001E7DA524263EB2C
:104040004303CDE90023012305930AF4C053B3F5DC
:10405000805F00F0EB80B3F5C05F00F0EC80B3F55B
:10406000006F40F00381DDE900230DF1360BCDE94F
:10407000022348E0B4F90020DAE722680434D317B9
:10408000D8E7402B1FD009D8FBB1202B14D0002338
:10409000002205930023CDE90023D6E7602B14D03E
:1040A000802BF4D1073424F0070303F10804D3E98B
:1040B0000023CDE9002304E022780023CDE900238A
:1040C0000434069BC0E72288F7E7236800221946DC
:1040D0000434CDE90012F4E7107C2000217C20009C
:1040E000437C2000DDE902010A22002302F03AFAB3
:1040F000DDE9020130320BF8012D00230A2202F023
:1041000031FACDE90201DDE902231343EAD10DF1D1
:104110003603A3EB0B030293029B41F608029E4277
:1041200088BFF61A41F208030AEA020298BF002685
:104130009A4202D1002E08BF012641F60801029BD7
:104140008A42334440F09680DDE900120A4300F0D1
:1041500091807D491AF4804F7C4A08BF0A464FF08F
:1041600002080092069A82B1059A002A40F08780E0
:104170000AF00602022A00F08780062A744A009993
:1041800004BF11464FF001080091434499458CBF8C
:10419000A9EB03094FF000091AF00103059304D1BC
:1041A0001AF0100F74D04E449946D7E90030B8F198
:1041B000000F05D042460099984700287FF487AD4C
:1041C000B246029B1D44BAF1100FD7E9003066D801
:1041D000BAF1000F05D052465E49984700287FF497
:1041E00076AD3B68029A594678684544984700285E
:1041F0007FF46DAD059B3544002B00F08880494667
:104200003846FFF72BFD002800F081805FE502F0C3
:10421000070130310BF8011DD10841EA4371D8087C
:104220000A46034652EA0301F1D170E7DDE90023B3
:104230000DF1360BF6E7484B1AF4804F0DF1360BB3
:10424000464918BF1946DDE9002352EA03003FF44E
:104250005EAF02F00F00085C4FEA131C0BF8010D73
:10426000100940EA037002466346EEE70DF1360B93
:10427000002350E74FF00008CDF8008072E74FF0C0
:104280000108374A009280E74FF00108354AF9E704
:1042900049463846FFF7E2FC002886D017E5102291
:1042A0002C49984700287FF412ADAAF1100A8AE73A
:1042B000D4F800B00434BBF1000F2CD0D84698F8E5
:1042C000003008F1010223BBA8EB0B08002E02DB33
:1042D000B04528BFB046C1458CBFA9EB08094FF0D7
:1042E00000091AF0010606D149463846FFF7B6FC28
:1042F00000287FF4ECAC3B68424659467868984702
:1043000000287FF4E4AC4544002E7FF478AF4D44A0
:10431000C5E49046D3E7DFF850B04FF00608D5E784
:1043200000F00F0C12F80CC04FEA111E03F801CD7B
:104330004FEA101C4CEA017C6046714678E5236820
:1043400004341D60ABE400BF327C2000357C2000CB
:104350003A7C2000007C2000107C2000217C200082
:10436000387C2000F57A20003C7C200010B50E4CF3
:10437000236813B90D4A136010BDFEF723FB2168B3
:10438000D1E9002313448A681B1A1AB91844074B51
:104390001860F1E7D2E900142144091A8B4228BFC2
:1043A0000B469268F1E700BFE0070020DC07002021
:1043B000014800F051BA00BF900400202DE9F843F5
:1043C0000388054653B1592B47D1872920D10020B6
:1043D00024490B6863B918B10B6001E0214A1360EE
:1043E000592301202B80BDE8F88301203346F1E7F3
:1043F000D3E902649442F8D000B10B6099680029B7
:10440000EED0C86890420ABF89680B469960F5E70C
:104410008229E5D1134F4FF00009B84600263C68C9
:10442000002CDDD0204602F044FD98B122468821C0
:10443000E06800F0D1F958B9E060A3682EB1B3602C
:10444000C4F80890FFF792FFE8E7C8F80030F7E7F4
:10445000FFF7AEFF2646A468E2E7002303800320AF
:10446000C1E700BFE007002010B50446FFF7A0FF3A
:10447000E3680B4A0BB1136833B90A4B1B68E3605E
:1044800013681460A36004E0A34206D1054A1268D1
:10449000DA60BDE81040FFF769BF9B68ECE700BF3A
:1044A000E007002068090020024B1868003018BFA0
:1044B00001207047E007002010B50B4A044613683E
:1044C000834208D183681360FFF750FF0023C4E9DB
:1044D000023310BD1346002BF8D09A68A242F9D1DE
:1044E000A2689A60F0E700BFE0070020F8B50388F3
:1044F00006461546CBB14A2B2BD188291FD1174828
:1045000002F0E8FC0446C4B1231D9D421FD12146A0
:10451000124802F0E9FC124D62692F682A60A26914
:104520000AB1E06990472F6007E00C4802F0D2FC26
:10453000044634B901220B4B1A704A233380012000
:104540000AE0A168201D02F089FC2468F1E72468D4
:10455000D9E7002303800320F8BD00BFE407002053
:1045600068090020BA13002010B50024054B064846
:104570001C7002F0ACFC2146BDE81040034800F07E
:1045800053B900BFBA130020E4070020A0040020A4
:1045900070B50446E3610B4B049D1B78C4E90552DA
:1045A0006BB1094D094B2E68201D2B6002F056FCA3
:1045B0002E602146BDE87040054802F0A8BCA1600D
:1045C000F7E700BFBA13002068090020A00400200C
:1045D000E407002013B5034C24680094FFF7D8FFCC
:1045E00002B010BD6809002010B5084B04461B78C6
:1045F00043B10430FFF760FF2146BDE81040044896
:1046000002F072BCC0E90333F6E700BFBA13002022
:10461000E407002038B5836804460D469BB10A487C
:1046200004600220A07304F10C00984702380128AE
:1046300001D9832D05D121462046BDE8384000F040
:1046400005B80123A37338BD680900202DE9F8439C
:104650001C4F89463D682C46844204D00CB9BDE805
:10466000F8832468F8E7002CF9D0174EA37BD6F81E
:10467000008063B10023A3738DB9A3683BB14C459F
:1046800005D034602A46832104F10C0098473B682A
:10469000A3420ED123683B60C6F80080DFE7AC423E
:1046A00004D022468721284602F0EFFB2D68E3E77D
:1046B0001346002BF0D01A68A242F9D122681A6082
:1046C000EAE700BF6C09002068090020002238B525
:1046D0000125084B1A70084B1C6804B938BDE37BF0
:1046E0002BB1E581002282212046FFF793FF246849
:1046F000F3E700BFBE1300206C090020024B1878BE
:10470000421C1A70704700BFBC1300208A22064B5F
:104710001A700023054A1370054A1370054A136086
:10472000054A1360704700BFBC130020BB13002074
:10473000BD1300206C090020680900202DE9F0411C
:104740001B4D2B780BB1FFF7C1FF1A4C22789AB1A1
:104750000C21194E194F3378013A59430133781817
:1047600003F01F0317F801803370D0E90170227045
:1047700090B9134B1E6826B92B7820781844BDE8F1
:10478000F0812B780BB1FFF7A1FF30463A46414646
:1047900002F07BFB3668EEE7B8F1810F08BF01231A
:1047A0003A4608BF8373414602F06FFBE4E700BF5F
:1047B000BE130020BD130020BB130020E80700201B
:1047C0006C090020024A034B10781B78184470478C
:1047D000BD130020BE130020F0B50B4E3378202B04
:1047E0000FD00C25094C0A4F24781C4404F01F04F8
:1047F0006C433D19C5E90120002001333955337060
:10480000F0BD0120FCE700BFBD130020BB1300205A
:10481000E807002038B5034C256802F036FB256018
:1048200038BD00BF6809002030B40A4C0A4625682C
:104830002B4683420CD04BB950B1012105608173E6
:1048400020608381812130BCFFF7E4BF1B68F0E763
:1048500030BC70476C09002038B1837B013B012BD1
:104860009FBF0123014AC37313707047BE1300201A
:1048700010B5084C206858B100232360D0E90131FD
:104880009847236823B1BDE810401868FEF7DAB8EE
:1048900010BD00BF7009002070B505880446672D63
:1048A00009D0792D2FD0002D33D1FFF727FF1B4BD7
:1048B00018701B4B1D601B4E194D08E00A282B6811
:1048C0000ED07E2B03DC5A1C2A60174AD054304687
:1048D00002F09EFB431CF1D16723238001201BE0E3
:1048E0005A1C2A600025104A2846D5540B4B1978CB
:1048F000FFF772FF0D4B2A4685211868FFF76CFF02
:1049000018B97923E9E78529E8D10022044B1A6018
:10491000D1E700230380032070BD00BF2B150020CA
:104920007409002078090020BF13002068090020C6
:104930000D2810B5014616D00C4C237853B90C48FD
:1049400002F053FB08B9012323700A48FFF784FFE4
:10495000012010BD0A28F8D1054802F046FB0028C6
:10496000F3D00023F0E70020F3E700BF3F1400205E
:1049700078090020B004002008B5054905488022C8
:1049800002F02CFBBDE8084000210348FFF74CBFB4
:104990004014002078090020B00400202DE9F041E7
:1049A00004880646772C20D07E2C3DD0002C4ED19A
:1049B000FFF7A4FE284D294B294FDFF8B08018706F
:1049C0002C602B6857F823202AB9264A13707723C6
:1049D000338001203EE008F80340936800218020E6
:1049E00098472B6801332B60EBE700231E4A1360C6
:1049F000194A1360184B1B4A1B6812789A4204DC50
:104A0000194B1B68002BF0D1E1E7184AD256002A57
:104A100019DA134A002052F82320104B1978FFF7B7
:104A2000DBFE28B97E23D3E70C4B1B788B42D0D119
:104A3000094B0E491A688B5C03F07F038B540A4ABA
:104A4000136801331360044A13680133D1E700236C
:104A500003800320BDE8F081840900202C1500208C
:104A600068040020C01400208009002027150020C1
:104A700010B40A4B0A491A780023934203DA51F81A
:104A80002340A04208D107490748CA5C62F07F0270
:104A9000CA5410BCFFF7E0BE0133EEE7C01400209B
:104AA0006804002027150020C0040020064A13686F
:104AB00043F004031360054B186804331B6840EA95
:104AC000032080B2704700BF00700D4014700D408D
:104AD00010B5174A136823F00C0313600122154B1D
:104AE0001A601A68012AFCD10822134B13491A6074
:104AF000E32203F505731A601A460B68DB07FCD541
:104B00000F4C102100232068013900F0010043EA16
:104B100000034FEA43039BB2F5D1002BF1D00949C2
:104B2000180A03F0FE0308600B60EF23136010BD4A
:104B300000700D40A8200D4024860840648608407F
:104B40009C86084014700D400378407840EA0320AA
:104B5000054B00FA01F1985CC2F1080200EA21203D
:104B60001041C0B2704700BF767C2000F8B5064601
:104B70000A480D46174602F0ADF9044630B93A46E8
:104B800029463046BDE8F84002F0E8BBA3680BB107
:104B900028469847204602F0D6F9EEE7880900201B
:104BA00038B500F09FF80546094802F093F904462D
:104BB00028B95DB12846BDE8384002F0CABB636839
:104BC00003B19847204602F0BEF9F0E738BD00BFB8
:104BD0008809002010B5044600F092F838B100F0C2
:104BE000DFF9034B034821469B689847012010BD1D
:104BF000447920006D4B200070B50B4C0023616E92
:104C00000A4A04F13800FFF7E5FCFFF74FFF616E39
:104C10000023B0FBF1F5064A05FB110104F1180071
:104C2000BDE87040FFF7D6BC8C090020354C200051
:104C30004D4C2000044B5A6E196E5200914294BFA5
:104C400059665A66FFF7D8BF8C09002010B500F0EE
:104C50003BFA00F0C9F900230380044600F0EEF8A7
:104C60002288930008B1017B51B9981C80B200F0F2
:104C70007BF9238873B1BDE81040074800F08CB879
:104C8000818823445980C18801329980228002F0B2
:104C90005AF9E5E710BD00BF8C0900209DF80030EF
:104CA000012B04D1024B9A6D5A66FFF7A5BF7047DE
:104CB0008C090020F8B50F4616461D46064C0146E5
:104CC000064A204600F056F8C4E9167625660448E0
:104CD000BDE8F84000F0ACB88C090020D87820007E
:104CE0009D4C2000054B10B51B689847044618B131
:104CF0008188012000F036FA204610BDC0782000DF
:104D000038B5064B05465B6898470446A9880120DC
:104D100000F028FA201C18BF012038BDC078200000
:104D2000014B9B68184700BFC0782000014802F083
:104D3000CEB800BFF809002081800146014802F08A
:104D4000E6B800BFF80900200146014802F0CCB8DF
:104D5000F809002010B50446054802F0BBF800B978
:104D600010BD8388A342FBD002F0EDF8F7E700BF47
:104D7000F809002070B505460C461646044A00F0B6
:104D800019F86E612046BDE87040024902F0B9BAD8
:104D9000E0782000847C200010B5044604491A20E5
:104DA00000F0EEF92046BDE8104002F0D0BA00BF96
:104DB0002415002070B505460C461646FFF7BCFFCB
:104DC0002E612046BDE87040014902F09ABA00BF4A
:104DD000887C200070B504461B200D4600F0DCF9ED
:104DE000064902F0F1FA38B1A3691B6823B12946DC
:104DF0002046BDE87040184770BD00BF2415002054
:104E000070B505460C461646044AFFF7B3FFAE617F
:104E10002046BDE87040024902F073BAE8782000ED
:104E20008A7C2000014802F052B800BFFC09002033
:104E3000014B1860704700BF000A0020014802F0D3
:104E400049B800BFFC0900202DE9F04106460C4896
:104E50000C46174602F03EF808B9BDE8F081838899
:104E6000A34209D18568002DF7D03B462246314642
:104E7000AC46BDE8F041604702F065F8ECE700BFE2
:104E8000FC09002008B5044802F060F8BDE80840BD
:104E9000024802F05BB800BFDC040020D004002010
:104EA00038B50E4802F062F8054650B10C4802F0E1
:104EB0005DF80446286030B92946084802F06AF8CF
:104EC0002546284638BD00F097F804F1B601A4F84D
:104ED000800004F1820000F01DF9F2E7D004002008
:104EE000DC04002010B501460446074802F068F8CB
:104EF00048B12168054802F04DF82146BDE8104050
:104F0000014802F047B810BDD0040020DC040020A6
:104F100010B501460446094802F052F868B1246809
:104F2000B4F88010204600F0DFF804F1B60104F177
:104F30008200BDE8104000F001B910BDD00400208F
:104F400010B507490B88834208DB064C80B22288E3
:104F50000244181A08800120228010BD0020FCE7BE
:104F6000D4120020D6120020014B1880704700BFD9
:104F7000D412002000487047240A0020014B1888F2
:104F8000704700BFD4120020034A044B10781B78EE
:104F90001844C0B2704700BFD1140020D6120020C0
:104FA0002DE9F0410C4F3A8872B100240B4B0C4EA6
:104FB000B3F800800B4B1D78354421B2414504F114
:104FC000010403DB00233B80BDE8F081FFF7DCFF39
:104FD0003044435C6B54F0E7D6120020D41200201A
:104FE000240A0020D114002008B5FFF7CDFF014BA3
:104FF000184408BD240A0020F8B50C4B05461E785D
:105000000B4B1F88F419802C0DDC3246094901F046
:105010007BFCFFF7E9FF354401463A46284601F09C
:1050200073FC2046F8BD0024FBE700BFD11400202C
:10503000D4120020240A002008B5FFF7A5FF024B78
:105040001B88184480B208BDD412002010B5014658
:10505000FFF7F2FF4318802B0FDC094B013800B239
:105060005A18040405D5074B187808441870012015
:1050700010BDC45C14540138F3E70020F8E700BF0A
:10508000240A0020D114002038B50C4D0C4C3422D9
:1050900000210C4801F0AEFC2946204602F091F9AF
:1050A0002946A01C02F08DF92946201D02F089F93D
:1050B0002946A01DBDE8384002F083B9867A200059
:1050C000E8140020F01400200023044A1380044A4E
:1050D0001380044A1370FFF7D7BF00BFD612002019
:1050E000D4120020D114002038B50C460546FFF735
:1050F000EBFF802C28BF802429462246034801F07C
:1051000003FC034B20461C8038BD00BF240A00204E
:10511000D412002010B5074B03F1340253F8044BAE
:10512000934240F8044BF9D1034A13680B6053686B
:105130004B6010BDF0140020E814002010B5074BA0
:1051400000F1340250F8044B904243F8044BF9D17B
:105150000B68034A13604B68536010BDF0140020C5
:10516000E8140020024B23F810100120704700BF04
:10517000F0140020014B33F810007047F0140020A9
:1051800008B5044B1A3803EB400002F01AF901206D
:1051900008BD00BFE8140020024B1A3803EB4000A2
:1051A000704700BFE81400200149024802F00CB922
:1051B000867A2000EA140020084B10B51B68984737
:1051C000074B5B689847074B5B689847064B5B68E3
:1051D0009847BDE81040054B5B681847F8772000FA
:1051E0001879200044792000FC782000CC78200039
:1051F0002DE9F041FDF7E6FB002504460C27DFF81A
:105200003C8007FB05861A20FFF7C6FF314602F0F7
:10521000DBF870B10A20FFF7ADFF337A83420BD180
:105220007068201AB0F5206F8CBF00200120BDE807
:10523000F0810135102DE4D10020F8E7A40A002008
:10524000F8B5164E002537460C241A20FFF7A4FFA8
:1052500004FB056102F0B8F8013508B9102DF3D14F
:1052600004FB05F30C3B0FD10A20FFF783FF3872D4
:10527000FDF7A8FB78601A20FFF78EFFBDE8F84025
:105280000146064802F09DB89819014651F80C2DC8
:105290009A514A6842608A688260E3E7A40A002063
:1052A00030B591B0054600F04DFA4FF6FF739842C5
:1052B00004D14FF0FF34204611B030BD4022002110
:1052C000684601F097FB404B1A782AB901221A7000
:1052D000FFF7ECFB3D4B18701420FFF74BFF8DF8E8
:1052E00010001320FFF746FF8DF81200FFF75CFF58
:1052F0000446002848D000238DF813308DF815306F
:10530000002301248DF814308DF818404DB10A2087
:10531000FFF730FF00283FD00A20FFF72BFF8DF862
:105320001A0002248DF8194000F00CFAADF81C00A8
:10533000FFF73AFF00283CD04FF6FF738DF8174077
:10534000ADF8003000F0FEF9ADF81E001A20FFF7AE
:1053500023FF014602A802F034F8FFF745FE0E9045
:10536000FFF70CFE0F90684602F038F90446002D56
:10537000A1D0FFF76BFE00289BD0FFF7FBFD014695
:10538000684602F073F996E70B20FFF7F3FE8DF8FD
:1053900015408DF81300B3E70C4B1A7802B91C7056
:1053A00019780A204A1C1A708DF81A10FFF7DAFED5
:1053B000B7E71B20FFF7F0FE0146684602F001F850
:1053C0008DF81740BEE700BFD2140020D314002090
:1053D000014BDB68184700BF44792000014B5B6933
:1053E000184700BF18792000014B9B69184700BF80
:1053F00018792000024BD86900B10047704700BF00
:105400001879200070B590F829500F4B042D28BF53
:1054100004250124DB6906469847AC40651E002838
:1054200014BF044601246C4305D0FFF73FFBB0FBDB
:10543000F4F303FB14043346214606F10800034A43
:10544000BDE87040FFF7C6B818792000BD552000B0
:105450002DE9F04107461B208846FFF79DFE484B8B
:1054600005461A78474C22B901221A70FFF71EFB35
:10547000208023880BB90123238021880A204B1C1C
:105480002380FFF76FFE404801F024FD044600280A
:1054900045D13E4801F06AFD0446002865D0294602
:1054A000201D01F08EFF002304F12C00C4E90B3015
:1054B000238501F00CFD2146334801F028FD206BC7
:1054C00001F03AFD072850DC314801F04FFD054658
:1054D00000283ED02F4801F049FDA860A8B3FFF78F
:1054E000DFFC686068B30920AE68FFF743FE00BBCD
:1054F00008233372C6E900780D20FFF73BFE012830
:105500002946206B1AD101F00FFD206B01F0E2FC5F
:10551000854232D12046BDE8F041FFF773BF2946EE
:10552000201D01F051FF0028C9D1204601F00BFDDC
:10553000ACE70920FFF71EFE3072DBE701F0E7FC65
:10554000E3E7A968134801F025FD2946104801F05A
:1055500021FD206B01F0F0FC38B921460A4801F02A
:10556000C3FC2146094801F015FD41463846BDE817
:10557000F0410123042202F0E0B8BDE8F08100BF51
:10558000D4140020D8120020C40B0020F404002002
:1055900000050020E804002008B5054801F0D6FC0D
:1055A000044801F0D3FCBDE80840034801F0CEBC3C
:1055B00000050020E8040020F404002013B5044690
:1055C00068B1006B01F086FC024640B12146054BF4
:1055D0000548DB68019302B0BDE81040184702B0EF
:1055E00010BD00BF18792000695620002DE9F04752
:1055F0000D4614468B688046D3E90067106B92F81D
:10560000289001F071FC6868FFF76CFCA9681248EB
:1056100001F0C0FC2946114801F0BCFC206B01F0F0
:1056200059FC60B1002320462385FFF7EBFE4B4673
:10563000424639463046BDE8F04702F07EB804F1F4
:105640000800FEF7D1FF2146054801F04DFC214638
:10565000044801F09FFCEAE7E80400200005002070
:10566000C40B0020F40400202DE9F0410E4617463B
:10567000044620B1006B01F02DFC054608B9BDE8D9
:10568000F0810A21686801F096FE80460A20FFF743
:1056900071FD804546D0284601F055FCEDE794F8B1
:1056A000282000203A4484F828202946224684F8FD
:1056B0002900BDE8F041FFF799BF002284F82920B6
:1056C00094F828203A44D2B284F828201B7A9342D6
:1056D0001CD8224629460220EBE794F829203A44B8
:1056E000D2B2052A84F8292007D9002194F828206D
:1056F00084F82910013284F8282094F828201B7A95
:105700009A4203D3224629460120D2E72046FFF7DA
:1057100079FE6868BDE8F04101F047BE224629469F
:105720003046C6E7AB68002BA9D0032EF6D801A2FD
:1057300052F826F09F562000DB562000BB56200072
:105740007F562000014B1888704700BFA00600203C
:105750002DE9F041012986B006460F46144603DCC8
:10576000002006B0BDE8F08103A901F0C6FF03AB3D
:1057700003CB1B88206123839DF811306161002BCE
:1057800044D0B51C02AA01A903A801F07AFE9DF835
:105790001380B8F1000F4CD0029B23B16A7815F842
:1057A000023B03EB0223B8F1020FA38332D132494B
:1057B000204601F006FE6B78237015F8023B6370FB
:1057C0009DF81580B8F1000F4DD0019B002B37D00C
:1057D0006A7815F8023B03EB0223029A9BB2E3833B
:1057E00002B9A383B8F1020F2DD1234904F10800B7
:1057F00001F0E7FD6B78237215F8023B6372A81B7A
:105800003B1A8742C4E90E53AADBAAE7B378F51C1A
:10581000A376B7E7B8F1030FD2D105F1080213461A
:10582000611E13F8010D9D4201F8010FF9D11546D3
:10583000C6E71149204601F0C4FDA4F81C80BFE76B
:10584000A38BE383CEE7B8F1030FD8D105F10802AB
:10585000134604F1080113F8010D9D4201F8010BF4
:10586000F9D11546CBE7044904F1080001F0A9FD80
:10587000A4F81E80C3E700BF867A2000014B1B6A94
:10588000184700BFF87720002DE9FF4E81468A4671
:105890001A203F49FFF774FC01210B20FFF762FC3F
:1058A0003C4B5B689847002870DBFFF763FB3A4D81
:1058B00090F802B06C68FFF75DFB0646FFF7BCFB93
:1058C00001463046A047FFF76FFCAE690746B04778
:1058D000044610B1012200240CE0A7B1AB6801938B
:1058E000FFF7AAFB019B9847024688B102280CBF2C
:1058F0000122042248460123514601F01EFF2046A2
:1059000004B0BDE8F08EEB6998470028E6D0E1E7E7
:10591000002F39D1FDF784F80446FDF705FAC4F1EC
:10592000FF2404F57F04F334FDF77AF8C442FBD476
:10593000B047EE69E8B1FDF773F80446FDF7F4F9F6
:10594000C4F1FF2404F57F04EB34FDF769F8C44289
:10595000FBD4B0470446A0B12B69032103A89847A4
:10596000032803D19DF80E305B450CD000240122A2
:10597000C0E7B04704460028DDD16B69984700288E
:10598000D9D00222B6E700220124B3E70522A2E71C
:105990002415002038792000F877200082B0044BCD
:1059A00018B11B6A019302B018475B6AFAE700BF9F
:1059B000F877200007B5FFF7E1FA03281BD00F4B5B
:1059C0009B689847002816DB1B20FFF7E5FB0C4976
:1059D00001F0FAFC58B1FFF70BFC60B9FFF730FC9F
:1059E000084BDB68019303B05DF804EB1847FFF741
:1059F000DBFB0028EFD103B05DF804FB3879200011
:105A000024150020FC78200008B5024B1B6898473D
:105A1000023008BDF078200038B50C4B9B689847E1
:105A2000041E02DA4FF0FF3038BDFFF7DDFA0378CD
:105A30000546002BF6D10220FFF782FA0028F1D0AC
:105A40006878FFF791FAA01CEEE700BFF07820001D
:105A500070B50220FFF7FAFA10B94FF0FF3070BDB1
:105A6000FFF788FA002505700446FFF787FA607093
:105A7000FFF7E2FA0446FFF7C7FF20442A2812DCAA
:105A8000C0F12B00C4B2FFF7AFFA0646FFF776FA73
:105A900022462946304400F0ADFFFFF76FFA20445C
:105AA00080B2FFF761FA044B5B689847041ED4DBB1
:105AB000FFF776FAA01CD2E7F0782000014B9B6834
:105AC000184700BFCC78200070B504460D4614205E
:105AD0000121FFF747FB034B29462046BDE87040F4
:105AE0009B681847FC7820002DE9F04F0220A7B0F2
:105AF0000F46FCF7ADFD2A4B2A4D5B782B70FFF764
:105B000073FA00F0C1FF06460420FFF733FB03B22F
:105B1000044606A80493FFF76FFA00281ADC2978D8
:105B200006257B780A1F181F644305FB02021E48E6
:105B300024B220F812400498F6B23A780190029408
:105B400000961A48FEF762F80220FCF789FD27B09C
:105B5000BDE8F08F164906A800F0C4FF4FF000081A
:105B600003464FF0060ADFF84090DFF844B0002B00
:105B7000D5D01846059300F077FE059B40B1184636
:105B800000F072FE7B78043B0AFB038329F81300C4
:105B90005946002000F0A6FF08F101080346E6E799
:105BA00024150020E7140020A2060020E07C20003D
:105BB000F57A200030B50C468BB06846FFF71CFA2A
:105BC0000220FCF745FD042025786478FFF7D2FA1F
:105BD000224603B229460648FEF718F80DF10201E5
:105BE0000448FEF713F80220FCF73AFD0BB030BD75
:105BF000697D20009A7D2000832910B5044602D1DA
:105C0000094801F0B5FB23882BB1D42B08D0002321
:105C10000320238007E0054A81210348FFF7F0F8BD
:105C2000D4230120238010BDC80C002068792000F7
:105C300000232DE9F04FB1B015AC214612251E46C8
:105C40004FF40057002205FB0340934218BF21F890
:105C5000127002F1010208BF20F81360062AF4D185
:105C60000133062B01F11201ECD10C25424A03A9A4
:105C700002F14800002305FB03F632F813700133EC
:105C8000062B8F53F7D10C32824201F10201F1D180
:105C9000224604F16C0003A9002331F8135022F8C6
:105CA0001350D5182B730133062BF6D112328242D2
:105CB00001F10C01F0D14FF0120915AB0193204610
:105CC000002203AD00F10C08C446274601461DE042
:105CD00009FB03F635F913E0BE5BB1F800B0B6443A
:105CE000F3455FFA83FA07DD30F813E001327644BA
:105CF0000E80D2B28CF800A00133062BE8D102311D
:105D0000414507F102070CF1010C01D00023DFE748
:105D1000019B0C359D4200F11200D3D1002ACED157
:105D20000127DFF858B0DFF85890DFF858A0242595
:105D300039465846FDF76AFF012605FB0795A4F191
:105D40000208A319DA7A38F8023F0132D2B26E7033
:105D50006A732B83314650460136FDF757FF072EF5
:105D600005F10205EDD10137072F04F11204DED150
:105D700031B0BDE8F08F00BFA2060020A57C200056
:105D8000B6120020B77C200081F0004102E000BF85
:105D900083F0004330B54FEA41044FEA430594EAEB
:105DA000050F08BF90EA020F1FBF54EA000C55EA26
:105DB000020C7FEA645C7FEA655C00F0E2804FEAF7
:105DC0005454D4EB5555B8BF6D420CDD2C4480EAD9
:105DD000020281EA030382EA000083EA010180EA09
:105DE000020281EA0303362D88BF30BD11F0004F57
:105DF0004FEA01314FF4801C4CEA113102D040428D
:105E000061EB410113F0004F4FEA03334CEA1333C7
:105E100002D0524263EB430394EA050F00F0A780DF
:105E2000A4F10104D5F1200E0DDB02FA0EFC22FADA
:105E300005F2801841F1000103FA0EF2801843FACE
:105E400005F359410EE0A5F120050EF1200E012ABF
:105E500003FA0EFC28BF4CF0020C43FA05F3C018FD
:105E600051EBE37101F0004507D54FF0000EDCF176
:105E7000000C7EEB00006EEB0101B1F5801F1BD31F
:105E8000B1F5001F0CD349085FEA30004FEA3C0C23
:105E900004F101044FEA445212F5800F80F09A8019
:105EA000BCF1004F08BF5FEA500C50F1000041EB1D
:105EB000045141EA050130BD5FEA4C0C404141EB21
:105EC000010111F4801FA4F10104E9D191F0000F48
:105ED00004BF01460020B1FA81F308BF2033A3F1CB
:105EE0000B03B3F120020CDA0C3208DD02F1140CC2
:105EF000C2F10C0201FA0CF021FA02F10CE002F1FD
:105F00001402D8BFC2F1200C01FA02F120FA0CFCF5
:105F1000DCBF41EA0C019040E41AA2BF01EB04513E
:105F2000294330BD6FEA04041F3C1CDA0C340EDC3C
:105F300004F11404C4F1200220FA04F001FA02F37F
:105F400040EA030021FA04F345EA030130BDC4F13D
:105F50000C04C4F1200220FA02F001FA04F340EA32
:105F60000300294630BD21FA04F0294630BD94F0E3
:105F7000000F83F4801306BF81F480110134013DCA
:105F80004EE77FEA645C18BF7FEA655C29D094EA3B
:105F9000050F08BF90EA020F05D054EA000C04BFB9
:105FA0001946104630BD91EA030F1EBF00210020A4
:105FB00030BD5FEA545C05D14000494128BF41F043
:105FC000004130BD14F580043CBF01F5801130BDA7
:105FD00001F0004545F0FE4141F470014FF0000032
:105FE00030BD7FEA645C1ABF194610467FEA655CE3
:105FF0001CBF0B46024650EA013406BF52EA033585
:1060000091EA030F41F4002130BD00BF90F0000F72
:1060100004BF0021704730B54FF4806404F13204AE
:106020004FF000054FF0000150E700BF90F0000F67
:1060300004BF0021704730B54FF4806404F132048E
:1060400010F0004548BF40424FF000013EE700BF5E
:1060500042004FEAE2014FEA31014FEA02701FBFEE
:1060600012F07F4393F07F4F81F06051704732F020
:106070007F4208BF704793F07F4F04BF41F4002177
:10608000704730B54FF4607401F0004521F00041D5
:106090001CE700BF50EA010208BF704730B54FF05F
:1060A00000050AE050EA010208BF704730B511F060
:1060B000004502D5404261EB41014FF4806404F198
:1060C00032045FEA915C3FF4D8AE4FF003025FEA1E
:1060D000DC0C18BF03325FEADC0C18BF033202EBA2
:1060E000DC02C2F1200300FA03FC20FA02F001FAFC
:1060F00003FE40EA0E0021FA02F11444BDE600BF9F
:1061000070B54FF0FF0C4CF4E06C1CEA11541DBF4D
:106110001CEA135594EA0C0F95EA0C0F00F0DEF818
:106120002C4481EA030621EA4C5123EA4C5350EAFD
:10613000013518BF52EA033541F4801143F480134E
:1061400038D0A0FB02CE4FF00005E1FB02E506F0DF
:106150000042E0FB03E54FF00006E1FB03569CF034
:10616000000F18BF4EF0010EA4F1FF04B6F5007F3A
:1061700064F5407404D25FEA4E0E6D4146EB0606AC
:1061800042EAC62141EA55514FEAC52040EA5E5035
:106190004FEACE2EB4F1FD0C88BFBCF5E06F1ED8DF
:1061A000BEF1004F08BF5FEA500E50F1000041EB16
:1061B000045170BD06F0004646EA010140EA0200C3
:1061C00081EA0301B4EB5C04C2BFD4EB0C0541EAE5
:1061D000045170BD41F480114FF0000E013C00F3FA
:1061E000AB8014F1360FDEBF002001F0004170BD1E
:1061F000C4F10004203C35DA0C341BDC04F1140437
:10620000C4F1200500FA05F320FA04F001FA05F2C2
:1062100040EA020001F0004221F0004110EBD3708F
:1062200021FA04F642EB06015EEA430E08BF20EABB
:10623000D37070BDC4F10C04C4F1200500FA04F35E
:1062400020FA05F001FA04F240EA020001F00041F0
:1062500010EBD37041F100015EEA430E08BF20EA63
:10626000D37070BDC4F1200500FA05F24EEA020EAB
:1062700020FA04F301FA05F243EA020321FA04F0DA
:1062800001F0004121FA04F220EA020000EBD37091
:106290005EEA430E08BF20EAD37070BD94F0000F91
:1062A0000FD101F00046400041EB010111F4801FC5
:1062B00008BF013CF7D041EA060195F0000F18BF76
:1062C000704703F00046520043EB030313F4801FB2
:1062D00008BF013DF7D043EA0603704794EA0C0F6C
:1062E0000CEA135518BF95EA0C0F0CD050EA410682
:1062F00018BF52EA4306D1D181EA030101F00041FF
:106300004FF0000070BD50EA410606BF1046194626
:1063100052EA430619D094EA0C0F02D150EA013632
:1063200013D195EA0C0F05D152EA03361CBF104673
:1063300019460AD181EA030101F0004141F0FE4112
:1063400041F470014FF0000070BD41F0FE4141F496
:10635000780170BD70B54FF0FF0C4CF4E06C1CEA96
:1063600011541DBF1CEA135594EA0C0F95EA0C0F4B
:1063700000F0A7F8A4EB050481EA030E52EA033506
:106380004FEA013100F088804FEA03334FF0805527
:1063900045EA131343EA12634FEA022245EA111554
:1063A00045EA10654FEA00260EF000419D4208BF05
:1063B000964244F1FD0404F5407402D25B084FEAB2
:1063C0003202B61A65EB03055B084FEA32024FF45E
:1063D00080104FF4002CB6EB020E75EB030E22BFBB
:1063E000B61A754640EA0C005B084FEA3202B6EB7B
:1063F000020E75EB030E22BFB61A754640EA5C002A
:106400005B084FEA3202B6EB020E75EB030E22BFB9
:10641000B61A754640EA9C005B084FEA3202B6EBBA
:10642000020E75EB030E22BFB61A754640EADC0079
:1064300055EA060E18D04FEA051545EA16754FEADB
:1064400006164FEAC30343EA52734FEAC2025FEAF9
:106450001C1CC0D111F4801F0BD141EA00014FF088
:1064600000004FF0004CB6E711F4801F04BF014359
:106470000020B4F1FD0C88BFBCF5E06F3FF6AFAE75
:10648000B5EB030C04BFB6EB020C5FEA500C50F105
:10649000000041EB045170BD0EF0004E4EEA113188
:1064A00014EB5C04C2BFD4EB0C0541EA045170BD8F
:1064B00041F480114FF0000E013C90E645EA060ED3
:1064C0008DE60CEA135594EA0C0F08BF95EA0C0F01
:1064D0003FF43BAF94EA0C0F0AD150EA01347FF449
:1064E00034AF95EA0C0F7FF425AF104619462CE720
:1064F00095EA0C0F06D152EA03353FF4FDAE104683
:10650000194622E750EA410618BF52EA43067FF4D3
:10651000C5AE50EA41047FF40DAF52EA43057FF463
:10652000EBAE12E74A0011D212F5001211D20DD5CE
:106530006FF47873B3EB62520ED44FEAC12343F089
:10654000004343EA505323FA02F070474FF0000033
:10655000704750EA013002D14FF0FF3070474FF0E2
:106560000000704753B94AB9002908BF00281CBF72
:106570004FF0FF314FF0FF3000F074B9ADF1080C6F
:106580006DE904CE00F006F8DDF804E0DDE9022351
:1065900004B070472DE9F0478C460446089E002B56
:1065A0004BD18A42154667D9B2FA82F24AB1C2F19A
:1065B000200701FA02F320FA07F7954047EA030C97
:1065C00094404FEA154EBCFBFEF71FFA85F80EFB10
:1065D00017C307FB08F9210C41EA0343994509D980
:1065E000EB1807F1FF3180F01C81994540F21981C9
:1065F000023F2B44A3EB0903B3FBFEF00EFB103369
:1066000000FB08F1A4B244EA0344A14209D92C19C1
:1066100000F1FF3380F00781A14240F2048102388B
:106620002C4440EA07400027641A1EB10023D440DE
:10663000C6E900433946BDE8F0878B4209D9002EF0
:1066400000F0EC800027C6E9000138463946BDE875
:10665000F087B3FA83F7002F48D18B4202D38242EE
:1066600000F2FB80841A61EB030301209C46002E9C
:10667000E0D0C6E9004CDDE702B9FFDEB2FA82F2F3
:10668000002A40F08F800127491B4FEA15481FFA66
:1066900085F9B1FBF8FE08FB1E1109FB0EF04FEA6D
:1066A000144C4CEA0143984207D9EB180EF1FF3124
:1066B00002D2984200F2CD808E461B1AB3FBF8F04E
:1066C00008FB103309FB00F9A4B244EA0344A145D6
:1066D00007D92C1900F1FF3302D2A14500F2B68090
:1066E0001846A4EB090440EA0E409EE7C7F12005D6
:1066F000BB4022FA05FC4CEA030C21FA05F44FEAF0
:106700001C4EB4FBFEF91FFA8CF80EFB194420FA5C
:1067100005F3B94009FB08FA19430B0C43EA04449A
:10672000A24502FA07F200FA07F30BD91CEB0404A6
:1067300009F1FF3080F08880A24540F28580A9F100
:1067400002096444A4EB0A04B4FBFEF00EFB1044FF
:1067500000FB08FA89B241EA0444A24508D91CEBBF
:10676000040400F1FF316BD2A24569D902386444B8
:1067700040EA0940A0FB0289A4EB0A044C454146CB
:10678000CE4654D351D0002E69D05A1A64EB0E0471
:1067900004FA05F522FA07F3FC401D43C6E900544C
:1067A000002747E79540C2F1200321FA03F04FEAA2
:1067B0001548B0FBF8F71FFA85F908FB170024FA13
:1067C00003F3914007FB09FC0B43190C41EA00411C
:1067D0008C4504FA02F407D9691807F1FF3031D269
:1067E0008C452FD9023F2944A1EB0C01B1FBF8F0F5
:1067F00008FB101C00FB09FE99B241EA0C418E45D2
:1068000007D9691800F1FF3318D28E4516D902381E
:106810002944A1EB0E0140EA07473AE737463046E4
:1068200008E70F46E6E61846FBE64345ABD2B8EB71
:10683000020169EB0C0201389646A4E71846E8E726
:10684000084695E70746CFE781467BE702382C44A8
:1068500047E7AEF1020E2B442FE7384607E73746ED
:10686000E8E600BF704700BF0A22002100F006BA28
:10687000D0F8EC00704700BF82B049B15AB16BB19B
:1068800013780B601278101C18BF012002B07047FB
:1068900001A9002AF3D1104602B070476FF0010041
:1068A000F4E700BF032A70B414D940EA0105AD072C
:1068B00004460B4622D11D6826681946AE42204682
:1068C00003F1040304F1040418D1043A032A204616
:1068D0001946F0D8541E72B102780B789A4208BF5C
:1068E000641806D00CE010F8012F11F8013F9A420D
:1068F00006D1A142F7D1002070BC7047541EEBE7CF
:10690000D01A70BC704700BF844641EA000313F000
:10691000030349D1403A23D30B6803604B684360BB
:106920008B688360CB68C3600B6903614B6943610B
:106930008B698361CB69C3610B6A03624B6A4362F3
:106940008B6A8362CB6AC3620B6B03634B6B4363DB
:106950008B6B8363CB6BC36340304031403ADBD2F7
:1069600030320BD30B6803604B6843608B688360E5
:10697000CB68C36010301031103AF3D20C3205D31B
:1069800051F8043B40F8043B043AF9D2043208D0F1
:10699000D2071CBF11F8013B00F8013B01D30B8863
:1069A00003806046704700BF082A13D38B07B1D01D
:1069B00010F00303AED0C3F10403D21ADB071CBFEF
:1069C00011F8013B00F8013BA4D331F8023B20F859
:1069D000023B9FE7043AD9D3013A11F8013B00F892
:1069E000013BF9D20B7803704B7843708B7883703E
:1069F00060467047F0B4860743D0541E002A3ED04C
:106A0000CAB2034602E014F1FF3438D303F8012B75
:106A10009D07F8D1032C2BD9CDB245EA05250F2CC3
:106A200045EA054516D9A4F110073F0903F12006F0
:106A300006EB071603F1100242E9045542E902553C
:106A40001032B242F8D104F00F040137032C03EBEB
:106A500007130DD91E462246043A032A46F8045B62
:106A6000FAD8221F22F003020432134404F0030474
:106A70002CB1C9B21C4403F8011B9C42FBD1F0BCF1
:106A8000704714460346C5E720F0030110F00300E9
:106A9000C0F1000051F8043B00F1040C4FEACC0CAB
:106AA0006FF000021CBF22FA0CF213434FF0010CEE
:106AB0004CEA0C2C4CEA0C4CA3EB0C0222EA03022D
:106AC00012EACC1204BF51F8043B0430F4D0C2F1F6
:106AD000000102EA0102B2FA82F2C2F11F0200EBE7
:106AE000D2007047024A012312685C3200F002B8FB
:106AF0009C060020F0B420B307460D4617F8016B42
:106B000001E0A64216D015F8014B002CF9D1EEB1E8
:106B10003E460C4616F8015B00E073B114F8013BE9
:106B20009D42FAD15DB100233B70166006463046A7
:106B3000F0BC704763B13846DEE73746E8E72E46DB
:106B4000F3E710680028D7D10646F0E71660EEE7B5
:106B5000176006460370EAE72DE9F84F0E468046B7
:106B6000174699460D4600E025462C460A9814F82B
:106B700001BBFFF77DFE5844417811F00801F3D1C5
:106B8000BBF12D0F57D0BBF12B0F04BF95F801B00F
:106B9000AC1CB9F1000F04D0B9F1100F50D0CC46A5
:106BA00005E0BBF1300F55D04FF00A09CC46002963
:106BB0000CBF6FF0004E4FF0004E0025BEFBFCF303
:106BC00028460CFB13EA05E029D001250CFB002028
:106BD00014F801BBABF13002092A05D9ABF141022F
:106BE000192A0BD8ABF1370291450FDDB5F1FF3F04
:106BF000EED08342E8D24FF0FF35E9E7ABF1610216
:106C0000192A03D8ABF157029145EFDC6B1C0BD06E
:106C100001B140420FB14DBB3E60BDE8F88F9245D7
:106C2000D3DA4FF0FF35D3E72223C8F80030FFB1A5
:106C30007046661EF0E7AC1C95F801B00121A8E78C
:106C4000BBF1300FABD1237803F0DF03582B06D014
:106C5000CC46ACE7237803F0DF03582B0AD14FF082
:106C6000100C94F801B0E1460234A0E78646DFE755
:106C70007046D2E74FF00809CC4698E7084B70B54C
:106C80001D68084E6C6B82B0002C08BF344613465A
:106C900000940A4601462846FFF75EFF02B070BD29
:106CA0009C0600203005002019B1FF2A03D80A7085
:106CB0000121084670478A234FF0FF310360F8E74F
:106CC000FEE708B5FBF7D6FBF7B5002406462546D8
:106CD00027463046FBF7BCFC0197019BAB4215DB16
:106CE0003046FBF7BDFCC5F5C8750197019B9D4279
:106CF00011DC0134B4F5487F01D103B0F0BDB4F527
:106D0000C87FCCBFC4F548752546E2E700BF019BAC
:106D100001330193E1E700BF019B01330193E5E7F4
:106D2000FBF754BDFBF7FCBD70470020FBF7DEBE50
:106D30000120FBF7DBBE0020FCF78AB80120FCF73E
:106D400087B80220FCF784B80320FCF781B810B59F
:106D50000C46FCF765FB2046BDE81040FCF792BBF3
:106D600010B50446C1B20020FBF7C4FF204610BD99
:106D700070B5054604464618601B0CB1237803B96C
:106D800070BDB442FCD018460134FFF7E9FFF3E7C9
:106D900070B505460446661B14F8010B20B1FFF7D9
:106DA000DFFF661B002CF6D10A20FFF7D9FF304623
:106DB00070BD002070470120704710B50446302296
:106DC00000210E20FCF796F86CB1012C0CD142F298
:106DD00010730011A0F28E5058432A2390FBF3F059
:106DE00000F5C340283010BD4FF00040FBE7002005
:106DF00070470120704710B50446302200210F2053
:106E0000FCF778F85CB1012C03BF40F6F25358430D
:106E100047F6F0734FF0004008BF90FBF3F010BD51
:106E200008B5084612B11146FFF7A2FF002008BDC1
:106E300038B5044615460068FFF766FD2268002055
:106E40002A44226038BD10B5041F54F8040F00B95D
:106E500010BD0021FDF7E8FCF7E7704710B50446C8
:106E600000F01BF82046BDE81040FDF7FDBA10B554
:106E7000044600F019F82046BDE81040FDF7F4BACA
:106E8000C068B0FA80F040097047837BDB0701D50A
:106E9000FDF7C0BB7047FFF747BF10B54160044620
:106EA000FBF790FD206010BDD0E900321344036071
:106EB000704710B50446FBF785FD2368C3F1010355
:106EC0000344606898422CBF0020012010BD0023BD
:106ED0000360704700687047006808B9704718463B
:106EE0000368002BFBD17047036810B53BB1002449
:106EF00099421A6806D11CB9026000230B6010BDCC
:106F00002260FAE71C46002AF9D01346F0E738B5AC
:106F10000546FFF7E9FF00230B60FFF7DDFF08B927
:106F2000296038BD0160FCE738B50446FFF7DCFF97
:106F300003680B60216038BD0368002003B9704707
:106F400001301B68FAE700B10068704710B50446CD
:106F5000428800214068FFF74DFD23886288A068C1
:106F60005A43BDE810400021FFF744BD002310B58F
:106F70004188994201DC002009E04268D418D25CC3
:106F800032B9012222700288806803FB020010BD22
:106F90000133EEE7002330B5826844889C4201DC6F
:106FA000FF2008E08A4207D14168CA5C0AB1013A71
:106FB000CA544268D05C30BD058801332A44EDE7ED
:106FC00082688A4208D84388008800FB03208142F7
:106FD0002CBF002001207047002070470023013A99
:106FE0000160027143718371704710B542798379F2
:106FF0000479D31A34EA030308D003689954437917
:107000000279013313404371012010BD0020FCE7D9
:10701000837942790179D21A0A421FBF0268D25C91
:1070200001330B401ABF837110464FF0FF30704799
:10703000831C0020023313F8042C02B9704713F8A4
:10704000032C1044F6E7072B2DE9F8430746884642
:1070500015461C4607DC1A4629464046FDF774FDD6
:107060003870BDE8F883DE10BAB14FF0000908EBC4
:10707000090008222946FDF767FD07F8090009F114
:1070800001094E45F3DC14F00702EAD0294608EB6B
:107090000600FDF759FDB855E3E718F805307B55B4
:1070A0000135AE42F9DC14F00702DAD00021EEE738
:1070B0002DE9F743FDF798FF04460220FDF740FF56
:1070C00020B90025284603B0BDE8F0836378207816
:1070D00000EB032080B2FDF73DFE05460028F0D00E
:1070E000FDF782FF8046287B10F0070318BF0123BD
:1070F00003EBD000FDF724FF0028E2D00026B146C4
:10710000AC68023414F8023C002BDBD0192B14F8C5
:10711000017C08EBE60106F007020BD901A83B460B
:10712000FFF791FF01A914F8020CFEF729F83E447D
:107130000234E7E73B4601A8ADF80490FFF783FF70
:107140009DF805109DF8043014F8020C43EA012163
:10715000FEF708F8EBE7072B2DE9F0410FDC147878
:10716000C1F11001CB1A04FA03F30178C3F307222B
:107170000A43417802700B434370BDE8F081DD1093
:1071800081B3044602F1FF3CC1F1080E261AB54254
:1071900018DC13F0070325EAE575EED0525DC3F164
:1071A000080631440A41D2B2C3F11003415D02FA2C
:1071B00003F3C3F307220A43441942556278134389
:1071C0006370DAE71CF8016F94F8008006FA0EF697
:1071D000C6F3072747EA0807277014F8017F3E43E4
:1071E0002670D3E7545C44540131A942FADB13F012
:1071F0000703C2D0525DC3F108042241C3F110035A
:10720000445D02FA03F3C3F30722224341194255B6
:107210004A7813434B70B0E72DE9F743047B0546EA
:1072200014F0070318BF012303EBD404A01CFDF7DF
:107230000DFFA8B1FDF79EFEAB880370AB881B0A5B
:107240004370FDF797FE871C224600213846FFF762
:10725000D1FBAC680025023414F8020C18B90120E7
:1072600003B0BDE8F083192814F8016C07EBE508BA
:1072700005F007090AD9FDF78FFF33460246494654
:107280004046FFF768FF35440234E5E7FDF772FF3B
:107290008DF80400000A8DF80500334601AAEEE7D8
:1072A00010B5FDF7EFFDFDF70FFFFDF7BBFD00F09B
:1072B00026F8BDE810404FF4E1234FF4F0524FF4AC
:1072C00000710220FDF7F6BC7047F8B50F46FDF7D8
:1072D0008BFE06880446FDF751FEB300023383425D
:1072E00003D800250234AE4200DCF8BD54F8041B7C
:1072F00038460A0C89B2FDF7A7FD0135F3E7FDF723
:1073000015BD38B50D46FDF725FD044620B1856055
:107310002846FDF705FD207338BD43695B6803B15E
:107320001847704713B504461A20FDF735FF01468C
:1073300001A800F046F863691B6813B101A9204653
:10734000984702B010BD00F000B8FDF7FDBCFDF796
:1073500041BC03691B6803B11847704703695B6848
:1073600003B11847704783695B6803B118477047DA
:10737000FFF7E9BF0EF00F000D2808BF00F00EB8B0
:1073800000982DE9F04F00F1240181F3098890E87D
:10739000F08F0EF00F000D2818BF7047EFF3098033
:1073A00020E9F04F0990BDE8F08F006800F1B601C8
:1073B0008230FDF7AFBE036803EB4101B1F88200F4
:1073C00070470B880380704708B50222FFF76AFAFE
:1073D000B0FA80F0400908BD30B591B0FDF704FE69
:1073E0000446FDF7CBFD6A4601462046FEF7B0F99C
:1073F000044620B94FF0FF34204611B030BDFDF7F0
:107400009FFD0028F6D09DF810101420FDF7AAFE6D
:107410009DF81730ABB1BDF81C50FEF793F98542CB
:1074200005D04FF6FF73BDF81C209A42E2D16946A1
:107430009DF8170000F0C3F818B969461B20FDF746
:107440009FFE02A91A20FDF79BFE9DF81210132043
:10745000FDF788FE9DF8153053B99DF81A100A20E3
:10746000FDF780FE9DF81A100E20FDF77BFEC3E7A6
:107470004FF6FF71F3E70120FDF712BF0020FDF783
:107480000FBF30B528B3037A022B2BD1C579437ACD
:1074900004792DB9002B4DD1012C4BD1204614E09D
:1074A00003B9ECB1032D2FD1032B2FD1B4FA84F003
:1074B0004009002309E0002B38D1002C3CD11846AC
:1074C000023B012B8CBF0023012301B10B6002B1F1
:1074D000106030BD023B012B8CBF00230123DDE790
:1074E00001201BE00378022B26D0037953B9437A9D
:1074F00013F0030318BF0123C07910F0030018BF75
:107500000120E2E70023F7E7022DD4D0A3F1020C1B
:10751000DCF1000040EB0C00002CCAD1022DCFD0D2
:10752000032DC6D19C1E63426341CEE70120002C8F
:10753000BFD1C5E7002CCDD000200346C5E700230E
:1075400037B50B608B80437D0D46D9075CBF0123A7
:107550002B70037E0446012B0BD8C37D9A072CD0D9
:10756000437E9B0729D0C28B838B9A4225D101236E
:10757000237501AA694604F11000FFF782FF009B02
:107580000BB10223EB70019B0BB102236B70E37D07
:1075900003F00303022B03D0032B0CBF08230023AB
:1075A000AB70637E03F00303022B03D0032B0CBFED
:1075B000082300232B7103B030BD0023D8E7022835
:1075C0000CBF022308230B448B4201D101207047DA
:1075D00013F8012DFF2AF7D00020704707B5694640
:1075E000FFF7ADFF9DF800309DF801000233034422
:1075F0009DF8020003449DF8030003449DF8040035
:1076000003449DF80500184403B05DF804FB43787B
:107610008278DB00120102F0100203F0080313432A
:10762000027802F007021343C278520102F02002EE
:1076300013430279920102F0400213430B70437925
:10764000427A03F0010343EA82138279520002F086
:1076500002021343C279920002F00C021343027A31
:10766000120102F0300213434B70704737B50446E5
:107670000D466946FFF763FF04F110002946FFF746
:10768000C6FF9DF80030012B02BFA37E0320AB7024
:107690009DF8013018BF0220022B08D1A28B431C99
:1076A0002A54A28BDBB20230120AC0B2EA549DF80F
:1076B00002301844C0B2C21AD2B2ABB99DF803303E
:1076C000022B08D1E28B431C2A54E28BDBB202303E
:1076D000120AC0B2EA549DF804301844C0B2C21A6B
:1076E000D2B22BB903B030BD013BE15CA954E2E753
:1076F000013BE118097AA954F1E70278437802F0D6
:1077000007000870C2F3C0004870C2F30010887010
:10771000C2F34010C2F380120A7103F001024A71F1
:10772000C3F340028A71C3F38102CA71C3F3011229
:107730009B09C8700A724B72704730B40D460446FC
:10774000114620B11A462846234630BC184730BCA3
:10775000704700207047FEF791B870B504460D469B
:1077600052B1D2E90060FDF7D3FB29462046FEF76F
:107770008BF832460028F3D170BDFEF785B870470C
:10778000FE7A200075262000D1262000000000008F
:1077900001000000010000000100000000C00040E6
:1077A00000410D4000000000080000002C00000017
:1077B00000000001FFFFFFFF0500000002000000C5
:1077C000020000000200000000D0004008410D400F
:1077D00002000000080000002C000000020102006E
:1077E000FFFFFFFF06000000997B20009D7B20002B
:1077F000AC7B2000B07B20003536200021342000F7
:10780000853420004F6D200051352000F1322000DA
:107810005D302000753020001D3120001D3020001B
:10782000913120002D3320008D372000213520009C
:1078300007000000FF00000005000000ED00000050
:1078400003000000D500000001000000C50000009A
:1078500000000000B6000000FFFFFFFFB0000000C6
:10786000FDFFFFFFA1000000FBFFFFFF91000000F4
:10787000F9FFFFFF88000000F7FFFFFF7200000024
:10788000F5FFFFFF62000000F3FFFFFF580000005C
:10789000F1FFFFFF42000000E8FFFFFF00000000D3
:1078A000D77B2000BB6D2000B36D2000B76D20009A
:1078B000EB7B2000F76D2000EF6D2000F36D2000C2
:1078C000B170200019722000317020007F7C2000F0
:1078D000A1722000A14B2000CB722000C9722000B1
:1078E000257320001B732000D54D200067732000F6
:1078F0007D74200077742000D9732000907C2000D4
:107900009955200051542000D1532000DD53200010
:10791000E9532000F5532000957C20005777200084
:107920007B7720005B772000B55920007D58200030
:107930009D59200053772000095A2000515A2000F9
:10794000195A20009D7C20007F772000C95A200012
:10795000BD5A200020050020100500200000000076
:10796000E95A200000000000B55B20000000000084
:1079700043000000504F5349580000000000000031
:107980002E00000000202020202020202020282859
:1079900028282820202020202020202020202020CF
:1079A000202020202088101010101010101010100F
:1079B000101010101004040404040404040404103F
:1079C00010101010101041414141414101010101CD
:1079D0000101010101010101010101010101010197
:1079E00010101010101042424242424202020202A3
:1079F0000202020202020202020202020202020267
:107A00001010101020000000000000000000000016
:107A10000000000000000000000000000000000066
:107A20000000000000000000000000000000000056
:107A30000000000000000000000000000000000046
:107A40000000000000000000000000000000000036
:107A50000000000000000000000000000000000026
:107A60000000000000000000000000000000000016
:107A70000000000000000000000000000000000006
:107A80000000000000000000436F6E74696B692DF8
:107A9000386438633237333135005A6F6C6572742D
:107AA00069612052452D4D6F74652072657669734A
:107AB000696F6E204220706C6174666F726D005247
:107AC000696D6520636F6E6669677572656420779E
:107AD00069746820616464726573732000253032B4
