:020000040020DA
:1020000080160020D1242000476B2000456B200063
:10201000456B2000456B2000456B20000000000050
:102020000000000000000000000000001D72200001
:10203000456B2000000000003B722000AD6B2000CB
:10204000BF6B2000C56B2000CB6B2000D16B200044
:1020500000000000B36B2000B96B2000456B20002E
:10206000456B2000000000000000000000000000A0
:102070000000000000000000456B20000000000090
:102080000000000000000000456B2000456B2000B0
:10209000456B2000456B2000456B2000456B200000
:1020A000456B2000456B2000456B2000456B2000F0
:1020B000456B2000456B2000456B2000456B2000E0
:1020C000456B2000456B2000456B2000456B2000D0
:1020D000456B200000000000000000000000000030
:1020E00000000000000000000000000000000000F0
:1020F0000000000000000000053B2000153B200010
:1021000000000000000000000000000000000000CF
:1021100000000000000000000000000000000000BF
:1021200000000000000000000000000000000000AF
:10213000000000000000000000000000000000009F
:10214000000000000000000000000000000000008F
:10215000000000000000000000000000000000007F
:10216000000000000000000000000000000000006F
:10217000000000000000000000000000000000005F
:10218000000000000000000000000000000000004F
:10219000000000000000000000000000000000003F
:1021A000000000000000000000000000000000002F
:1021B000000000000000000000000000000000001F
:1021C000000000000000000000000000000000000F
:1021D00000000000000000000000000000000000FF
:1021E00000000000000000000000000000000000EF
:1021F00000000000000000000000000000000000DF
:1022000000000000000000000000000000000000CE
:1022100000000000000000000000000000000000BE
:1022200000000000000000000000000000000000AE
:10223000000000000000000000000000000000009E
:10224000000000000000000000000000000000008E
:10225000000000000000000000000000000000007E
:10226000000000000000000000000000000000006E
:10227000456B2000E93920000D3A20009D302000F8
:10228000753C2000B12B2000456B200000000000B1
:102290002DE9F04383298DB0044602D1784804F03B
:1022A0008EFF2388682B1DD0732B4CD0B3B9754B90
:1022B00004219B6880209847734B0C21DB6A012026
:1022C000984703F07FFC4FF42071704804F009FD3B
:1022D0006823238001200DB0BDE8F0830023032094
:1022E0002380F8E7694804F00EFD0028F2D046F29A
:1022F000A812674B1A805A809A80DA801A815A8114
:1023000002F06EFC03F0D6FD59A3D3E9002303F0DD
:1023100037FE59A3D3E9002303F05CFF00225D4B95
:1023200003F07CFC04F03EF801465B4804F0D9FC65
:102330005A4A8121524802F071FD594A1368013B03
:1023400013607323C5E7544804F0DDFC0028C1D0B6
:10235000042000F0ABF9514A8121494802F05EFDAA
:102360004F4D01214F4802F05BFF454802F068FDE8
:1023700029684D4801F0D2FC474804F0BBFC04201A
:1023800000F09CF92B68002BD7DA03233C482B6024
:1023900004F015FF3D4804F0ADFC0923434E052031
:1023A000336000F083F9374B04205B6898474FF4A3
:1023B0009653C0F30F10143893FBF0F004F0CCF8F0
:1023C00004F01EF9142894BF01230023384D012086
:1023D0002B70384B0DF10A075B689847364B8046E7
:1023E0005B68012098472B784246344900930346A6
:1023F000384601F0A3FC0023D6F800908DF82A306F
:102400004FEA29288DF82B308DF82C308DF82D309F
:102410008DF82E308DF808808DF8099003F0BEFB02
:10242000274E04300512357003F0B8FB0430C0B2FB
:10243000EBB270705FFA89F28DE881005FFA88F183
:10244000204801F06BFC204A8121204802F094FDD5
:10245000282102A802F0E4FE31461C4804F0C6FE22
:10246000052000F02BF9194804F0BEFE30E700BF4C
:102470009A9999999999B93F00000000E0FFEF40BF
:10248000B0060020E47620006C772000D8060020FB
:10249000FE00002000003940C8060020D07820004F
:1024A000E4000020127B2000147B2000E8000020C4
:1024B000330E00202478200014782000397B20007F
:1024C000FA0C00204F7B2000D8782000E80600207E
:1024D000FF22482408B5084B08481A60084AE369F7
:1024E000121A084998470848084AA369121A002195
:1024F000984700F00DF8FEE7B4200D4040000020A2
:102500000C010020347C200010010020790E0020F6
:1025100073B500F09BFC00F055FD00F0B1FC00F03D
:10252000B5FA01F095FB04F0F9FB00F043FD00F073
:10253000B3F8012004F00AFB02F082F900F072FC0B
:10254000002000F08DFB012000F08AFB40490020B4
:1025500000F052FC02F0A8FA62B6042004F0F6FA89
:102560003C4804F059FB3C4804F056FB00F030FABC
:10257000002002F047FB01F05DFA0021374802F02D
:10258000EDF901F0CDFF04F00FFB00F0ABFD00F022
:10259000C7FD02F0ADFE0821684601F07FFB9DF803
:1025A00006309DF807502E4C45EA0325BDF806304D
:1025B0002C48238001F0B2FB2B4E21782B4801F0F0
:1025C000ADFB61782A4801F0A9FBF46A4AF6CD31E7
:1025D0000220A04729460320A0471A210120A04736
:1025E00008226946736B0B209847224801F096FB3E
:1025F000214B186804F010FB204801F08FFB204BA2
:10260000186804F009FB1F4801F088FB1E4B18688E
:1026100004F002FB00211D4802F0A0F91C4B01212F
:102620009B688120984704F05BFB1A4804F04EFB3E
:1026300000F0FEFB022004F089FA00F0FFFB02F03C
:1026400017F910F0FF0FF8D101F098FAF5E700BF85
:10265000614A2000E2782000F47820007800002011
:10266000700E0020197920006C7720003779200047
:102670003D79200043792000407820004A792000ED
:1026800070782000517920008C782000980000207C
:10269000F4762000C878200008B500F03FF9002249
:1026A000014B1A7008BD00BFFC0C0020024A1378D1
:1026B0001843107000F056B9FC0C0020034A137840
:1026C00023EA0000107000F04DB900BFFC0C0020A0
:1026D00008B50B4B1B78034203D0202804D00428F4
:1026E0000CD04FF0004008BD0520064B80211A7821
:1026F00000F092FC20EAE07000B208BD0220F4E78E
:10270000FE0C0020FD0C0020802810B50C4605D0E2
:10271000B0F5807F27D04FF0004010BD8B1E222BDC
:10272000F9D8E34317490A681A400A60164A116843
:102730000B401360A20604D501220521002000F001
:102740004FFC630704D501220221002000F048FC61
:1027500000F05AFC30220D4B00201A700C4A1378FE
:102760001C43147010BDCCB2102C204602D004D8EB
:10277000002CD0D1054B1C7010BD202CFAD0302C71
:10278000F8D0C8E720940D4000940D40FD0C0020C7
:10279000FE0C002018B1012804D000207047034B24
:1027A00018687047024B1878704700BF20900D40A2
:1027B000FF0C002010B5094A002013780133137074
:1027C000074B197802F0A2F8BDE810400549002334
:1027D000054A0968054801F0D9BE00BFFF0C00207A
:1027E000720E002048010020B5272000280100209B
:1027F000812808B52BD0B0F5807F3AD0802824D12D
:1028000002F016F81C4B1D4A18701368032123F0C0
:102810000803136052F8203C002023F0080342F81C
:10282000203C52F81C3C23F0080342F81C3C52F8B0
:10283000183C43F0080342F8183C042200F0D0FB97
:10284000032200210E4800F06DFB012108E00D4B32
:102850000D481A6831B142F008021A600123036082
:10286000084608BD22F008021A600123C0F8803033
:10287000F6E7064B1960E8E7720E002020940D4041
:102880009128200010940D4000E100E04801002054
:1028900008B50F4804F050FAC8B108210C4804F0FC
:1028A0003FFA0C4B196849B100220B4B1A700B4BC5
:1028B0001B6843B90A4A0B4801F068FEBDE80840AE
:1028C000094802F06FB9074801F06AFEF6E708BD53
:1028D0002001002048010020FF0C002020900D4026
:1028E000B527200028010020F4762000084A13684C
:1028F00023F00403136052F8203C43F0040342F831
:10290000203C0022034B1A600122034B1A707047CF
:1029100020C40D4010C00D40000D00200D4A0E498E
:10292000136823F0C003136052F8203C43F0C00347
:1029300042F8203C0022094B1A600B6823F0100378
:102940000B6051F8203C43F0100341F8203C044B4D
:102950001A60704720A40D4020C40D4000A30D4014
:1029600040C00D4010F0020218BFFF22084B1A6051
:1029700010F0040218BFFF22064B10F001001A608D
:1029800018BFFF22044B14BF1A601860704700BFC5
:1029900000A20D4000A10D4040C00D40044B18683E
:1029A000C0F30720030904BF1030C0B2704700BF56
:1029B0001C300D40054B1868C0F3C21001289ABFA7
:1029C000C0F1020040034FF40040704714300D4046
:1029D0002DE9F047482588B0FFF7E0FF164B074682
:1029E0001C68AB6898476B68804698470546FFF7B8
:1029F000E1FF064600F07EFA814600F087FA824643
:102A000000F034FAB60A04F00103AD0AC4F340043E
:102A100006900393CDF814A0CDF81090029401967F
:102A2000009507F00F03C7F307124146034801F072
:102A300075F908B0BDE8F0871C300D4074792000AE
:102A4000F8B500F077F80F4B0024D3E900673A4659
:102A5000B04238BF7A1C15460443C3E900450A4911
:102A6000D1E90023921B63EB070312196B41C1E903
:102A7000002301F045FE18B1BDE8F84001F0C4BDE7
:102A8000F8BD00BF1801002010010020E0210D4B0F
:102A90000D4A5A600D4A82F82310002207219A60DD
:102AA00019600B490B6843F001030B60094B1A6076
:102AB000042243F80C2C012243F8082C0F22DA627E
:102AC000704700BF10E000E047E8010000ED00E0C3
:102AD00008200D400C000340034BD3E90023100AEB
:102AE00040EA0360704700BF18010020054B1860E2
:102AF0001C3B1A6842F001021A601A68D207FCD423
:102B0000704700BF2800034010B5064C236823F02F
:102B100001032360FFF794FF236843F00103236060
:102B200010BD00BF10E000E0014B1868704700BF07
:102B30004C010020064B18685A6808331B681B04B8
:102B400043EA0223034A0343106843EA00607047E4
:102B500040500D404C500D40014608B5104A1368D6
:102B6000DB07FCD572B6FFF7E5FF0B1A062BD8BFC3
:102B7000C11D0C4B0A0E1A60C1F3074243F8042C26
:102B8000C1F3072243F8082CCAB243F80C2C62B6F2
:102B90004FF40032044B1960044B1A6108BD00BFAA
:102BA00050500D404C500D404C01002000E100E021
:102BB00008B500F0CBFF0022064B1A604FF400323C
:102BC000054BC3F89021C3F89020BDE8084001F000
:102BD000E9BE00BF4C01002000E100E0064B1B688D
:102BE0001B075FBF054B186880F00800C0F3C000EA
:102BF00048BF0020704700BF18C0004018D00040F8
:102C00002C23154A70B503FB00234FF6BF72DC6816
:102C10000546236C626413F050021BD113F4D06F8D
:102C20000BD04FF440732363FF236360E36AE262D7
:102C3000E362236B43F00103236370BD56F8253034
:102C400033B12068C0B29847A369DB06F6D570BDE2
:102C50002368F9E7014EF7E70477200050010020D0
:102C600001282DE9F74F064600F2B4802C25454394
:102C70005A4F7C1994F92080B8F1000FC0F2AA8055
:102C800094F92290B9F1000FC0F2A480544800F0EA
:102C9000CFFF544A79591368E5680B4313605368B2
:102CA000616894F921A00B4353609368A1685FFAAF
:102CB00089FB0B4393600023C5F8C83F23690AEBE7
:102CC000C8021A6094F92330227D00939DF80030E9
:102CD00058461946019300F08DF9019B08221946C8
:102CE000584600F07DF901233F494FEA0939009A1F
:102CF00059F8010003FA02F2024349F801204FEAB1
:102D0000083858F8010003FA0AF2024348F8012093
:102D10005022AA63AA6B94F9240042F4D062AA63F9
:102D200002226A634FF440722A63A26900286A6231
:102D3000E269AA624FF07002EA620D4614DB94F970
:102D400025102A4A41EAC0041460020354598B40FA
:102D500023435351C9B20022C0B200F041F9244AC2
:102D6000136843F4004313602C2303FB067393F9A9
:102D70002640002C1BDB93F927A05FFA84F85FFA4A
:102D80008AF901224946404600F034F90123240320
:102D9000625903FA0AF31343635108224946404635
:102DA00000F01EF9124A136843F4804313602C2389
:102DB00003FB0676F268136B43F0010313630122F1
:102DC00096F82830590903F01F0302FA03F3094A61
:102DD00042F8213003B0BDE8F08F00BF0477200037
:102DE000DD2B200028200D4020940D4004410D4093
:102DF00030D0004000E100E001289CBF014B43F8C7
:102E00002010704750010020012808D82C22044BC4
:102E100002FB0030C3689A699206FCD419607047BF
:102E2000047720000022014B1A60704700500D40CB
:102E30000822014B1A60704700500D40A022024B3F
:102E40001A6050221A60704700500D40014B024A30
:102E50009A60704700ED00E000202000024B1868E7
:102E6000C0F38150704700BF04200D4008B5FFF744
:102E7000F5FF024B53F8200008BD00BF5C7720002F
:102E800038B5164D164C2B68012223F040032B60F9
:102E90002368062123F040032360032000F0A0F8FC
:102EA0002B68012223F080032B602368072123F085
:102EB00080032360032000F093F80A4A0A4B0B4971
:102EC0001A600B4A134610680842FCD11A68510177
:102ED000FCD41A685201FCD538BD00BF20C40D4097
:102EE00000C40D400101020000200D40000001015E
:102EF00004200D40034B04481B6803F007031841EE
:102F0000704700BF04200D400048E801034B04480F
:102F10001B68C3F302231841704700BF04200D4013
:102F20000048E801024B02EBC10243F8220070475F
:102F300058010020F8B507460E460024084D05EB61
:102F4000411547FA04F3DB07E1B204D555F8243004
:102F50000BB1304698470134082CF2D1F8BD00BFC0
:102F6000580100202DE9F04780464FEA0837DFF886
:102F7000409007F1804505F5592500F0E7FDD5F8AB
:102F8000186457F809404FEAC80A24FA0AF446EAD6
:102F90000400E4B24146C0B2F6B204FA0AF4FFF704
:102FA000C9FFC5F81C6447F80940BDE8F08700BFB9
:102FB00018970D4080220021014803F075BD00BF25
:102FC00058010020034A044B1A60044B803A1A60EF
:102FD000704700BF80400D40D8010020DC01002078
:102FE000034B01EBC0011B6843F82120704700BF71
:102FF000D8010020034B01EBC0011B6843F82120DE
:10300000704700BFDC010020024A136843F0300320
:103010001360704700700D400E2870B50BD1154B32
:10302000154E1C6844F002051D60356825F03F030D
:1030300043F001033360114E336823F0FF031A435A
:10304000114301430E4A316013681B06FCD50D4B3A
:103050000D4A1B6812680E2803F0FC0343EA0223A2
:1030600008BF054A1BB204BF1560024A184608BFD4
:10307000146070BD34000144F486084008700D40AF
:1030800000700D400C700D4010700D40024B186820
:10309000B0FA80F04009704700B708404FF4004292
:1030A00010B5064B064CC3F89021C3F89020206859
:1030B00018B101F06BFC0023236010BD00E100E0BB
:1030C000E0010020064A136843F0020313605368CE
:1030D00043F002035360936843F002039360704728
:1030E00048200D4007B50C4800F0A2FDFFF7EAFFAD
:1030F0000A4B1A6842F002021A6000220192019AF9
:103100000F2A06DD1A6822F002021A6003B05DF889
:1031100004FB019A0132F1E78D30200054200D406C
:10312000064A136823F002031360536823F0020376
:103130005360936823F002039360704748200D406A
:10314000084B93F90020002A09DBED21064A1160A3
:103150001160E32111601A7862F07F021A70012079
:10316000704700BF030D0020388808400B4B1A68D9
:103170009207FCD41B685B065FBFED22084B1A6008
:103180001A60084B1B6813B1EF22054B1A60064A00
:103190000120137803F07F03137070474C860840BA
:1031A000388808402C860840030D0020A0F10B0150
:1031B000CBB20F2B10B5044613D80B4B1B6813F082
:1031C0003F0302D0FFF7D2FF012301EB8101074A41
:1031D0000B3111600BB1FFF7B3FF054B60B21C70F0
:1031E00010BD4FF0FF3010BD488608403C860840B7
:1031F0000A01002008B50B4B1B6899060FD1FFF799
:103200009FFF012308490A68D207FCD5074A1168C5
:10321000C1F300110BB1FFF7A9FF084608BD002359
:10322000F0E700BF48860840648608404C860840A6
:10323000044B186800F02200A0F1200358425841C6
:10324000704700BF4C860840024B186800F04000F1
:10325000704700BF4C86084010B50C46002900F0AE
:103260008680102800F28580DFE800F009101B221C
:10327000243B44575C727683837B7D547F003E4BB6
:103280001B68003318BF0123236024E005223B4B59
:103290001B6803F07F030B3B93FBF2F30B33DBB2B2
:1032A000F2E7374B1A68043B1B6843EA0223EBE75B
:1032B000344BF7E700230B60334B344A1B6803F0B1
:1032C00001030B601268900644BF43F002030B60D9
:1032D0002F4B1B780BB9002010BD0B6843F0040383
:1032E000D2E700202B4B08601B78002BF3D0012382
:1032F0000B6010BD284B29491A680023D2B201EB9C
:10330000C3000079904202D851F83330BCE7013352
:103310000E2BF4D16FF01703B6E7214B1B685BB29D
:10332000493BB1E71F4B1B6899060FD1FFF708FF18
:1033300001231D490A68D207FCD51C4A1168493986
:1033400049B20BB1FFF712FF2160C4E70023F0E799
:10335000174B93F9003097E7164B1B7803F07F0368
:1033600092E70B2390E71A238EE707238CE70220CE
:1033700010BD012010BD00BF2C8608403C860840CF
:10338000CC850840D4850840008608402486084043
:10339000020D00200B01002040860840A477200089
:1033A0005886084048860840648608406086084081
:1033B000040D0020010D002038B505460C46134AC7
:1033C00013689B07FCD4124B93F90030002B01DBF0
:1033D000FFF7B6FEEE220F4B691E1A601A60A21CA0
:1033E00043F8102C2144022000F03EFB0A49013C26
:1033F00041EA0411022000F049FB022000F050FBDA
:10340000022000F065FB002038BD00BF4C8608405C
:10341000030D00203888084002C001C0F8B5214BD8
:1034200093F90030002B2BDBFFF784FB0446FFF7FA
:1034300087FEC4F1FF2404F57F04F634FFF77AFB1E
:10344000C442FBD40126184B1B78DBB9174C236808
:1034500099061BD4E9230427154D2B6023689A078E
:1034600003D4013F17F0FF0713D123689B0714D43F
:10347000EE2301212B602B604EB1FFF777FE06E0B3
:103480000026E0E7FFF7B6FE0028DFD1022108465C
:10349000F8BD0620FFF72AFBE0E7216811F00201E2
:1034A000FBD1E9E7030D00200B0100204C8608400A
:1034B00038880840204B1870002832D01F4A136803
:1034C0001B03FCD51E4B1A6842F002021A601A68F0
:1034D00042F001021A601A685007FCD51A6822F0FF
:1034E00001021A601A685107FCD41A6842F00202FD
:1034F0001A601A6842F001021A601A685207FCD575
:10350000104A136823F004031360D2F8A83123F0A3
:103510000403C2F8A8314FF400520B4BC3F89020BB
:103520007047084A136843F0040313604FF40052D5
:10353000054B1A61704700BF020D002004200D40AA
:10354000048808408C86084000E100E010B5072898
:1035500061D8DFE800F0040F1A212541475B0129FB
:1035600003D1FFF7EDFD002010BD002955D1FFF775
:10357000FDFDF8E7A1F10B030F2B4ED8C8B2FFF702
:1035800015FE0130EFD1032010BD89B2244BCAB221
:10359000090A1A605960E6E789B2CAB2214BF7E717
:1035A00031F0070339D1204B11F0010F1A68C1F334
:1035B000800014BF42F0010222F001021A601B4B8E
:1035C00011F0020F1A6814BF42F0200222F020020C
:1035D0001A60FFF76FFFC6E731F001001DD1144BF1
:1035E000197010BD01F118031F2B16D80D23114AB5
:1035F00052F83340D800A14204DC024412790E4B49
:103600001A60B0E713F1FF33F2D2ACE7C9B20B4B4B
:1036100049311960A7E7012010BD022010BD00BF8D
:10362000C8850840D08508400086084024860840A8
:103630000B010020A47720004086084058860840EF
:103640000B280DD1082A0DD161B1074B074A08316B
:1036500011F8010D43F8040F9342F9D1002070478F
:103660000120704702207047A4850840C4850840A7
:1036700070B52F4D2B6813F0400308D02D4E3368E2
:10368000DCB21B0605D5ED222B4B1A601A60002018
:1036900070BD042CF7D9023C8C42F4DCE4B2032C5C
:1036A0002FD001190139032000F0E6F9234B611EE8
:1036B00043EA0111032000F0E9F9032000F0F0F9DA
:1036C000032000F005FA032000F00EFA0028FAD1DA
:1036D00031681B4B493949B219703368194E1806C5
:1036E0003370D0D589B2042001F0D8FD31780320A1
:1036F00001F07F0101F0D2FD134B1B7843B120464E
:1037000070BD336803703368437033688370DFE7DC
:103710002B685A06F3D52B681B0603D50B4801F01E
:1037200035F9ECE7ED22044B1A601A60E7E700BFB9
:103730004C860840288808403888084002C0010CA0
:10374000040D0020010D0020020D0020500000207B
:10375000F8B5294F3D7815F001054BD10124F82229
:10376000264B7F261C605C609C60A3F59323A3F529
:1037700014731A600922C3F89021152270331A605D
:103780000B2203F59B2303F59E731A604022A3F5D9
:103790009B23A3F5F0731A601A6842F020021A60A6
:1037A000D52243F81C5CDE62DA61154B1878FFF70E
:1037B000FDFC4FF48042134B02201E60124B1A6135
:1037C00000F07AF91149022000F056F9032000F0C8
:1037D00073F90E49032000F047F90D4B1878FFF7F5
:1037E00069FE29460B4801F0B9F83B78204623438F
:1037F0003B70F8BD0020F8BD030D0020A8200D404F
:103800000A0100209486084000E100E02888084072
:10381000020D00205000002038B503880446002B1C
:1038200034D040F20342934203D0002303800320AC
:1038300038BD194B18781A4628B11B784BB3174B73
:103840001B78580625D5822923D1137873B901F046
:10385000D7FC01F065FC8021FFF70AFF002805DD99
:1038600080B201F01DFC0E4B1B6998470B4B1A7878
:1038700052060BD500221A700A4B1D68FFF776FC22
:10388000FFF766FFAB0601D0FFF75AFC40F2034397
:103890002380012038BD00BF020D0020030D002051
:1038A0008C782000488608400B282DE9F0478A468E
:1038B00011D1082A40F0818000297ED0404B414A36
:1038C00001F1FF3A53F8041D93420AF8011FF9D1A0
:1038D0000020BDE8F0870C286CD1042A6DD10029A6
:1038E0006BD0394A39491368DFF8EC9023F00703AD
:1038F00013600B68DFF8E48043F008030B60D9F82D
:103900000030D8F800401068DFF8D4C0DFF8D4E009
:1039100020F070001060DCF80000DEF80050DBB230
:10392000240243EA0563A4B223430024000400F404
:103930007F00034326480668F5B244EA030613688D
:103940002F4623F0070343F0010313600B6843F095
:1039500008030B60D9F80030D8F800101568DBB206
:1039600025F0700545F010051560DCF80020DEF844
:103970000050090289B243EA056312040B4302F4C2
:103980007F021343026844EA03085FFA82F9FFF7F3
:10399000D1F8B6EB080667EB0907F90305460D4AAF
:1039A0000023F00341EA564102F050FE281ACAF8FB
:1039B00000008DE70120BDE8F0870220BDE8F08718
:1039C000C8850840A8850840108808400488084039
:1039D0001C8808400048E8011488084018880840FE
:1039E000248808402088084008B5054B1B7813B987
:1039F000044800F0CBFF0022034B1A6008BD00BF53
:103A0000020D00205000002034880840064B074873
:103A10001A68042A1FBF06490A7842F040020A7059
:103A200000221A6000F0B2BF2C880840500000202D
:103A3000030D002010B5094C40220021204603F060
:103A400033F80122064B1A604FF480425C60054B4C
:103A50005A604FF400425A6010BD00BF00000020C1
:103A600004F00F4000E100E003289EBF014B00017D
:103A7000195070470000002003289EBF024B03EB43
:103A800000104160704700BF0000002003289EBF67
:103A9000024B03EB00108160704700BF0000002064
:103AA000032806D80123034A03FA00F011680843EB
:103AB0001060704728F00F40032806D80123034AFE
:103AC00003FA00F0116808431060704720F00F40BF
:103AD000032806D80123034A03FA00F011680843BB
:103AE0001060704714F00F4003289FBF044B03EB96
:103AF0000010806800F0070088BF0020704700BFFA
:103B0000000000204FF0FF32014B1A60704700BFE9
:103B100004F50F400122014B1A6070474CF00F4032
:103B2000084B19461A68D002FCD4074B1A6822F4D5
:103B300080321A600A68D203FCD41A6842F4003258
:103B40001A60704704200D4000200D4010B5094C4C
:103B5000226890070DD0084B1A4619684901FCD419
:103B600013685B01FCD5FEF7CFFFFFF7D9FF0023F9
:103B7000236010BD58200D4004200D4038B5264B61
:103B80001C6814F03F0414D1244D55F8243023B19F
:103B9000984770B10134052CF7D1214D2B7843B1F2
:103BA000FEF7C2FF0446FEF7C5FF201A092800D918
:103BB0000CB930BF38BD1B4B1A6822F400321A60B2
:103BC000194A11461068C002FCD41A6842F48032C7
:103BD0001A600B68DB03FCD5FEF7ACFF201A09283E
:103BE00003D8BDE83840FFF79BBF63280F4C0BD9C3
:103BF0002B78022B08D1236000F07EFE30B1FFF756
:103C00008FFF0023236038BD0123F4E7FEF78CFF0C
:103C10000028CED1F3E700BF48860840E401002029
:103C2000050D002000200D4004200D4058200D40BF
:103C30000023064A52F82310814206D011B942F8F7
:103C4000230070470133052BF4D17047E4010020B5
:103C50000022054B05491A600B6943F004030B6110
:103C6000034B1A70704700BF58200D4000ED00E074
:103C7000050D00204FF4803210B5064B064CC3F8FA
:103C80009021C3F89020206818B100F07FFE002337
:103C9000236010BD00E100E0F801002070B51B4B6F
:103CA0001A78431E1AB91A4A1278122A0AD001F554
:103CB0002012184C2732A24215D012F8015903F8ED
:103CC000015FF8E7144A12784B2AF0D14C0804F14E
:103CD0002812B2F1281F0ED1002301F5201227323D
:103CE0000519A3420CDB0123014401F8013C002328
:103CF00001F8023C70BD12F8015D03F8015FE8E7CE
:103D000012F80169EE540133EBE700BF2B002800E5
:103D10002A00280027002800290028000FB407B532
:103D200004AA52F8041B0448019200F039F803B0C9
:103D30005DF804EB04B07047600000200EB43FB59E
:103D4000094B07AA52F8041B0190049304A801AB85
:103D50000392059300F024F80022019B1A7006B02C
:103D60005DF804EB03B07047B76C200070B50546F2
:103D70000C460A4E102C07D874B12B68224668688E
:103D80000649BDE8704018472B6810223146686824
:103D9000984710B9103CEDE7204670BD5F7A2000CF
:103DA0002DE9F04F8046154600268FB00791079BFE
:103DB0001B78BBB1079F00E027463C4614F8013B47
:103DC0000BB1252BF8D1079B9F4210D0A7EB03091D
:103DD0004A46D8F800300799D8F80400984728B127
:103DE0004FF0FF3630460FB0BDE8F08F4E443B78C1
:103DF000002BF7D07B78002BF4D021460024084616
:103E000010F8012B0B462B2A39D02DD8202A39D077
:103E1000232A3AD0A2F13107082F3FD84FF0000AE9
:103E20000B4611F8012BA2F13000092830D91A787D
:103E30002E2A4FD159785A1CA1F13000092842D8B6
:103E4000002711781346A1F13000092802F1010280
:103E500034D91A786C2A40F0AA805A786C2A3CD15E
:103E600044F0800402333BE02D2A04D0302AD1D123
:103E700044F0100401E044F001040146BFE744F0BF
:103E80000604FAE744F00204F7E744F00804F4E714
:103E90000A2303FB0A2AAAF1300AC1E72A2A0AD117
:103EA000D5F800A00346BAF1000F05F10405B8BF2C
:103EB00044F00104BBE74FF0000AB8E70A2303FB14
:103EC0000717303FBDE72A2903D12F680233043595
:103ED000BFE713464FF0FF37BBE7013344F0600400
:103EE0001A78642A00F0908000F28380462A00F05D
:103EF000AD806FD8252A00F0BE8064D8002A3FF438
:103F000071AF0133079304F4E063B3F5806F00F001
:103F1000698200F2B380B3F5807F00F0F380B3F5DF
:103F2000407F7FF444AF8B4B14F4804F8A4A18BF14
:103F30001A460DF1330300211F462868043550EA64
:103F4000010E40F08982FF1A04BF302203F8012CD1
:103F50004FF0780208BF03F1FF3303F8012C4FF054
:103F6000300208BF012703F8022C23220337BA4589
:103F70008CBFAAEB070A4FF0000A14F00104A3F16A
:103F8000030903F8032C06D151464046FFF7EEFE25
:103F900000287FF425AFD8F800303A464946D8F8D3
:103FA0000400984700287FF41BAF3E4448E2682A8B
:103FB00096D15A78682A02D144F0200452E701339E
:103FC00044F040048CE7412A4CD0452A99D144F46E
:103FD000424496E7582A33D004D8472A91D144F472
:103FE000A1348EE7612A3AD0632A8AD144F4A064CE
:103FF00087E76E2A3CD00AD8662A24D029D3672ABC
:104000002AD0692A7FF47DAF44F4245479E7732AD7
:104010002BD007D86F2A10D0702A7FF472AF44F4E7
:1040200040746EE7752A05D0782A7FF46AAF44F4AD
:10403000C85466E744F4106463E744F4885460E7C6
:1040400044F4B2445DE744F400745AE744F4844411
:1040500057E744F4024454E744F4813451E744F40C
:10406000C1344EE744F4E1344BE744F4806448E75C
:1040700044F4E06445E744F4C06442E7B3F5C06F3C
:1040800034D0B3F5E06F00F0F681B3F5A06F7FF4A4
:104090008EAEBAF1010F2B688CBF0AF1FF3A4FF0D8
:1040A000000A14F0010405F104058DF8203007D151
:1040B00051464046FFF75AFE00287FF491AE564421
:1040C000D8F80030012208A9D8F804009847002841
:1040D0007FF486AE0AF1010734B151464046FFF73E
:1040E00045FE00287FF47CAE3E4460E6D8F8003000
:1040F00001221A49D8F80400984700287FF470AECE
:10410000013654E6002FACBF24F01004012714F44C
:104110000053069304F0E00300F0D480402B00F03D
:10412000CA800AD8002B00F0C980202B18D00022AA
:104130000023CDE90023002320E0602B00F0BE80A7
:10414000802BF4D1073525F0070303F10805D3E9E7
:10415000002309E07F7A2000907A2000B07A2000C6
:1041600095F90020D3170435002A73F10001E0DA35
:10417000524263EB4303CDE900230123059304F48A
:10418000C053B3F5805F00F0C880B3F5C05F00F0A6
:10419000EA80B3F5006F40F00181DDE90023CDE94D
:1041A00002230DF1360BDDE90223134340F0C980F1
:1041B0000DF13603A3EB0B030293029B41F60802B9
:1041C000BB4238BFFF1A41F2080304EA020228BFCB
:1041D00000279A4202D1002F08BF012741F60801AB
:1041E000029B8A4203EB070040F0DC80DDE90023FC
:1041F000134300F0D780A24914F4804FA14B4FF035
:10420000020908BF0B46069A72B1059A002A40F0CF
:10421000CD8004F00602022A00F0CC80062A9A4AD9
:1042200004BF4FF00109134609EB000292458CBF11
:10423000AAEB020A4FF0000A14F00102009204D126
:10424000E10640F1BB8057449246B9F1000F09D016
:10425000D8F800404A461946D8F80400A04700287C
:104260007FF4BEAD3C46029B1E44102CD8F80030B3
:1042700000F2AE803CB122468449D8F80400984749
:1042800000287FF4ADADD8F80030029A5946D8F82E
:1042900004004E44984700287FF4A2AD009B3E44A2
:1042A000002B00F0D08051464046FFF75FFD00280C
:1042B00000F0C98094E5B5F9002053E72A68043579
:1042C000D31751E7402B1FD009D8FBB1202B14D0B6
:1042D0000023002205930023CDE900234FE7602B44
:1042E00014D0802BF4D1073525F0070303F108051E
:1042F000D3E90023CDE9002304E02A780023CDE9A7
:1043000000230435069B39E72A88F7E72B6800224B
:1043100019460435CDE90012F4E70DF1360BDDE95D
:10432000002352EA03013FF443AF02F007013031AA
:104330000BF8011DD10841EA4371D8080A4603462B
:10434000EFE7DDE902010A22002302F07FF9DDE94F
:10435000020130320BF8012D00230A2202F076F917
:10436000CDE902011FE74A4B14F4804F0DF1360BE3
:10437000484918BF1946DDE9002352EA03003FF41B
:1043800017AF02F00F00085C4FEA131E0BF8010D87
:10439000100940EA037002467346EEE70DF1360B52
:1043A000002309E74FF000094B462CE74FF00109C5
:1043B000394B39E74FF00109384B35E75146404654
:1043C0000593FFF7D3FC059B00283FF43EAF07E5BC
:1043D00010222E49D8F80400984700287FF400AD39
:1043E000103C42E7D5F800B00435BBF1000F2ED0E9
:1043F000D94699F8003009F1010233BBA9EB0B094A
:10440000002F02DBB94528BFB946CA458CBFAAEBCD
:10441000090A4FF0000A14F0010406D15146404643
:10442000FFF7A4FC00287FF4DBACD8F800304A4644
:104430005946D8F80400984700287FF4D1AC4E4480
:10444000002C7FF430AF5644B1E49146D1E7DFF859
:1044500050B04FF00609D3E700F00F0E12F80EE04F
:104460004FEA111C03F801ED4FEA101E4EEA017EDF
:104470007046614663E52B6804351E6097E400BF13
:10448000A17A2000A47A2000A77A20006F7A200069
:104490007F7A2000907A2000DC7B20004F7920007A
:1044A000A97A2000F8B50388064615462BB14A2B99
:1044B00017D0002303800320F8BD164802F04DFCFE
:1044C000044634B90122144B1A704A233380012068
:1044D000F8BDA168201D02F004FC2468F1E72468FF
:1044E00005E08829F3D10B4802F037FC0446002C84
:1044F000EBD0231D9D42F2D12146064802F036FC46
:10450000064D62692F682A60A2690AB1E069904786
:104510002F60DAE7FC010020060D00208803002050
:1045200010B50024054B06481C7002F013FC214610
:10453000BDE81040034800F011BA00BF060D00208E
:10454000FC0100206800002070B50446E3610B4BBD
:10455000049D1B786561A2616BB1094D094B2E6802
:10456000201D2B6002F0BDFB2E602146BDE870408F
:10457000054802F010BCA160F7E700BF060D00205F
:104580008803002068000020FC01002013B5034CC4
:1045900024680094FFF7D8FF02B010BD8803002004
:1045A00010B5084B04461B7843B1043000F0B0F856
:1045B0002146BDE81040044802F0D8BBC360036147
:1045C000F6E700BF060D0020FC01002010B50C4CE2
:1045D000236813B90B4A136010BDFEF77DFA2268F9
:1045E00092E80A000B441B1A92680AB90344F1E7E7
:1045F00092E812002144091A8B4228BF0B46F3E7C8
:104600000402002000020020014800F0BFB900BFF2
:10461000780000202DE9F8430388054633B1592B73
:1046200046D0002303800320BDE8F883234A1360AB
:1046300059232B800120BDE8F88301209B681BB91A
:104640000028F5D00B60F3E7DC68A242F5D000B19A
:104650000B6099680029EBD0C86882420ABF89685C
:104660000B469960F5E78229E2D1144F4FF000091B
:10467000B84600263C68002CDAD0204602F05CFBED
:1046800098B122468821E06800F040F958B9E0600E
:10469000A3682EB1B360C4F80890FFF797FFE8E76E
:1046A000C8F80030F7E7FFF7AFFF2646A468E2E757
:1046B0008729D8D1014900200B68C0E704020020F7
:1046C00010B50446FFF7A0FFE3680B4A0BB113686F
:1046D00033B90A4B1B68E36013681460A36004E0FD
:1046E000A34206D1054A1268DA60BDE81040FFF720
:1046F0006DBF9B68ECE700BF040200208803002028
:10470000024B1868003018BF0120704704020020D7
:1047100010B50B4A04461368834208D183681360BE
:10472000FFF754FF0023A360E36010BD1346002B86
:10473000F8D09A689442F9D1A2689A60F0E700BF75
:104740000402002038B5836804460D469BB10A4830
:1047500004600220A07304F10C009847023801287D
:1047600001D9832D05D121462046BDE8384000F00F
:1047700005B80123A37338BD880300202DE9F84351
:104780001C4F89463D681C4E2C46D6F8008084425A
:1047900004D00CB9BDE8F8832468F8E7ACB1A37B7A
:1047A00063B10023A37395B9A3683BB14C4505D011
:1047B00034602A46832104F10C0098473B689C42F0
:1047C0000FD123683B60C6F80080BDE8F883AC4297
:1047D00004D022468721284602F09AFA2D68E2E7A3
:1047E0001346002BEFD01A689442F9D122681A6060
:1047F000E9E700BF8C03002088030020002370B588
:1048000001261D46084A1370084A146804B970BD91
:10481000E37B33B1A673E573002282212046FFF7C4
:1048200091FF2468F2E700BF0A0D00208C030020EE
:10483000024B1878421C1A70704700BF080D002008
:104840008A22064B1A700023054A1370054A13701A
:10485000054A1360054A1360704700BF080D002029
:10486000070D0020090D00208C0300208803002084
:104870002DE9F0411B4D2B780BB1FFF7BFFF1A4C10
:1048800022789AB10C21194E194F3378013A5943C5
:10489000781817F8018001334768806803F01F0318
:1048A0003370227090B9134B1E6826B92B7820788C
:1048B0001844BDE8F0812B780BB1FFF79FFF30461D
:1048C0003A46414602F024FA3668EEE7B8F1810F25
:1048D00008BF01233A4608BF8373414602F018FA25
:1048E000E4E700BF0A0D0020090D0020070D00209D
:1048F000080200208C030020024A034B10781B782A
:1049000018447047090D00200A0D0020F0B50B4E29
:104910003378202B0FD00C25094C0A4F24781C44E7
:1049200004F01F046C4301333D19A86039556A60D7
:1049300033700020F0BD0120F0BD00BF090D002044
:10494000070D00200802002038B5034C256802F04E
:10495000DFF9256038BD00BF8803002030B40A4C61
:104960000A4625682B4683420CD04BB950B1012131
:104970000560817320608381812130BCFFF7E4BF33
:104980001B68F0E730BC70478C03002038B1837B94
:10499000013B012B9FBF0123014AC3731370704772
:1049A0000A0D002010B5084C206858B1002381681A
:1049B000236043689847236823B1BDE81040186816
:1049C000FEF7CAB810BD00BF9003002070B505887F
:1049D0000446672D08D0792D32D06DBBFFF728FF34
:1049E0001A4B18701A4B1D601A4E194D304602F0C2
:1049F00053FA431C03D167232380012070BD0A288A
:104A00002B6806D07E2BF1DC5A1C2A60124AD05447
:104A1000ECE75A1C2A6000250F4A2846D5540B4B58
:104A20001978FFF773FF0D4B2A4685211868FFF7A9
:104A30006DFF38B97923DFE700230380032070BDC1
:104A40008529DAD10022024B1A60CDE7770E0020CB
:104A500094030020980300200B0D00208803002001
:104A60000D2810B5014616D00C4C237853B90C48CC
:104A700002F0FFF908B9012323700A48FFF786FF07
:104A8000012010BD0A28F8D1054802F0F2F90028EB
:104A9000F3D00023F0E7002010BD00BF8B0D0020F5
:104AA000980300208800002008B5054905488022A9
:104AB00002F0D8F9BDE8084000210348FFF74EBFD7
:104AC0008C0D002098030020880000202DE9F04183
:104AD00004880646772C21D07E2C43D0002C3CD174
:104AE000FFF7A6FE294D2A4B2A4FDFF8B480187035
:104AF0002C602B6857F8232032B9274A137077238C
:104B000033800120BDE8F08108F80340936800215C
:104B1000802098472B6801332B60EAE700231F4A67
:104B200013601A4A1360194B1B4A1B6812789A4289
:104B300004DC1A4B1B68002BF0D1E0E7184AD25670
:104B4000002A1EDA134A002052F82320104B19784D
:104B5000FFF7DCFE50B97E23D2E700230380032059
:104B6000BDE8F0810A4B1B788B42CAD1074B0C4938
:104B70001A688B5C03F07F038B54084A1368013377
:104B80001360024A13680133CCE700BFA40300207E
:104B9000780E0020400000200C0E0020A003002012
:104BA000730E002010B40A4B0A491A78002393426E
:104BB00003DA51F82340A04208D107490748CA5CEC
:104BC00062F07F02CA5410BCFFF7E0BE0133EEE78B
:104BD0000C0E002040000020730E002098000020E2
:104BE000064A136843F004031360054B1868043346
:104BF0001B6840EA032080B2704700BF00700D4080
:104C000014700D4010B5174A136823F00C0313609D
:104C10000122154B1A601A68012AFCD10822134B95
:104C200013491A60E32203F505731A601A460B68EC
:104C3000DB07FCD50F4C102100232068013900F060
:104C4000010043EA00034FEA43039BB2F5D1002B76
:104C5000F1D00949180A03F0FE0308600B60EF2346
:104C6000136010BD00700D40A8200D402486084040
:104C7000648608409C86084014700D400378407894
:104C800040EA0320054B00FA01F1985CC2F10802EA
:104C900000EA21201041C0B2704700BFE37A200033
:104CA000F8B506460A480D46174602F056F804467F
:104CB00030B93A4629463046BDE8F84002F0A9BA74
:104CC000A3680BB128469847204602F080F8EEE72B
:104CD000A803002038B500F0F1F80546094802F0B5
:104CE0003CF8044628B95DB12846BDE8384002F0DA
:104CF0008BBA636803B19847204602F068F8F0E782
:104D000038BD00BFA803002010B5044600F0E4F849
:104D100038B100F0E1F9034B034821469B689847FE
:104D2000012010BDB8782000A14C200070B50B4CBC
:104D30000023616E0A4A04F13800FFF727FCFFF7F1
:104D40004FFF616E0023B0FBF1F5064A05FB110130
:104D500004F11800BDE87040FFF718BCAC03002058
:104D6000694D2000814D2000044B5A6E196E52008F
:104D7000914294BF59665A66FFF7D8BFAC03002032
:104D800010B500F03DFA00F0CBF900230380044693
:104D900000F070F808B1037B63B92088800002300E
:104DA00080B200F07DF9238883B1BDE81040084847
:104DB00000F046B82388818804EB83025180C188C3
:104DC00001339180238002F002F8E3E710BD00BFB9
:104DD000AC0300209DF80030012B04D1024B9A6DEA
:104DE0005A66FFF7A3BF7047AC030020F8B50F4623
:104DF00016461D46064C0146064A204600F00EF8AF
:104E0000A765E66525660448BDE8F84000F02CB8C3
:104E1000AC0300204C782000D54D200070B505462D
:104E20000C461646044A00F0B9F86E612046BDE80B
:104E30007040024902F0C7B954782000F17A20008E
:104E400010B5044604491A2000F036FA2046BDE8A1
:104E5000104002F0D7B900BF700E0020014801F0E9
:104E600079BF00BF18040020014B1860704700BFD5
:104E70001C040020014801F070BF00BF180400208E
:104E80002DE9F04106460C480C46174601F065FF37
:104E900008B9BDE8F0818388A34209D18568002D57
:104EA000F7D03B4622463146AC46BDE8F04160476C
:104EB00001F08DFFECE700BF18040020054B10B592
:104EC0001B689847044618B18188012000F0E6F974
:104ED000204610BD3478200038B5064B05465B6887
:104EE00098470446A988012000F0D8F9201C18BF73
:104EF000012038BD34782000014B9B68184700BF63
:104F000034782000014801F025BF00BF20040020B4
:104F100081800146014801F03EBF00BF200400200F
:104F20000146014801F022BF2004002010B50446CC
:104F3000054801F012FF00B910BD8388A342FBD0E1
:104F400001F045FFF7E700BF2004002070B50446DC
:104F50001B200D4600F0BCF9064902F089F938B172
:104F6000A3691B6823B129462046BDE87040184755
:104F700070BD00BF700E002070B505460C46164689
:104F8000044AFFF74BFFAE612046BDE8704002497E
:104F900002F019B95C782000F57A200070B505465A
:104FA0000C461646FFF7B4FF2E612046BDE8704060
:104FB000014902F008B900BFFB7A200008B5044897
:104FC00001F008FFBDE80840024801F003BF00BF40
:104FD000B4000020A800002038B50E4801F00AFFF8
:104FE000054650B10C4801F005FF0446286030B971
:104FF0002946084801F012FF2546284638BD00F032
:1050000097F804F1B601A4F8800004F1820000F0E2
:105010001DF9F2E7A8000020B400002010B50146F9
:105020000446074801F010FF48B12168054801F027
:10503000F5FE2146BDE81040014801F0EFBE10BD6D
:10504000A8000020B400002010B50146044609481D
:1050500001F0FAFE68B12468B4F88010204600F030
:10506000DFF804F1B60104F18200BDE8104000F061
:1050700001B910BDA800002010B507490B88834274
:1050800008DB064C80B222880244181A088022806D
:10509000012010BD002010BDF40C0020F60C0020F3
:1050A000014B1880704700BFF40C00200048704787
:1050B00044040020014B1888704700BFF40C002006
:1050C000034A044B10781B781844C0B2704700BFE5
:1050D0001D0E0020F60C00202DE9F0410C4D2A8811
:1050E0006AB100240B4BDFF834801E880A4B1F780E
:1050F00021B2B14204F1010403DB00232B80BDE89F
:10510000F081FFF7DDFF41440B5CCB55F0E700BFBA
:10511000F60C0020F40C00201D0E0020440400209A
:1051200008B5FFF7CDFF014B184408BD440400202B
:10513000F8B50C4B05461E780B4B1F88F419802CD4
:105140000DDC3246094901F039FCFFF7E9FF35442F
:1051500001463A46284601F031FC2046F8BD0024BD
:10516000FBE700BF1D0E0020F40C002044040020CB
:1051700008B5FFF7A5FF024B1B88184480B208BD95
:10518000F40C002010B50146FFF7F2FF4318802B06
:1051900010DC0138084B00B2002805DA074B1878FC
:1051A00008441870012010BD1C5C1A1801385454B2
:1051B00000B2F1E7002010BD440400201D0E0020C5
:1051C00038B50C4D0C4C342200210C4801F06CFC1D
:1051D0002946204602F049F82946A01C02F045F86D
:1051E0002946201D02F041F82946A01DBDE838409F
:1051F00002F03BB8E0782000340E00203C0E002086
:105200000023044A1380044A1380044A1370FFF7F2
:10521000D7BF00BFF60C0020F40C00201D0E0020AC
:1052200038B50C460546FFF7EBFF802C28BF8024DD
:1052300029462246034801F0C1FB034B20461C804F
:1052400038BD00BF44040020F40C002010B5074B0B
:1052500003F1340253F8044B934240F8044BF9D164
:10526000034A13680B6053684B6010BD3C0E00206E
:10527000340E002010B5074B00F1340250F8044BF7
:10528000904243F8044BF9D10B68034A13604B6812
:10529000536010BD3C0E0020340E0020024B23F85A
:1052A00010100120704700BF3C0E0020014B33F866
:1052B000100070473C0E002008B5044B1A3803EB71
:1052C000400001F0D2FF012008BD00BF340E0020D5
:1052D000024B1A3803EB4000704700BF340E002029
:1052E0000149024801F0C4BFE0782000360E0020DA
:1052F000084B10B51B689847074B5B689847074BEE
:105300005B689847064B5B689847BDE81040054BC3
:105310005B6818476C7720008C782000B8782000F4
:1053200070782000407820002DE9F041FDF7D4FB93
:10533000002504464FF00C080F4F08FB05761A2095
:10534000FFF7C6FF314601F093FF88B10A20FFF74F
:10535000ADFF337A834202D00020BDE8F08170684F
:10536000201AB0F5206F8CBF00200120BDE8F0812D
:105370000135102DE1D1EFE7C404002070B5184EBF
:10538000002435461A20FFF7A3FF0C2101FB04611E
:1053900001F06EFF631C10B9102B1C46F2D10C22D9
:1053A000013B02FB0352A2F10C067BB90A20FFF776
:1053B0007DFF2872FDF790FB68601A20FFF788FFD9
:1053C000BDE870400146064801F04FBF344603CCAB
:1053D000106051602068013B90603246E3E700BFF7
:1053E000C4040020014B1888704700BFFC00002057
:1053F0002DE9F041012986B006460F46144603DC2C
:10540000002006B0BDE8F08103A902F068F803AB04
:1054100003CB1B88206123839DF811306161002B31
:1054200044D0B51C02AA01A903A801F029FF9DF8E8
:105430001380B8F1000F4CD0029B23B16A7815F8A5
:10544000023B03EB0223B8F1020FA38332D13249AE
:10545000204601F00AFF6B78237015F8023B637059
:105460009DF81580B8F1000F4DD0019B002B37D06F
:105470006A7815F8023B03EB0223029A9BB2E3839E
:1054800002B9A383B8F1020F2DD1234904F108001A
:1054900001F0EBFE6B78237215F8023B6372A81BD8
:1054A0003B1A8742E363A563AADBAAE7B378F51C3E
:1054B000A376B7E7B8F1030FD2D105F1080213467E
:1054C000611E13F8010DAB4201F8010FF9D1154629
:1054D000C6E71149204601F0C8FEA4F81C80BFE7CA
:1054E000A38BE383CEE7B8F1030FD8D105F108020F
:1054F000134604F1080113F8010D9D4201F8010B58
:10550000F9D11546CBE7044904F1080001F0ADFEDE
:10551000A4F81E80C3E700BFE078200030B591B04A
:105520000546FFF75FFF4FF6FF73984204D14FF037
:10553000FF34204611B030BD40220021684601F002
:10554000B3FA404B1A782AB901221A70FFF748FBC8
:105550003D4B18701420FFF7A9FE8DF810001320A2
:10556000FFF7A4FE8DF81200FFF7BAFE04460028EC
:1055700049D000238DF813308DF815300023012415
:105580008DF814308DF818404DB10A20FFF78EFECB
:10559000002840D00A20FFF789FE8DF81A00022467
:1055A0008DF81940FFF71EFFADF81C00FFF798FEBD
:1055B00000283DD0FF238DF817408DF800308DF87E
:1055C0000130FFF70FFFADF81E001A20FFF780FE35
:1055D000014602A801F049FEFFF7A2FD0E90FFF779
:1055E00069FD0F90684601F0E9FE0446002DA0D049
:1055F000FFF7C8FD00289AD0FFF758FD014668461E
:1056000001F024FF95E70B20FFF750FE8DF81540C1
:105610008DF81300B2E70C4B1A7802B91C70197898
:105620000A204A1C1A708DF81A10FFF737FEB6E7E9
:105630001B20FFF74DFE0146684601F016FE8DF86F
:105640001740BEE71E0E00201F0E0020014BDB6836
:10565000184700BFB8782000014B5B69184700BFAE
:105660008C782000014B9B69184700BF8C78200084
:10567000024BD86900B10047704700BF8C7820000A
:1056800013B5044668B1006B01F067FB024640B1F8
:105690002146054B0548DB68019302B0BDE8104088
:1056A000184702B010BD00BF8C782000E1752000C3
:1056B00070B590F829500F4B042D28BF0425012404
:1056C000DB6906469847AC40651E002814BF0446B7
:1056D00001246C4305D0FFF783FAB0FBF4F303FB1E
:1056E00014043346214606F10800034ABDE8704021
:1056F000FEF74CBF8C782000815620002DE9F04148
:1057000007461B208846FFF7E3FD494B05461A78FC
:10571000484C22B901221A70FFF762FA20802388D0
:105720000BB90123238021880A204B1C2380FFF71B
:10573000B5FD414801F011FB0446002848D13F481F
:1057400001F058FB0446002868D02946201D01F0CE
:105750008CFD002304F12C00206384F8283084F8A9
:105760002930E36201F0F6FA2146334801F013FBD9
:10577000206B01F025FB072850DC314801F03AFB93
:10578000054600283ED02F4801F034FBA860A8B39E
:10579000FFF722FC686068B30920AE68FFF786FD5A
:1057A00000BB0823337286E880010D20FFF77EFDE1
:1057B00001282946206B1AD101F0FAFA206B01F07A
:1057C000CCFA854232D12046BDE8F041FFF770BFE8
:1057D0002946201D01F04CFD0028C9D1204601F0CA
:1057E000F6FAA9E70920FFF761FD3072DBE701F067
:1057F000D2FAE3E7A968134801F010FB29461048E4
:1058000001F00CFB206B01F0DBFA38B921460A48A5
:1058100001F0ACFA2146094801F000FB4146384648
:10582000BDE8F0410123042201F079BEBDE8F0811A
:10583000200E0020F80C0020E4050020CC00002001
:10584000D8000020C000002008B5054801F0C2FAC9
:10585000044801F0BFFABDE80840034801F0BABAB5
:10586000D8000020C0000020CC0000202DE9F04727
:105870000D4614468B68804693E8C000106B92F882
:10588000289001F073FA6868FFF7C8FBA96814480C
:1058900001F0C4FA2946134801F0C0FA206B01F068
:1058A0005CFA78B10023204684F8283084F8293047
:1058B000FFF7FEFE4B46424639463046BDE8F0470C
:1058C00001F02DBE04F10800FEF76AFE21460648ED
:1058D00001F04CFA2146054801F0A0FAEAE700BFC2
:1058E000C0000020D8000020E4050020CC000020EB
:1058F000014B1B6A184700BF6C7720002DE9FF4E53
:1059000081468A461A204249FFF7D6FC01210B2026
:10591000FFF7C4FC3F4B5B689847002874DBFFF738
:10592000C5FB3D4D90F802B06C68FFF7BFFB064623
:10593000FFF71EFC01463046A047FFF7D1FCAE69D9
:105940000746B047044610B1012200240CE0A7B17D
:10595000AB680193FFF70CFC019B9847024688B1A6
:1059600002280CBF0122042248460123514601F0BF
:10597000D6FD204604B0BDE8F08EEB6998470028BC
:10598000E2D1E5E7002F41D1FDF7D4F80446FDF759
:1059900055FAC4F1FF2404F57F04F334FDF7CAF887
:1059A000C442FBD4B04700B3FDF7C4F80446FDF78A
:1059B00045FAC4F1FF2404F57F04EB34FDF7BAF88F
:1059C000C442FBD4EB699847D0B12B69032103A8EB
:1059D0009847032816D19DF80E20B2EB0B0218BF92
:1059E0000122B2FA82F46409BEE7EB6998470446E3
:1059F0000028D9D16B6998470028D5D00222B3E797
:105A00000222EEE70122ECE705229EE70124ABE744
:105A1000700E0020AC7820006C77200082B0044B20
:105A200018B11B6A019302B018475B6AFAE700BF1E
:105A30006C77200007B5FFF73DFB03281BD00F4B09
:105A40009B689847002816DB1B20FFF741FC0C4998
:105A500001F00EFC58B1FFF767FC60B9FFF78EFC50
:105A6000084BDB68019303B05DF804EB1847FFF7C0
:105A700037FC0028EFD103B05DF804FBAC782000C0
:105A8000700E00207078200008B5024B1B68984704
:105A9000023008BD6478200038B50C4B9B689847ED
:105AA000041E02DA4FF0FF3038BDFFF739FB0378F0
:105AB0000546002BF6D10220FFF7DEFA0028F1D0D0
:105AC0006878FFF7EDFAA01C38BD00BF64782000AD
:105AD00070B50220FFF756FB10B94FF0FF3070BDD4
:105AE000FFF7E4FA002505700446FFF7E3FA60705B
:105AF000FFF73EFB0446FFF7C7FF20442A2812DCCD
:105B0000C0F12B00C4B2FFF70BFB0646FFF7D2FA39
:105B100022462946304400F0C7FFFFF7CBFA204465
:105B200080B2FFF7BDFA044B5B689847041ED4DBD4
:105B3000FFF7D2FAA01C70BD64782000014B9B686F
:105B4000184700BF4078200070B504460D46142069
:105B50000121FFF7A3FB034B29462046BDE8704017
:105B60009B6818477078200010B50C460220FCF79F
:105B70009DFDFFF7D5FA0420FFF798FB6378032B10
:105B800081BF4043044A043B22F81300BDE81040A3
:105B90000220FCF793BD00BFFE00002000230A2076
:105BA00044F6206210B5064C34F913109142B8BF88
:105BB000184603F10103B8BF8AB2062BF4D110BD19
:105BC000FE00002007B50C4B01A99B6A01209847F5
:105BD0000A4801F021F80A4B0A4819785A78FEF76A
:105BE0009DF801990848FEF799F8084801F014F863
:105BF00003B05DF804FB00BF6C772000B77B20008A
:105C0000700E0020DE7B2000F37B20000B7C200048
:105C100081F0004102E000BF83F0004330B54FEA5D
:105C200041044FEA430594EA050F08BF90EA020FCA
:105C30001FBF54EA000C55EA020C7FEA645C7FEA5D
:105C4000655C00F0E2804FEA5454D4EB5555B8BF80
:105C50006D420CDD2C4480EA020281EA030382EAF1
:105C6000000083EA010180EA020281EA0303362D83
:105C700088BF30BD11F0004F4FEA01314FF4801C56
:105C80004CEA113102D0404261EB410113F0004F68
:105C90004FEA03334CEA133302D0524263EB43031F
:105CA00094EA050F00F0A780A4F10104D5F1200EBD
:105CB0000DDB02FA0EFC22FA05F2801841F1000118
:105CC00003FA0EF2801843FA05F359410EE0A5F1EC
:105CD00020050EF1200E012A03FA0EFC28BF4CF01D
:105CE000020C43FA05F3C01851EBE37101F00045D3
:105CF00007D54FF0000EDCF1000C7EEB00006EEBE0
:105D00000101B1F5801F1BD3B1F5001F0CD3490869
:105D10005FEA30004FEA3C0C04F101044FEA4452C0
:105D200012F5800F80F09A80BCF1004F08BF5FEA47
:105D3000500C50F1000041EB045141EA050130BD27
:105D40005FEA4C0C404141EB010111F4801FA4F1CA
:105D50000104E9D191F0000F04BF01460020B1FA1F
:105D600081F308BF2033A3F10B03B3F120020CDA57
:105D70000C3208DD02F1140CC2F10C0201FA0CF035
:105D800021FA02F10CE002F11402D8BFC2F1200C9A
:105D900001FA02F120FA0CFCDCBF41EA0C01904050
:105DA000E41AA2BF01EB0451294330BD6FEA040499
:105DB0001F3C1CDA0C340EDC04F11404C4F1200284
:105DC00020FA04F001FA02F340EA030021FA04F396
:105DD00045EA030130BDC4F10C04C4F1200220FAED
:105DE00002F001FA04F340EA0300294630BD21FA2B
:105DF00004F0294630BD94F0000F83F4801306BFF1
:105E000081F480110134013D4EE77FEA645C18BFE4
:105E10007FEA655C29D094EA050F08BF90EA020F7B
:105E200005D054EA000C04BF1946104630BD91EA73
:105E3000030F1EBF0021002030BD5FEA545C05D176
:105E40004000494128BF41F0004130BD14F58004B5
:105E50003CBF01F5801130BD01F0004545F0FE4129
:105E600041F470014FF0000030BD7FEA645C1ABF5E
:105E7000194610467FEA655C1CBF0B46024650EA95
:105E8000013406BF52EA033591EA030F41F40021C1
:105E900030BD00BF90F0000F04BF0021704730B547
:105EA0004FF4806404F132044FF000054FF000011C
:105EB00050E700BF90F0000F04BF0021704730B5DD
:105EC0004FF4806404F1320410F0004548BF4042B2
:105ED0004FF000013EE700BF42004FEAE2014FEA07
:105EE00031014FEA02701FBF12F07F4393F07F4FE2
:105EF00081F06051704792F0000F14BF93F07F4F14
:105F0000704730B54FF4607401F0004521F0004156
:105F100020E700BF50EA010208BF704730B54FF0DC
:105F200000050AE050EA010208BF704730B511F0E1
:105F3000004502D5404261EB41014FF4806404F119
:105F400032045FEA915C3FF4DCAE4FF003025FEA9B
:105F5000DC0C18BF03325FEADC0C18BF033202EB23
:105F6000DC02C2F1200300FA03FC20FA02F001FA7D
:105F700003FE40EA0E0021FA02F11444C1E600BF1C
:105F800070B54FF0FF0C4CF4E06C1CEA11541DBFCF
:105F90001CEA135594EA0C0F95EA0C0F00F0DEF89A
:105FA0002C4481EA030621EA4C5123EA4C5350EA7F
:105FB000013518BF52EA033541F4801143F48013D0
:105FC00038D0A0FB02CE4FF00005E1FB02E506F061
:105FD0000042E0FB03E54FF00006E1FB03569CF0B6
:105FE000000F18BF4EF0010EA4F1FF04B6F5007FBC
:105FF00064F5407404D25FEA4E0E6D4146EB06062E
:1060000042EAC62141EA55514FEAC52040EA5E50B6
:106010004FEACE2EB4F1FD0C88BFBCF5E06F1ED860
:10602000BEF1004F08BF5FEA500E50F1000041EB97
:10603000045170BD06F0004646EA010140EA020044
:1060400081EA0301B4EB5C04C2BFD4EB0C0541EA66
:10605000045170BD41F480114FF0000E013C00F37B
:10606000AB8014F1360FDEBF002001F0004170BD9F
:10607000C4F10004203C35DA0C341BDC04F11404B8
:10608000C4F1200500FA05F320FA04F001FA05F244
:1060900040EA020001F0004221F0004110EBD37011
:1060A00021FA04F642EB06015EEA430E08BF20EA3D
:1060B000D37070BDC4F10C04C4F1200500FA04F3E0
:1060C00020FA05F001FA04F240EA020001F0004172
:1060D00010EBD37041F100015EEA430E08BF20EAE5
:1060E000D37070BDC4F1200500FA05F24EEA020E2D
:1060F00020FA04F301FA05F243EA020321FA04F05C
:1061000001F0004121FA04F220EA020000EBD37012
:106110005EEA430E08BF20EAD37070BD94F0000F12
:106120000FD101F00046400041EB010111F4801F46
:1061300008BF013CF7D041EA060195F0000F18BFF7
:10614000704703F00046520043EB030313F4801F33
:1061500008BF013DF7D043EA0603704794EA0C0FED
:106160000CEA135518BF95EA0C0F0CD050EA410603
:1061700018BF52EA4306D1D181EA030101F0004180
:106180004FF0000070BD50EA410606BF10461946A8
:1061900052EA430619D094EA0C0F02D150EA0136B4
:1061A00013D195EA0C0F05D152EA03361CBF1046F5
:1061B00019460AD181EA030101F0004141F0FE4194
:1061C00041F470014FF0000070BD41F0FE4141F418
:1061D000780170BD70B54FF0FF0C4CF4E06C1CEA18
:1061E00011541DBF1CEA135594EA0C0F95EA0C0FCD
:1061F00000F0A7F8A4EB050481EA030E52EA033588
:106200004FEA013100F088804FEA03334FF08055A8
:1062100045EA131343EA12634FEA022245EA1115D5
:1062200045EA10654FEA00260EF000419D4208BF86
:10623000964244F1FD0404F5407402D25B084FEA33
:106240003202B61A65EB03055B084FEA32024FF4DF
:1062500080104FF4002CB6EB020E75EB030E22BF3C
:10626000B61A754640EA0C005B084FEA3202B6EBFC
:10627000020E75EB030E22BFB61A754640EA5C00AB
:106280005B084FEA3202B6EB020E75EB030E22BF3B
:10629000B61A754640EA9C005B084FEA3202B6EB3C
:1062A000020E75EB030E22BFB61A754640EADC00FB
:1062B00055EA060E18D04FEA051545EA16754FEA5D
:1062C00006164FEAC30343EA52734FEAC2025FEA7B
:1062D0001C1CC0D111F4801F0BD141EA00014FF00A
:1062E00000004FF0004CB6E711F4801F04BF0143DB
:1062F0000020B4F1FD0C88BFBCF5E06F3FF6AFAEF7
:10630000B5EB030C04BFB6EB020C5FEA500C50F186
:10631000000041EB045170BD0EF0004E4EEA113109
:1063200014EB5C04C2BFD4EB0C0541EA045170BD10
:1063300041F480114FF0000E013C90E645EA060E54
:106340008DE60CEA135594EA0C0F08BF95EA0C0F82
:106350003FF43BAF94EA0C0F0AD150EA01347FF4CA
:1063600034AF95EA0C0F7FF425AF104619462CE7A1
:1063700095EA0C0F06D152EA03353FF4FDAE104604
:10638000194622E750EA410618BF52EA43067FF455
:10639000C5AE50EA41047FF40DAF52EA43057FF4E5
:1063A000EBAE12E74A0011D212F5001211D20DD550
:1063B0006FF47873B3EB62520ED44FEAC12343F00B
:1063C000004343EA505323FA02F070474FF00000B5
:1063D000704750EA013002D14FF0FF3070474FF064
:1063E0000000704780F0004002E000BF81F00041F3
:1063F00042001FBF5FEA410392EA030F7FEA226C6B
:106400007FEA236C6AD04FEA1262D2EB1363C1BFFA
:10641000D218414048404140B8BF5B42192B88BF69
:10642000704710F0004F40F4000020F07F4018BF8C
:10643000404211F0004F41F4000121F07F4118BFAC
:10644000494292EA030F3FD0A2F1010241FA03FC54
:1064500010EB0C00C3F1200301FA03F100F000433C
:1064600002D5494260EB4000B0F5000F13D3B0F104
:10647000807F06D340084FEA310102F10102FE2A73
:1064800051D2B1F1004F40EBC25008BF20F00100E3
:1064900040EA03007047490040EB000010F4000F91
:1064A000A2F10102EDD1B0FA80FCACF1080CB2EB24
:1064B0000C0200FA0CF0AABF00EBC2505242184383
:1064C000BCBFD0401843704792F0000F81F4000128
:1064D00006BF80F400000132013BB5E74FEA4103FB
:1064E0007FEA226C18BF7FEA236C21D092EA030F67
:1064F00004D092F0000F08BF0846704790EA010FE1
:106500001CBF0020704712F07F4F04D1400028BF0D
:1065100040F00040704712F100723CBF00F50000EF
:10652000704700F0004343F0FE4040F40000704725
:106530007FEA226216BF08467FEA236301464202D1
:1065400006BF5FEA412390EA010F40F480007047E4
:106550004FF0000304E000BF10F0004348BF40428A
:106560005FEA000C08BF704743F0964301464FF0C6
:1065700000001CE050EA010208BF70474FF0000322
:106580000AE000BF50EA010208BF704711F0004363
:1065900002D5404261EB41015FEA010C02BF844633
:1065A0000146002043F0B64308BFA3F18053A3F592
:1065B0000003BCFA8CF2083AA3EBC25310DB01FAD9
:1065C00002FC634400FA02FCC2F12002BCF1004F5D
:1065D00020FA02F243EB020008BF20F001007047EE
:1065E00002F1200201FA02FCC2F1200250EA4C0042
:1065F00021FA02F243EB020008BF20EADC70704788
:106600004FEA4002B2F1FE4F0FD34FF09E03B3EBBF
:1066100012620DD94FEA002343F0004310F0004FFF
:1066200023FA02F018BF404270474FF00000704755
:1066300012F1610F01D1420205D110F0004008BFF4
:106640006FF0004070474FF00000704753B94AB9EF
:10665000002908BF00281CBF4FF0FF314FF0FF306A
:1066600000F07AB9ADF1080C6DE904CE00F006F83F
:10667000DDF804E0DDE9022304B070472DE9F047BE
:106680008C460E460446089D002B50D18A42174680
:106690006CD9B2FA82FEBEF1000F0BD0CEF1200C05
:1066A00001FA0EF620FA0CFC02FA0EF74CEA060C80
:1066B00000FA0EF43A0CBCFBF2F9BBB202FB19CCA7
:1066C00009FB03FA4FEA144848EA0C46B2450AD9D6
:1066D000F61909F1FF3180F02581B24540F222819F
:1066E000A9F102093E44A6EB0A06B6FBF2F002FB52
:1066F000106600FB03F3A4B244EA0644A34209D99E
:10670000E41900F1FF3280F00B81A34240F20881CE
:1067100002383C440021E41A40EA0940002D62D0CE
:10672000002324FA0EF42C606B60BDE8F0878B42E6
:1067300007D9002D55D0002185E841000846BDE865
:10674000F087B3FA83F1002940F08F80B34202D37F
:10675000824200F2FC80841A66EB03060120B446F4
:10676000002D40D085E81010BDE8F08712B9012750
:10677000B7FBF2F7B7FA87FEBEF1000F35D1012162
:10678000F61B4FEA174C1FFA87F8B6FBFCF20CFB1E
:10679000126608FB02F0230C43EA0646B04207D912
:1067A000F61902F1FF3302D2B04200F2D2801A464B
:1067B000361AB6FBFCF00CFB106608FB00F8A3B21F
:1067C00043EA0644A04507D9E41900F1FF3302D299
:1067D000A04500F2B9801846A4EB080440EA024044
:1067E0009CE729462846BDE8F08707FA0EF7CEF168
:1067F000200326FA03F24FEA174CB2FBFCF11FFA12
:1068000087F80CFB112206FA0EF620FA03F301FBBF
:1068100008F933431E0C46EA0246B14500FA0EF46D
:1068200009D9F61901F1FF3280F08C80B14540F2B0
:10683000898002393E44A6EB0906B6FBFCF00CFB4E
:10684000106200FB08F99EB246EA0246B14507D93C
:10685000F61900F1FF3371D2B1456FD902383E44C9
:10686000A6EB090640EA01418FE7C1F1200722FAB1
:1068700007F88B4048EA030326FA07F44FEA134E61
:10688000B4FBFEF91FFA83FC0EFB19448E4020FA7C
:1068900007F809FB0CFA48EA06084FEA184646EAE8
:1068A0000444A24502FA01F200FA01F608D9E418FC
:1068B00009F1FF3044D2A24542D9A9F102091C4492
:1068C000A4EB0A04B4FBFEF00EFB104400FB0CFC2E
:1068D0001FFA88F848EA0444A44507D9E41800F1EF
:1068E000FF3E29D2A44527D902381C4440EA09407A
:1068F000A0FB0289A4EB0C0CCC45C246CE4615D3B6
:1069000012D055B1B6EB0A036CEB0E0606FA07F788
:10691000CB401F43CE402F606E600021BDE8F08762
:106920001046F7E68946DEE64645EAD2B8EB020AAB
:1069300069EB030E0138E4E77046D7E718468FE7A6
:106940008146BDE7114676E702383C4444E70846F5
:1069500006E7023A3E442BE7704700BF032A70B4B3
:1069600022D940EA01039B0711D003780C78A34297
:106970001DD10A44013105E010F8013F11F8014B27
:10698000A34214D19142F7D1002070BC70470D682A
:1069900006680C46AE42034601F1040100F1040012
:1069A00008D1043A032AF2D8002ADED1ECE7181BFA
:1069B00070BC704721461846D7E700BF844641EABD
:1069C000000313F0030349D1403A23D30B6803605B
:1069D0004B6843608B688360CB68C3600B6903615D
:1069E0004B6943618B698361CB69C3610B6A036245
:1069F0004B6A43628B6A8362CB6AC3620B6B03632D
:106A00004B6B43638B6B8363CB6BC3634030403111
:106A1000403ADBD230320BD30B6803604B684360E3
:106A20008B688360CB68C36010301031103AF3D2AA
:106A30000C3205D351F8043B40F8043B043AF9D238
:106A4000043208D0D2071CBF11F8013B00F8013B0B
:106A500001D30B8803806046704700BF082A13D318
:106A60008B07B1D010F00303AED0C3F10403D21AE8
:106A7000DB071CBF11F8013B00F8013BA4D331F840
:106A8000023B20F8023B9FE7043AD9D3013A11F8C0
:106A9000013B00F8013BF9D20B7803704B7843704F
:106AA0008B7883706046704770B4860746D0541E5A
:106AB000002A41D0CAB2034602E014F1FF343BD3AE
:106AC00003F8012B9D07F8D1032C2ED9CDB245EA4E
:106AD00005250F2C45EA054519D9264603F1100274
:106AE000103E0F2E42F8105C42F80C5C42F8085C35
:106AF00042F8045C02F11002F2D8A4F1100222F074
:106B00000F0204F00F041032032C13440DD91E465B
:106B10002246043A032A46F8045BFAD8221F22F0E0
:106B200003020432134404F003042CB1C9B21C4420
:106B300003F8011B9C42FBD170BC7047144603460E
:106B4000C2E700BFFEE708B5FBF7C2FCF7B50024BB
:106B50000646254627463046FBF7A8FD0197019BD0
:106B60009D4215DC3046FBF7A9FDC5F5C8750197B8
:106B7000019B9D4211DC0134B4F5487F01D103B083
:106B8000F0BDB4F5C87FCCBFC4F548752546E2E733
:106B900000BF019B01330193E1E700BF019B01337B
:106BA0000193E5E701207047FBF7A0BEFBF748BF64
:106BB00070470020FCF724B80120FCF721B8002022
:106BC000FCF7D0B90120FCF7CDB90220FCF7CAB917
:106BD0000320FCF7C7B910B50C46FCF7EDFB2046C7
:106BE000BDE81040FCF71ABC10B50446C1B2002045
:106BF000FCF70AF9204610BD70B505460446461854
:106C0000601B0CB1237803B970BDB442FCD01846A8
:106C10000134FFF7E9FFF3E738B50546002415F81E
:106C2000010B20B1FFF7E0FF0134002DF7D10A205E
:106C3000FFF7DAFF204638BD00207047012070477B
:106C400010B50446302200210E20FCF7E5F984B18E
:106C5000012C0CD142F210730011A0F28E50584357
:106C60002A2390FBF3F000F5C340283010BD4FF00D
:106C7000004010BD002070470120704710B5044649
:106C8000302200210F20FCF7C7F95CB1012C07D19D
:106C900040F6F253584347F6F07390FBF3F010BD03
:106CA0004FF0004010BD08B5084612B11146FFF77D
:106CB000A3FF002008BD38B5044615460068FFF75D
:106CC0007DFE226800202A44226038BD10B5041FD2
:106CD00054F8040F00B910BD0021FDF73FFEF7E79F
:106CE000704710B5044600F01BF82046BDE8104080
:106CF000FDF7E6BC10B5044600F019F82046BDE8E3
:106D00001040FDF7DDBCC068B0FA80F04009704764
:106D1000837BDB0701D5FDF715BD7047FFF748BF43
:106D200010B541600446FBF7D7FE206010BD90E827
:106D30000C0013440360704710B50446FBF7CCFE0B
:106D40002368C3F1010303446068834294BF0020B9
:106D5000012010BD00230360704700687047006881
:106D600008B1036803B970471846FAE7036810B51D
:106D700083B10022994209D10B682AB9036000232C
:106D80000B6010BD2346F5E71360F8E71C681A4650
:106D9000002CF7D110BD38B50546FFF7E7FF0023FB
:106DA0000B60FFF7DCFF08B9296038BD016038BD12
:106DB00038B50446FFF7DAFF03680B60216038BD81
:106DC0000368002003B9704701301B68FAE700B17F
:106DD0000068704710B50446428800214068FFF7FC
:106DE00063FE23886288A0685A43BDE810400021F2
:106DF000FFF75ABE002310B541888B4201DB00200B
:106E000010BD4268D418D25C32B9012222700288C7
:106E1000806803FB020010BD0133EEE7002330B5AC
:106E200082684488A34201DBFF2030BD8A4207D13B
:106E30004168CA5C0AB1013ACA544268D05C30BDAC
:106E4000058801332A44EDE782688A4208D84388DE
:106E5000008800FB032081422CBF002001207047E6
:106E6000002070470023013A016002714371837171
:106E7000704710B5427983790479D31A34EA030351
:106E800008D0036899544379027901331340437160
:106E9000012010BD002010BD837942790179D21AFA
:106EA0000A421FBF0268D25C01330B401ABF8371D4
:106EB00010464FF0FF307047831C0020023313F858
:106EC000042C02B9704713F8032C1044F6E7072B83
:106ED0002DE9F8430746884615461C4607DC1A4646
:106EE00029464046FDF7CAFE3870BDE8F8834FEAF0
:106EF000E309AAB1002608EB060008222946FDF79F
:106F0000BDFEB85501364E45F5D114F0070217D035
:106F1000294608EB0600FDF7B1FEB855BDE8F88339
:106F200018F805307B550135A945F9D114F0070251
:106F300006D0002108EB0900FDF7A0FE07F80900C4
:106F4000BDE8F8832DE9F743FEF7EAF8044602208E
:106F5000FEF792F820B90025284603B0BDE8F0837B
:106F60006378207800EB032080B2FDF7DFFF054651
:106F70000028F0D0FEF7D4F88046287B10F00703F5
:106F800018BF012303EBD000FEF776F80028E2D00B
:106F90000026B146AC68023414F8023C002BDBD06A
:106FA000192B14F8017C06F0070208EBE6010BD957
:106FB00001A83B46FFF78BFF01A914F8020CFEF76E
:106FC0007BF93E440234E7E73B4601A8ADF8049064
:106FD000FFF77DFF9DF805109DF8043014F8020CB2
:106FE00043EA0121FEF75AF9EBE7072B2DE9F041BF
:106FF0000FDC1478C1F11001CB1A04FA03F3017805
:10700000C3F307220A43417802700B434370BDE883
:10701000F081DC1069B302F1FF3E0519C1F1080CE3
:10702000854216D113F007033CD0125DC3F108006E
:1070300001440A41D2B2C3F1100302FA03F32978E2
:10704000C3F307220A432A706A7813436B70BDE8C2
:10705000F0811EF8016F90F8008006FA0CF6C6F376
:10706000072747EA0807077010F8017F3E430670BC
:10707000D6E7555C455401318C42FAD113F0070331
:1070800010D0125DC3F108052A41C3F11003055D5C
:1070900002FA03F3C3F307222A43011902554A787F
:1070A00013434B70BDE8F0812DE9F743047B05469F
:1070B00014F0070318BF012303EBD404A01CFEF750
:1070C00061F8A8B1FDF7F2FFAB880370AB881B0A2B
:1070D0004370FDF7EBFF871C224600213846FFF77F
:1070E000E3FCAC680025023414F8020C18B9012046
:1070F00003B0BDE8F083192814F8016C07EBE5082C
:1071000005F007090AD9FEF7E3F833460246494677
:107110004046FFF76AFF35440234E5E7FEF7C6F85C
:107120008DF80400000A8DF80500334601AAEEE749
:1071300010B5FDF743FFFEF763F8FDF78FFE00F093
:1071400040F8BDE810404FF4E1234FF4F0524FF403
:1071500000710220FDF74ABE7047F7B50F46FDF7F4
:10716000DFFF06880446FDF7A5FFB3000233834224
:1071700003D800250234B54201DB03B0F0BD54F85A
:10718000041B384601910A0C89B2FDF779FE0135DE
:10719000F1E743695B6803B11847704713B50446CC
:1071A0001A20FEF795F8014601A800F05EF8636921
:1071B0001B6813B101A92046984702B010BD00F02A
:1071C0001FB8FDF79FBE38B50D46FDF7AFFE04466C
:1071D00020B185602846FDF78FFE207338BD836996
:1071E0005B6803B118477047FFF7E9BF10B5044665
:1071F0001B20FEF761F82046BDE81040FDF720BED9
:10720000FDF78EBEFDF780BD03691B6803B118470B
:10721000704703695B6803B1184770470EF00F00B1
:107220000D2808BF00F00EB800982DE9F04F00F1CE
:10723000240181F3098890E8F08F0EF00F000D28EB
:1072400018BF7047EFF3098020E9F04F0990BDE8BF
:10725000F08F006800F1B6018230FDF7F7BF0368D8
:1072600003EB4101B1F8820070470B88038070473F
:1072700008B50222FFF772FBB0FA80F0400908BDA2
:1072800030B500284AD0037A022B2ED1C479437A34
:1072900005792CB95BB9012D14BF002001200BE04A
:1072A00003B965B1032C35D1032B35D19DB1002035
:1072B00002E0181C18BF012015B1002306E00120D0
:1072C00074B9023B012B8CBF0023012301B10B6079
:1072D00022B3106030BD01209C1E63426341F5E77C
:1072E000022CEED0032CF7D0E7E70378022B0ED068
:1072F000037953B9437A13F0030318BF0123C0790C
:1073000010F0030018BF0120E0E70023F7E700209A
:107310000346DBE7022CCCD0022BBDE730BD0023B7
:1073200037B50B608B80437D0D46D9075CBF0123C9
:107330002B70037E0446012B0BD8C37D9A072CD0FB
:10734000437E9B0729D0C28B838B9A4225D1012390
:10735000237501AA694604F11000FFF791FF009B15
:107360000BB10223EB70019B0BB102236B70E37D29
:1073700003F00303022B03D0032B0CBF08230023CD
:10738000AB70637E03F00303022B03D0032B0CBF0F
:10739000082300232B7103B030BD0023D8E7022857
:1073A0000CBF022308230B448B4201D101207047FC
:1073B00013F8012DFF2AF7D00020704707B5694662
:1073C000FFF7ADFF9DF800309DF801000233034444
:1073D0009DF8020003449DF8030003449DF8040057
:1073E00003449DF80500184403B05DF804FB43789E
:1073F0008278DB00120102F0100203F0080313434D
:10740000027802F007021343C278520102F0200210
:1074100013430279920102F0400213430B70437947
:10742000427A03F0010343EA82138279520002F0A8
:1074300002021343C279920002F00C021343027A53
:10744000120102F0300213434B707047F7B5044647
:107450000D466946FFF763FF294604F11000FFF768
:10746000C6FF9DF800309DF80120012B09BFA37EC7
:107470000223AB700323022A08D1A18B5A1CE954C2
:10748000A18BD2B20233090ADBB2A95419469DF886
:1074900002002218A24217D19DF803200344022AB9
:1074A000DBB208D1E18B5A1CE954E18BD2B2023332
:1074B000090ADBB2A9549DF804201344D8B2831AF8
:1074C000DBB23AB903B0F0BD12F8017D4E1C6F5427
:1074D000F1B2DFE7013AA118097AE954EFE702783F
:1074E000437802F007000870C2F3C0004870C2F38E
:1074F00000108870C2F34010C2F380120A7103F0CA
:1075000001024A71C3F340028A71C3F38102CA7156
:10751000C3F301129B09C8700A724B72704730B4F2
:107520000D460446114620B11A462846234630BC73
:10753000184730BC704730B591B0FDF7F1FD0446F7
:10754000FDF7B8FD6A4601462046FDF751FF0446A7
:1075500020B94FF0FF34204611B030BDFDF78CFD4F
:107560000028F6D09DF810101420FDF797FE9DF826
:107570001730ABB1BDF81C50FDF734FF854205D084
:107580004FF6FF73BDF81C209A42E2D169469DF880
:107590001700FFF704FF18B969461B20FDF78CFEA2
:1075A00002A91A20FDF788FE9DF812101320FDF79E
:1075B00075FE9DF8153053B99DF81A100A20FDF795
:1075C0006DFE9DF81A100E20FDF768FEC3E74FF61A
:1075D000FF71F3E70120FDF7A1BF0020FDF79EBF7B
:1075E0002DE9F0410E4617460446002861D0006B95
:1075F000FFF7B3FB054608B9BDE8F0810A216868CA
:10760000FFF72DFE80460A20FDF750FE80454DD045
:107610002846FFF7DCFBEDE7032E43D8DFE806F052
:107620000220104994F8282000203A4484F82820A9
:107630002946224684F82900BDE8F041FEF716B934
:10764000002284F8292094F828203A44D2B284F801
:1076500028201B7A93421DD8224629460220EBE7B8
:1076600094F829203A44D2B2052A83BF002284F834
:10767000292094F8282084F8292084BF013284F836
:10768000282094F828201B7A9A4203D322462946C0
:107690000120D1E72046FEF70BF86868BDE8F0410D
:1076A000FFF7D7BD224629463046C5E7AB68002B19
:1076B000B2D1BDE8F08100207047FEF719B970B56E
:1076C00004460D4652B150681668FDF7BDFC2946C8
:1076D0002046FEF713F932460028F3D170BDFEF7BD
:1076E0000DB9704758792000D126200009272000C5
:1076F000A56B20006D79200095272000F127200040
:107700000000000001000000010000000100000076
:1077100000C0004000410D400000000008000000D3
:107720002C00000000000001FFFFFFFF050000002B
:1077300002000000020000000200000000D0004033
:1077400008410D4002000000080000002C0000006D
:1077500002010200FFFFFFFF06000000087A200080
:107760000C7A20001B7A20001F7A2000513720005D
:10777000B93320001D342000D76B20007136200063
:10778000F531200031322000493220004131200003
:107790006D312000593220004D352000A9382000DD
:1077A0004136200007000000FF0000000500000037
:1077B000ED00000003000000D50000000100000003
:1077C000C500000000000000B6000000FFFFFFFF42
:1077D000B0000000FDFFFFFFA1000000FBFFFFFF66
:1077E00091000000F9FFFFFF88000000F7FFFFFF96
:1077F00072000000F5FFFFFF62000000F3FFFFFFD3
:1078000058000000F1FFFFFF42000000E8FFFFFF0B
:1078100000000000467A2000416C2000396C2000F6
:107820003D6C20005A7A20007D6C2000756C200091
:10783000796C2000456F2000A9702000B96E2000EF
:10784000EC7A200031712000D54C20005B712000C3
:10785000597120009D712000937120004D4F200030
:10786000DF712000DB752000D57520003775200002
:10787000FD7A200049582000FD5620004D5620007A
:10788000595620006556200071562000027B2000CA
:10789000BB762000DF762000BF762000355A20001E
:1078A000F15820001D5A2000B7762000895A200088
:1078B000D15A2000995A20000A7B2000E37620004C
:1078C000495B20003D5B2000EC0000200000000030
:1078D000695B2000000000000000000000000000C4
:1078E0000000436F6E74696B692D386438633237FA
:1078F000333135005A6F6C65727469612052452DC1
:107900004D6F7465207265766973696F6E204220D1
:10791000706C6174666F726D0052696D6520636F83
:107920006E66696775726564207769746820616442
:1079300064726573732000253032783A0025303246
:10794000780A00204E65743A2000204D41433A20C9
:1079500000205244433A20004144432073656E7333
:107960006F7220696E74657266616365004275743A
:10797000746F6E004343323533383A2049443A201D
:1079800030782530346C782C207265762E3A205071
:107990004725642E25642C20466C6173683A2025A7
:1079A0006C75204B69422C205352414D3A20256C76
:1079B00075204B69422C204145532F5348413A20B2
:1079C00025752C204543432F5253413A2025750AF3
:1079D00053797374656D20636C6F636B3A20256C0B
:1079E0007520487A0A492F4F20636C6F636B3A20E9
:1079F000256C7520487A0A52657365742063617539
:107A000073653A2025730A00504F5200457874651B
:107A1000726E616C20726573657400574454004344
:107A20004C44206F7220736F6674776172652072A8
:107A300065736574006363323533382052462064C1
:107A40007269766572004F6E2D43686970205465C7
:107A50006D70657261747572650056444433002020
:107A60002020202020202020202020202020203006
:107A70003030303030303030303030303030303006
:107A80003132333435363738394142434445460084
:107A90003031323334353637383961626364656684
:107AA000003078003058002B00286E756C6C29006F
:107AB00025004374696D65722070726F636573731E
:107AC000004576656E742074696D65720053657249
:107AD00069616C206472697665720053656E736FBC
