:020000040020DA
:1020000090160020E1232000336820003168200072
:102010003168200031682000316820000000000095
:10202000000000000000000000000000C96E200059
:102030003168200000000000E76E20009968200051
:10204000AB682000B1682000B7682000BD682000A0
:10205000000000009F682000A56820003168200073
:1020600031682000000000000000000000000000B7
:1020700000000000000000003168200000000000A7
:1020800000000000000000003168200031682000DE
:10209000316820003168200031682000316820005C
:1020A000316820003168200031682000316820004C
:1020B000316820003168200031682000316820003C
:1020C000316820003168200031682000316820002C
:1020D0003168200000000000000000000000000047
:1020E00000000000000000000000000000000000F0
:1020F0000000000000000000313A2000413A2000BA
:1021000000000000000000000000000000000000CF
:1021100000000000000000000000000000000000BF
:1021200000000000000000000000000000000000AF
:10213000000000000000000000000000000000009F
:10214000000000000000000000000000000000008F
:10215000000000000000000000000000000000007F
:10216000000000000000000000000000000000006F
:10217000000000000000000000000000000000005F
:10218000000000000000000000000000000000004F
:10219000000000000000000000000000000000003F
:1021A000000000000000000000000000000000002F
:1021B000000000000000000000000000000000001F
:1021C000000000000000000000000000000000000F
:1021D00000000000000000000000000000000000FF
:1021E00000000000000000000000000000000000EF
:1021F00000000000000000000000000000000000DF
:1022000000000000000000000000000000000000CE
:1022100000000000000000000000000000000000BE
:1022200000000000000000000000000000000000AE
:10223000000000000000000000000000000000009E
:10224000000000000000000000000000000000008E
:10225000000000000000000000000000000000007E
:10226000000000000000000000000000000000006E
:10227000316820001539200039392000B92F20009D
:10228000A13B2000CD2A2000316820000000000082
:10229000832938B5044602D1454804F003FE23885B
:1022A0005F2B17D06A2B4AD0002B73D1414B0C21E6
:1022B000DB6A0120984703F033FC81213C483E4A09
:1022C00002F060FD4FF420713C4804F076FB5F2380
:1022D000238003E0394804F082FB08B9012038BDAF
:1022E00046F2A812364B1A805A809A80DA801A81F8
:1022F0005A8102F0E3FB03F08BFD29A3D3E900230D
:1023000003F0F0FD28A3D3E9002303F015FF00221A
:102310002C4B03F031FC03F0F7FF01462A4804F090
:102320004CFB2A4804F0CEFD234A8121204802F0CC
:1023300029FD274A1368013B13606A23C8E7224836
:1023400004F04DFB0028C9D0042000F037F9204DDF
:102350000121204802F0A8FE154802F025FD296859
:102360001D4801F073FC184804F030FB042000F015
:102370002DF92B68002BDCDA03230D482B6004F0C9
:1023800091FD0E4804F022FB00228621134802F042
:102390002BFA9CE7002303202380A0E7AFF3008003
:1023A0009A9999999999B93F00000000E0FFEF4090
:1023B000B80600205C732000BC742000E0060020FA
:1023C0000A01002000003940D0060020000700204C
:1023D000E4000020F0762000F2762000F8000020D3
:1023E000FF22482408B5084B08481A60084AE369E8
:1023F000121A084998470848084AA369121A002186
:10240000984700F00DF8FEE7B4200D404000002092
:1024100018010020D4772000180100208F0E002022
:1024200073B500F0A1FC00F05BFD00F0B7FC00F01C
:10243000BBFA01F0A3FB04F0DDFA00F049FD00F067
:10244000B3F8012004F0F8F902F068F900F078FC24
:10245000002000F093FB012000F090FB4049002099
:1024600000F058FC02F090FA62B6042004F0E4F99F
:102470003C4804F047FA3C4804F044FA00F030FAD3
:10248000002002F02DFB01F06BFA0021374802F02A
:10249000D3F902F071F804F0FDF900F0B1FD00F09D
:1024A000CDFD02F069FE0821684601F08DFB9DF824
:1024B00006309DF807502E4C45EA0325BDF806303E
:1024C0002C48238001F0C2FB2B4E21782B4801F0D1
:1024D000BDFB61782A4801F0B9FBF46A4AF6CD31B8
:1024E0000220A04729460320A0471A210120A04727
:1024F00008226946736B0B209847224801F0A6FB1F
:10250000214B186804F0FEF9204801F09FFB204B96
:10251000186804F0F7F91F4801F098FB1E4B186883
:1025200004F0F0F900211D4802F086F91C4B01214E
:102530009B688120984704F03FFA1A4804F032FA69
:1025400000F004FC022004F077F900F005FC02F032
:10255000FDF810F0FF0FF8D101F0A6FAF5E700BF83
:1025600041492000C6742000D87420006800002073
:10257000860E0020FD7420005C7320001B75200077
:102580002175200027752000307420002E75200052
:1025900058742000357520007474200098000020C5
:1025A000E4722000B074200008B500F03FF900226A
:1025B000014B1A7008BD00BF120D0020024A1378AB
:1025C0001843107000F056B9120D0020034A13781A
:1025D00023EA0000107000F04DB900BF120D00207A
:1025E00008B50B4B1B7803420FD020280BD00428D2
:1025F0000BD10220074B80211A7800F09BFC20EAC7
:10260000E07000B208BD0520F4E74FF00040F9E7A4
:10261000140D0020130D0020802810B50C4605D0A5
:10262000B0F5807F27D04FF0004023E08B1E222B97
:10263000F9D8E34317490A681A400A60164A116834
:102640000B401360A20604D501220521002000F0F2
:1026500055FC630704D501220221002000F04EFC46
:1026600000F060FC302200200C4B1A700C4A1378EA
:102670001C43147010BDCCB2102C204602D004D8DC
:10268000002CD0D1054B1C70F4E7202CFAD0302C54
:10269000F8D0C8E720940D4000940D40130D0020A1
:1026A000140D002018B1012804D000207047034BFE
:1026B00018687047024B1878704700BF20900D4093
:1026C000150D002010B5094A00201378013313704E
:1026D000074B197802F088F8BDE81040054900233F
:1026E000054A0968054801F07DBF00BF150D0020AF
:1026F000880E002050010020C52620003001002057
:10270000812808B52BD0B0F5807F3AD0802824D11D
:1027100001F0FCFF1C4B1D4A18701368032123F0C5
:102720000803136052F8203C002023F0080342F80D
:10273000203C52F81C3C23F0080342F81C3C52F8A1
:10274000183C43F0080342F8183C042200F0D6FB82
:10275000032200210E4800F073FB012108E00D4B1D
:102760000D481A6831B142F008021A600123036073
:10277000084608BD22F008021A600123C0F8803024
:10278000F6E7064B1960E8E7880E002020940D401C
:10279000A127200010940D4000E100E0500100202E
:1027A00008B50F4804F034F9C8B108210C4804F00A
:1027B00023F90C4B196849B100220B4B1A700B4BD3
:1027C0001B6843B90A4A0B4801F00CFFBDE80840FA
:1027D000094802F055B9074801F00EFFF6E708BDB9
:1027E0002801002050010020150D002020900D40F0
:1027F000C526200030010020E4722000084A13683A
:1028000023F00403136052F8203C43F0040342F821
:10281000203C0022034B1A600122034B1A707047C0
:1028200020C40D4010C00D40160D00200D4A0E4969
:10283000136823F0C003136052F8203C43F0C00338
:1028400042F8203C0022094B1A600B6823F0100369
:102850000B6051F8203C43F0100341F8203C044B3E
:102860001A60704720A40D4020C40D4000A30D4005
:1028700040C00D4010F0020218BFFF22084B1A6042
:1028800010F0040218BFFF22064B10F001001A607E
:1028900018BFFF22044B14BF1A601860704700BFB6
:1028A00000A20D4000A10D4040C00D40044B18682F
:1028B000C0F30720030904BF1030C0B2704700BF47
:1028C0001C300D40054B1868C0F3C21001289ABF98
:1028D000C0F1020040034FF40040704714300D4037
:1028E0002DE9F047482588B0FFF7E0FF164B074673
:1028F0001C68AB6898476B68804698470546FFF7A9
:10290000E1FF064600F084FA814600F08DFA824627
:1029100000F03AFAB60A04F00103AD0AC4F3400429
:10292000CDE905A00393CDF810900294019600958F
:1029300007F00F03C7F307124146044801F086F978
:1029400008B0BDE8F08700BF1C300D40587520006E
:102950002DE9F04800F07CF8114B4FF0000BD3E963
:1029600000673A46B04238BF7A1C15464BEA00046D
:10297000C3E900450B49D1E900BCBBEB06026CEB97
:102980000703161943EB0507C1E9006701F094FD41
:1029900018B1BDE8F04801F013BDBDE8F08800BFF4
:1029A0002001002018010020E0210D4B0D4A5A6043
:1029B0000D4A82F82310002207219A6019600B4902
:1029C0000B6843F001030B60094B1A60042243F8C3
:1029D0000C2C012243F8082C0F22DA62704700BF4A
:1029E00010E000E047E8010000ED00E008200D40A5
:1029F0000C000340034BD3E90023100A40EA0360B4
:102A0000704700BF20010020054B18601C3B1A686E
:102A100042F001021A601A68D207FCD4704700BF66
:102A20002800034010B5064C236823F001032360FF
:102A3000FFF78EFF236843F00103236010BD00BF42
:102A400010E000E0014B1868704700BF54010020FF
:102A5000064B18685A6808331B681B0443EA0223B4
:102A6000034A0343106843EA0060704740500D403A
:102A70004C500D40014608B5104A1368DB07FCD5E1
:102A800072B6FFF7E5FF0B1A062BD8BFC11D0C4B22
:102A90000A0E1A60C1F3074243F8042CC1F307225F
:102AA00043F8082CCAB243F80C2C62B64FF400323B
:102AB000044B1960044B1A6108BD00BF50500D4013
:102AC0004C500D405401002000E100E008B500F03A
:102AD000D3FF0022064B1A604FF40032054BC3F8B7
:102AE0009021C3F89020BDE8084001F0C9BE00BFA6
:102AF0005401002000E100E0064B1B681B075FBF8C
:102B0000054B186880F00800C0F3C00048BF0020E3
:102B1000704700BF18C0004018D000402C23154A51
:102B200070B503FB00234FF6BF72DC680546236CCB
:102B3000626413F050020DD00F4EA369DB0600D57E
:102B400070BD56F825301BB12068C0B29847F4E735
:102B50002368F2E713F4D06FF2D04FF4407323638D
:102B6000FF236360E36AE262E362236B43F00103E5
:102B70002363E5E7F47220005801002001282DE9C5
:102B8000F74F064600F2B4802C2545435A4F7C1976
:102B900094F92080B8F1000FC0F2AA8094F9229035
:102BA000B9F1000FC0F2A480544800F0D7FF544A96
:102BB00079591368E5680B4313605368616894F9A9
:102BC00021A00B4353609368A1685FFA89FB0B4314
:102BD00093600023C5F8C83F23690AEBC8021A6056
:102BE00094F92330227D00939DF800305846194611
:102BF000019300F08DF9019B08221946584600F018
:102C00007DF901233F494FEA0939009A59F801003B
:102C100003FA02F2024349F801204FEA083858F853
:102C2000010003FA0AF2024348F801205022AA6385
:102C3000AA6B94F9240042F4D062AA6302226A6368
:102C40004FF440722A63A26900286A62E269AA62AC
:102C50004FF07002EA620D4614DB94F925102A4AFF
:102C600041EAC0041460020354598B40234353517A
:102C7000C9B20022C0B200F041F9244A136843F4FB
:102C8000004313602C2303FB067393F92640002CAA
:102C90001BDB93F927A05FFA84F85FFA8AF9012217
:102CA0004946404600F034F901232403625903FAEF
:102CB0000AF31343635108224946404600F01EF9C7
:102CC000124A136843F4804313602C2303FB0676F7
:102CD000F268136B43F001031363012296F8283066
:102CE000590903F01F0302FA03F3094A42F821309D
:102CF00003B0BDE8F08F00BFF4722000F92A200075
:102D000028200D4020940D4004410D4030D000405B
:102D100000E100E001289CBF014B43F82010704700
:102D200058010020012808D82C22044B02FB003057
:102D3000C3689A699206FCD419607047F472200047
:102D40000022014B1A60704700500D400822014BD1
:102D50001A60704700500D40A022024B1A605022AA
:102D60001A60704700500D40014A024B9A6070474C
:102D70000020200000ED00E0024B1868C0F38150F5
:102D8000704700BF04200D4008B5FFF7F5FF024B68
:102D900053F8200008BD00BF4C73200038B5164D15
:102DA000164C2B68012223F040032B602368062178
:102DB00023F040032360032000F0A0F82B680122D9
:102DC00023F080032B602368072123F08003236016
:102DD000032000F093F80A4B0A4A0B491A600B4A89
:102DE000134610680842FCD11A685101FCD41A68D5
:102DF0005201FCD538BD00BF20C40D4000C40D40B9
:102E000000200D40010102000000010104200D40DE
:102E1000034B04481B6803F007031841704700BFC9
:102E200004200D400048E801034B04481B68C3F32D
:102E300002231841704700BF04200D400048E801FC
:102E4000024B02EBC10243F82200704760010020F0
:102E5000F8B507460E460024084D05EB411547FA24
:102E600004F3DB07E1B204D555F824300BB130464A
:102E700098470134082CF2D1F8BD00BF6001002052
:102E80002DE9F04780464FEA0837DFF8409007F118
:102E9000804505F5592500F0EFFDD5F8186457F881
:102EA00009404FEAC80A24FA0AF446EA0400E4B2E8
:102EB0004146C0B2F6B204FA0AF4FFF7C9FFC5F8FA
:102EC0001C6447F80940BDE8F08700BF18970D4023
:102ED00080220021014803F061BC00BF6001002096
:102EE000034B044A1A60044B803A1A60704700BFD3
:102EF000E001002080400D40E4010020034B01EB85
:102F0000C0011B6843F82120704700BFE00100208A
:102F1000034B01EBC0011B6843F82120704700BF41
:102F2000E4010020024A136843F030031360704745
:102F300000700D400E2870B50BD1154B154E1C6856
:102F400044F002051D60356825F03F0343F001039E
:102F50003360114E336823F0FF031A4311430143DA
:102F60000E4A316013681B06FCD50D4B0D4A1B68D9
:102F700012680E2803F0FC0343EA022308BF054A47
:102F80001BB204BF1560024A184608BF146070BD2A
:102F900034000144F486084008700D4000700D4074
:102FA0000C700D4010700D40024B1868B0FA80F0A4
:102FB0004009704700B708404FF40042064B10B577
:102FC000064CC3F89021C3F89020206818B101F096
:102FD0004BFC0023236010BD00E100E0E80100206D
:102FE000064A136843F002031360536843F0020378
:102FF0005360936843F002039360704748200D408C
:1030000007B50C4800F0AAFDFFF7EAFF0A4B1A6863
:1030100042F002021A6000220192019A0F2A06DD94
:103020001A6822F002021A6003B05DF804FB019AEC
:103030000132F1E7A92F200054200D40064A136801
:1030400023F002031360536823F002035360936874
:1030500023F002039360704748200D400B4B1A6821
:103060009207FCD41B685B065FBFED22084B1A6019
:103070001A60084B1B6813B1EF22054B1A60064A11
:103080000120137803F07F03137070474C860840CB
:10309000388808402C860840190D0020044B186819
:1030A00000F02200A0F1200358425841704700BFB1
:1030B0004C860840024B186800F04000704700BF83
:1030C0004C860840204B1870002832D01F4A1368E5
:1030D0001B03FCD51E4B1A6842F002021A601A68E4
:1030E00042F001021A601A685007FCD51A6822F0F3
:1030F00001021A601A685107FCD41A6842F00202F1
:103100001A601A6842F001021A601A685207FCD568
:10311000104A136823F004031360D2F8A83123F097
:103120000403C2F8A8314FF400520B4BC3F89020AF
:103130007047084A136843F0040313604FF40052C9
:10314000054B1A61704700BF180D002004200D4088
:10315000048808408C86084000E100E0084B93F9A1
:103160000020002A09DBED21064A11601160E321ED
:1031700011601A7862F07F021A700120704700BF58
:10318000190D002038880840A0F10B01CBB20F2B9D
:1031900010B5044613D80B4B1B6813F03F0302D045
:1031A000FFF75CFF012301EB8101074A0B3111603E
:1031B0000BB1FFF7D3FF054B60B21C7010BD4FF091
:1031C000FF30FBE7488608403C8608401601002097
:1031D00010B50C46002900F08680102800F285808A
:1031E000DFE800F009101B22243B44575C72768311
:1031F000837B7D547F003E4B1B68003318BF012347
:10320000236024E005223B4B1B6803F07F030B3B4C
:1032100093FBF2F30B33DBB2F2E7374B1A68043B54
:103220001B6843EA0223EBE7344BF7E700230B600C
:10323000334B344A1B6803F001030B60126890069D
:1032400044BF43F002030B602F4B1B780BB90020E7
:103250000BE00B6843F00403D2E700202B4B08601F
:103260001B78002BF3D001230B6010BD284B29499C
:103270001A680023D2B201EBC3000079904202D851
:1032800051F83330BCE701330E2BF4D16FF0170344
:10329000B6E7214B1B685BB2493BB1E71F4B1B688C
:1032A00099060FD1FFF75AFF01231D490A68D2077B
:1032B000FCD51C4A1168493949B20BB1FFF7CEFE63
:1032C0002160C4E70023F0E7174B93F9003097E73C
:1032D000164B1B7803F07F0392E70B2390E71A232A
:1032E0008EE707238CE70220BFE70120BDE700BF80
:1032F0002C8608403C860840CC850840D485084090
:103300000086084024860840180D00201701002080
:10331000408608409473200058860840488608403C
:1033200064860840608608401A0D0020170D0020B2
:1033300008B50B4B1B6899060FD1FFF70FFF012350
:1033400008490A68D207FCD5074A1168C1F3001181
:103350000BB1FFF783FE084608BD0023F0E700BF6E
:1033600048860840648608404C86084010B5072807
:1033700061D8DFE800F0040F1A212541475B0129DD
:1033800003D1FFF7EBFE00203BE0002955D1FFF70A
:1033900065FEF8E7A1F10B030F2B4ED8C8B2FFF77B
:1033A000F3FE0130EFD103202BE089B2244BCAB2E7
:1033B000090A1A605960E6E789B2CAB2214BF7E7F9
:1033C00031F0070339D1204B11F0010F1A68C1F316
:1033D000800014BF42F0010222F001021A601B4B70
:1033E00011F0020F1A6814BF42F0200222F02002EE
:1033F0001A60FFF767FEC6E731F001001DD1144BDC
:10340000197010BD01F118031F2B16D80D23114A96
:1034100052F83340D800A14204DC024412790E4B2A
:103420001A60B0E713F1FF33F2D2ACE7C9B20B4B2D
:1034300049311960A7E70120E3E70220E1E700BF77
:10344000C8850840D085084000860840248608408A
:1034500017010020947320004086084058860840D9
:1034600038B505460C46134A13689B07FCD4124B2B
:1034700093F90030002B01DBFFF770FEEE220F4BBB
:10348000691E1A601A60A21C43F8102C2144022005
:1034900000F080FA0A49013C41EA0411022000F0E0
:1034A0008BFA022000F092FA022000F0A7FA002026
:1034B00038BD00BF4C860840190D002038880840F0
:1034C00002C001C0F8B5224B93F90030002B18DB85
:1034D000FFF7BEFA0446FFF741FEC4F1FF2404F5EE
:1034E0007F04F634FFF7B4FAC442FBD40126194B2B
:1034F0001B7843B9184C2368990609D50221084660
:10350000F8BD0026F3E7FFF713FF0028F2D1F5E737
:10351000E9230427114D2B6023689A0703D4013F48
:1035200017F0FF070BD123689B070CD4EE23012172
:103530002B602B60002EE2D0FFF790FDDFE7062026
:10354000FFF762FAE8E7216811F00201FBD1F1E729
:10355000190D0020170100204C86084038880840CB
:103560000B280DD1082A0DD161B1074B074A08314C
:1035700011F8010D43F8040B9342F9D10020704774
:103580000120704702207047A8850840C885084080
:1035900070B5304E336813F0400358D02E4D2C6870
:1035A000230605D5ED2200202C4B1A601A6070BD51
:1035B000E4B2042CF6D9023C8C42F3DCE4B2032CD6
:1035C0001ED12B6803702B6843702B6883702968A9
:1035D000234B493949B219702B68224D18062B70BC
:1035E000E0D589B2042001F09DFD2978032001F087
:1035F0007F0101F097FD1C4B1B78CBB12046D6E72D
:1036000001190139032000F0CDF9184B611E43EA7E
:103610000111032000F0D0F9032000F0D7F90320B6
:1036200000F0ECF9032000F0F5F90028FAD1CEE71C
:1036300033685A06E2D533681B0603D50C4801F0FF
:1036400013F9DBE7ED22054B1A601A60D6E718463E
:10365000ADE700BF4C8608402888084038880840FD
:103660001A0D0020170D0020180D002002C0010CBB
:1036700050000020F8B5294F3D7815F001054BD1D9
:103680000124F822264B7F261C605C609C60A3F519
:103690009323A3F514731A600922C3F8902115220D
:1036A00070331A600B2203F59B2303F59E731A6097
:1036B0004022A3F59B23A3F5F0731A601A6842F029
:1036C00020021A60D52243F81C5CDE62DA61154BD9
:1036D0001878FFF759FD4FF48042134B02201E600B
:1036E000124B1A6100F07EF91149022000F05AF9DC
:1036F000032000F077F90E49032000F04BF90D4B41
:103700001878FFF7DFFC0C48294601F095F82046B1
:103710003B7823433B70F8BD0020FCE7190D0020E7
:10372000A8200D40160100209486084000E100E02A
:1037300028880840180D00205000002038B5038864
:10374000044653B340F20342934233D11B4B1878E3
:103750001A4638BB822923D1137873B901F094FC3F
:1037600001F022FC8021FFF713FF002805DD80B265
:1037700001F0DAFB124B1B699847124B1A7852067C
:103780000BD500221A70104B1D68FFF767FCFFF77E
:1037900071FFAB0601D0FFF7E1FC40F20343238049
:1037A00001200AE01B78002BFAD0064B1B78580644
:1037B000F6D5CFE700230380032038BD180D002085
:1037C00074742000190D0020488608400B282DE94C
:1037D000F74F8A4613D1082A40F08680002900F06E
:1037E0008380424B424A01F1FF3A53F80419934255
:1037F0000AF8011FF9D1002003B0BDE8F08F0C28B2
:1038000070D1042A70D100296ED03A4A3A4913681F
:10381000DFF8F09023F0070313600B68DFF8E8800F
:1038200043F008030B60D9F80030D8F80040106866
:10383000DFF8D8E0DFF8D8C020F070001060DEF8C4
:103840000000DCF80050DBB2240243EA0563A4B2B6
:103850000004234300F47F00034328480668F4B2C1
:10386000019400240094DDE9006746EA030613682A
:1038700023F0070343F0010313600B6843F00803D0
:103880000B60D9F80030D8F800101568DBB225F0CD
:10389000700545F010051560DEF80020DCF80050DA
:1038A000090243EA056389B212040B4302F47F0262
:1038B000134302680098D1B2894640EA0308FFF733
:1038C000C7F8B6EB080667EB0907F90305460C4A8B
:1038D0000023F00341EA564102F036FD281ACAF8E7
:1038E000000088E7012087E7022085E7C4850840BB
:1038F000A485084010880840048808401C880840B7
:103900000048E801148808401888084024880840C6
:103910002088084008B5054B1B7813B9044800F00F
:10392000A3FF0022034B1A6008BD00BF180D002042
:103930005000002034880840064B07481A68042AC3
:103940001FBF06490A7842F040020A7000221A603E
:1039500000F08ABF2C88084050000020190D00207C
:1039600008B5094B40220021184602F017FF01213B
:10397000064A074B116050604FF480425A604FF482
:1039800000425A6008BD00BF0000002004F00F4054
:1039900000E100E003289EBF014B00011950704771
:1039A0000000002003289EBF024B03EB0010416083
:1039B000704700BF0000002003289EBF024B03EBAE
:1039C00000108160704700BF00000020032806D867
:1039D0000123034A03FA00F011680843106070479E
:1039E00028F00F40032806D80123034A03FA00F009
:1039F000116808431060704720F00F40032806D874
:103A00000123034A03FA00F011680843106070476D
:103A100014F00F4003289FBF044B03EB0010806895
:103A200000F0070088BF0020704700BF00000020A2
:103A30004FF0FF32014B1A60704700BF04F50F4092
:103A40000122014B1A6070474CF00F40084B194699
:103A50001A68D002FCD4074B1A6822F480321A602C
:103A60000A68D203FCD41A6842F400321A60704724
:103A700004200D4000200D4010B5094C226890072D
:103A80000DD0084B1A4619684901FCD413685B0134
:103A9000FCD5FEF7C7FFFFF7D9FF0023236010BD59
:103AA00058200D4004200D4038B5264B1C6814F0FA
:103AB0003F0414D1244D55F8243023B1984770B1F8
:103AC0000134052CF7D1214D2B7843B1FEF7BAFF15
:103AD0000446FEF7BDFF201A092800D90CB930BFF3
:103AE00027E01B4B1A6822F400321A60194A11466B
:103AF0001068C002FCD41A6842F480321A600B6865
:103B0000DB03FCD5FEF7A4FF201A092803D8BDE883
:103B10003840FFF79BBF63280F4C0BD92B78022B43
:103B200008D1236000F056FE30B1FFF78FFF00236D
:103B3000236038BD0123F4E7FEF784FF0028CED1CF
:103B4000F3E700BF48860840EC0100201B0D002071
:103B500000200D4004200D4058200D400023064A4F
:103B600052F82310814206D011B942F82300704761
:103B70000133052BF4D17047EC0100200022054BE6
:103B800005491A600B6943F004030B61034B1A707B
:103B9000704700BF58200D4000ED00E01B0D0020D5
:103BA0004FF48032064B10B5064CC3F89021C3F891
:103BB0009020206818B100F057FE0023236010BD4C
:103BC00000E100E00002002070B51C4B1B787BBBBD
:103BD0001B4A1278122A2CD11A4A12784B2A28D161
:103BE0004A0802F52013184D2733441EAB420ED16C
:103BF000002301F520142734851893420CDB03239E
:103C0000014401F8013C002301F8023C70BD13F8A7
:103C1000016904F8016FE9E7E61A3678EE540133DA
:103C2000EBE7D41A2478C45401338B42F9DBE6E77E
:103C3000002301F520122732F7E700BF2B002800F0
:103C40002A00280029002800270028000FB407B503
:103C500004AA52F8041B0448019200F021F803B0B2
:103C60005DF804EB04B070476000002070B50546B5
:103C70000C460A4E102C07D874B12B68224668688F
:103C80000649BDE8704018472B6810223146686825
:103C9000984710B9103CEDE7204670BD43762000F0
:103CA0002DE9F04F0746144600258FB00791079B7A
:103CB0001B78B3B1DDF81C8000E0B046464616F82C
:103CC000013B0BB1252BF8D1079B98450ED0A8EBF3
:103CD00003094A463B6807997868984728B14FF02E
:103CE000FF3528460FB0BDE8F08F4D4498F80030FE
:103CF000002BF6D098F80130002BF2D04FF0000ADC
:103D0000314611F8012B33462B2A16D00AD8202A27
:103D100016D0232A17D0A2F1310008283FD84FF03F
:103D2000000918E02D2A04D0302AF4D14AF0100AF4
:103D300001E04AF0010A0E46E2E74AF0060AFAE715
:103D40004AF0020AF7E74AF0080AF4E70A2303FBFD
:103D50000929A9F13009334616F8012BA2F13001E7
:103D60000929F3D91A782E2A35D159785A1CA1F18C
:103D70003000092828D8002611781346A1F1300018
:103D8000092802F101021AD91A786C2A40F09280AF
:103D90005A786C2A22D14AF0800A023321E02A2A7A
:103DA0000AD1D4F800900B46B9F1000F04F10404D5
:103DB000B8BF4AF0010AD5E74FF00009D2E70A235D
:103DC00003FB0616303ED7E72A2903D126680233C3
:103DD0000434D9E713464FF0FF36D5E701334AF0F4
:103DE000600A1A78642A00F0928000F28580462AE0
:103DF00000F0AF8071D8252A00F0C08066D8002A74
:103E00003FF46FAF013307930AF4E063B3F5806FBB
:103E100000F0568200F2B580B3F5807F00F0EA80B2
:103E2000B3F5407F7FF443AFAF4B1AF4804FAF4AF6
:103E300018BF1A460DF1330300211E4620680434D2
:103E400050EA010C40F07482F61A04BF302203F8E5
:103E5000012C4FF0780208BF03F1FF3303F8012C67
:103E60004FF0300208BF012603F8022C232203364C
:103E7000B1458CBFA9EB06094FF000091AF0010A01
:103E8000A3F1030803F8032C06D149463846FFF78F
:103E9000EDFE00287FF423AF3B6832464146786848
:103EA000984700287FF41BAF3544BAF1000F00F0AB
:103EB0003682ACE1682A94D15A78682A02D14AF055
:103EC000200A6AE701334AF0400A8AE7412A4CD0C7
:103ED000452A97D14AF4424A94E7582A33D004D865
:103EE000472A8FD14AF4A13A8CE7612A3AD0632A53
:103EF00088D14AF4A06A85E76E2A3CD00AD8662A9F
:103F000024D029D3672A2AD0692A7FF47BAF4AF4C8
:103F1000245A77E7732A2BD007D86F2A10D0702A3B
:103F20007FF470AF4AF4407A6CE7752A05D0782A9E
:103F30007FF468AF4AF4C85A64E74AF4106A61E74C
:103F40004AF4885A5EE74AF4B24A5BE74AF4007AD8
:103F500058E74AF4844A55E74AF4024A52E74AF4D9
:103F6000813A4FE74AF4C13A4CE74AF4E13A49E76B
:103F70004AF4806A46E74AF4E06A43E74AF4C06AD2
:103F800040E7B3F5C06F2BD0B3F5E06F00F0DF81F1
:103F9000B3F5A06F7FF48BAEB9F1010F38BF4FF0CE
:103FA000010923681AF0010604F104048DF8203099
:103FB00009F1FF3807D141463846FFF757FE002880
:103FC0007FF48DAE45443B68012208A97868984784
:103FD00000287FF484AE002E00F0A181414617E155
:103FE0003B68012242497868984700287FF477AE01
:103FF00001355CE6002EACBF2AF0100A01261AF447
:1040000000520AF0E003069243D0402B3AD009D880
:10401000002B3AD0202B11D000220023CDE9002321
:10402000002319E0602B30D0802BF5D1073424F029
:10403000070303F10804D3E9002303E094F9002007
:10404000D3170434002A73F10001E7DA524263EB1C
:104050004303CDE90023012305930AF4C053B3F5CC
:10406000805F00F0EB80B3F5C05F00F0EC80B3F54B
:10407000006F40F00381DDE900230DF1360BCDE93F
:10408000022348E0B4F90020DAE722680434D317A9
:10409000D8E7402B1FD009D8FBB1202B14D0002328
:1040A000002205930023CDE90023D6E7602B14D02E
:1040B000802BF4D1073424F0070303F10804D3E97B
:1040C0000023CDE9002304E022780023CDE900237A
:1040D0000434069BC0E72288F7E7236800221946CC
:1040E0000434CDE90012F4E76376200074762000F2
:1040F00094762000DDE902010A22002302F024F96F
:10410000DDE9020130320BF8012D00230A2202F012
:104110001BF9CDE90201DDE902231343EAD10DF1D8
:104120003603A3EB0B030293029B41F608029E4267
:1041300088BFF61A41F208030AEA020298BF002675
:104140009A4202D1002E08BF012641F60801029BC7
:104150008A42334440F09680DDE900120A4300F0C1
:1041600091807D491AF4804F7C4A08BF0A464FF07F
:1041700002080092069A82B1059A002A40F08780D0
:104180000AF00602022A00F08780062A744A009983
:1041900004BF11464FF001080091434499458CBF7C
:1041A000A9EB03094FF000091AF00103059304D1AC
:1041B0001AF0100F74D04E449946D7E90030B8F188
:1041C000000F05D042460099984700287FF487AD3C
:1041D000B246029B1D44BAF1100FD7E9003066D8F1
:1041E000BAF1000F05D052465E49984700287FF487
:1041F00076AD3B68029A594678684544984700284E
:104200007FF46DAD059B3544002B00F08880494656
:104210003846FFF72BFD002800F081805FE502F0B3
:10422000070130310BF8011DD10841EA4371D8086C
:104230000A46034652EA0301F1D170E7DDE90023A3
:104240000DF1360BF6E7484B1AF4804F0DF1360BA3
:10425000464918BF1946DDE9002352EA03003FF43E
:104260005EAF02F00F00085C4FEA131C0BF8010D63
:10427000100940EA037002466346EEE70DF1360B83
:10428000002350E74FF00008CDF8008072E74FF0B0
:104290000108374A009280E74FF00108354AF9E7F4
:1042A00049463846FFF7E2FC002886D017E5102281
:1042B0002C49984700287FF412ADAAF1100A8AE72A
:1042C000D4F800B00434BBF1000F2CD0D84698F8D5
:1042D000003008F1010223BBA8EB0B08002E02DB23
:1042E000B04528BFB046C1458CBFA9EB08094FF0C7
:1042F00000091AF0010606D149463846FFF7B6FC18
:1043000000287FF4ECAC3B684246594678689847F1
:1043100000287FF4E4AC4544002E7FF478AF4D4490
:10432000C5E49046D3E7DFF850B04FF00608D5E774
:1043300000F00F0C12F80CC04FEA111E03F801CD6B
:104340004FEA101C4CEA017C6046714678E5236810
:1043500004341D60ABE400BF857620008876200021
:104360008B76200053762000637620007476200040
:104370007B772000337520008D76200010B50E4C21
:10438000236813B90D4A136010BDFEF733FB216893
:10439000D1E9002313448A681B1A1AB91844074B41
:1043A0001860F1E7D2E900142144091A8B4228BFB2
:1043B0000B469268F1E700BF0802002004020020CB
:1043C000014800F051BA00BF680000202DE9F84311
:1043D0000388054653B1592B47D1872920D10020A6
:1043E00024490B6863B918B10B6001E0214A1360DE
:1043F000592301202B80BDE8F88301203346F1E7E3
:10440000D3E902649442F8D000B10B6099680029A6
:10441000EED0C86890420ABF89680B469960F5E7FC
:104420008229E5D1134F4FF00009B84600263C68B9
:10443000002CDDD0204602F0EBFA98B1224688210C
:10444000E06800F0D1F958B9E060A3682EB1B3601C
:10445000C4F80890FFF792FFE8E7C8F80030F7E7E4
:10446000FFF7AEFF2646A468E2E70023038003209F
:10447000C1E700BF0802002010B50446FFF7A0FF07
:10448000E3680B4A0BB1136833B90A4B1B68E3604E
:1044900013681460A36004E0A34206D1054A1268C1
:1044A000DA60BDE81040FFF769BF9B68ECE700BF2A
:1044B0000802002090030020024B1868003018BF4B
:1044C000012070470802002010B50B4A044613680B
:1044D000834208D183681360FFF750FF0023C4E9CB
:1044E000023310BD1346002BF8D09A68A242F9D1CE
:1044F000A2689A60F0E700BF08020020F8B50388C0
:1045000006461546CBB14A2B2BD188291FD1174817
:1045100002F08FFA0446C4B1231D9D421FD12146EB
:10452000124802F090FA124D62692F682A60A2695F
:104530000AB1E06990472F6007E00C4802F079FA71
:10454000044634B901220B4B1A704A2333800120F0
:104550000AE0A168201D02F030FA2468F1E724681F
:10456000D9E7002303800320F8BD00BF0C02002020
:10457000900300201C0D002010B50024054B0648B8
:104580001C7002F053FA2146BDE81040034800F0C9
:1045900053B900BF1C0D00200C0200207800002041
:1045A00070B50446E3610B4B049D1B78C4E90552CA
:1045B0006BB1094D094B2E68201D2B6002F0FDF9EF
:1045C0002E602146BDE87040054802F04FBAA16058
:1045D000F7E700BF1C0D00209003002078000020AA
:1045E0000C02002013B5034C24680094FFF7D8FF99
:1045F00002B010BD9003002010B5084B04461B7894
:1046000043B10430FFF760FF2146BDE81040044885
:1046100002F019BAC0E90333F6E700BF1C0D002011
:104620000C02002038B5836804460D469BB10A4849
:1046300004600220A07304F10C009847023801289E
:1046400001D9832D05D121462046BDE8384000F030
:1046500005B80123A37338BD900300202DE9F8436A
:104660001C4F89463D682C46844204D00CB9BDE8F5
:10467000F8832468F8E7002CF9D0174EA37BD6F80E
:10468000008063B10023A3738DB9A3683BB14C458F
:1046900005D034602A46832104F10C0098473B681A
:1046A000A3420ED123683B60C6F80080DFE7AC422E
:1046B00004D022468721284602F096F92D68E3E7C8
:1046C0001346002BF0D01A68A242F9D122681A6072
:1046D000EAE700BF9403002090030020002238B5D1
:1046E0000125084B1A70084B1C6804B938BDE37BE0
:1046F0002BB1E581002282212046FFF793FF246839
:10470000F3E700BF200D002094030020024B18782F
:10471000421C1A70704700BF1E0D00208A22064BF3
:104720001A700023054A1370054A1370054A136076
:10473000054A1360704700BF1E0D00201D0D0020AC
:104740001F0D002094030020900300202DE9F0416C
:104750001B4D2B780BB1FFF7C1FF1A4C22789AB191
:104760000C21194E194F3378013A59430133781807
:1047700003F01F0317F801803370D0E90170227035
:1047800090B9134B1E6826B92B7820781844BDE8E1
:10479000F0812B780BB1FFF7A1FF30463A46414636
:1047A00002F022F93668EEE7B8F1810F08BF012365
:1047B0003A4608BF8373414602F016F9E4E700BFAA
:1047C000200D00201F0D00201D0D002010020020D4
:1047D00094030020024A034B10781B78184470475A
:1047E0001F0D0020200D0020F0B50B4E3378202B3C
:1047F0000FD00C25094C0A4F24781C4404F01F04E8
:104800006C433D19C5E9012000200133395533704F
:10481000F0BD0120FCE700BF1F0D00201D0D002092
:104820001002002038B5034C256802F0DDF8256041
:1048300038BD00BF9003002030B40A4C0A462568FA
:104840002B4683420CD04BB950B1012105608173D6
:1048500020608381812130BCFFF7E4BF1B68F0E753
:1048600030BC70479403002038B1837B013B012B9F
:104870009FBF0123014AC37313707047200D0020AE
:1048800010B5084C206858B100232360D0E90131ED
:104890009847236823B1BDE810401868FEF7EAB8CE
:1048A00010BD00BF9803002070B505880446672D31
:1048B00009D0792D2FD0002D33D1FFF727FF1B4BC7
:1048C00018701B4B1D601B4E194D08E00A282B6801
:1048D0000ED07E2B03DC5A1C2A60174AD054304677
:1048E00002F045F9431CF1D16723238001201BE02E
:1048F0005A1C2A600025104A2846D5540B4B1978BB
:10490000FFF772FF0D4B2A4685211868FFF76CFFF1
:1049100018B97923E9E78529E8D10022044B1A6008
:10492000D1E700230380032070BD00BF8D0E00205F
:104930009C030020A0030020210D002090030020F4
:104940000D2810B5014616D00C4C237853B90C48ED
:1049500002F0FAF808B9012323700A48FFF784FF30
:10496000012010BD0A28F8D1054802F0EDF8002812
:10497000F3D00023F0E70020F3E700BFA10D0020F3
:10498000A00300208800002008B5054905488022C2
:1049900002F0D3F8BDE8084000210348FFF74CBF00
:1049A000A20D0020A0030020880000202DE9F04186
:1049B00004880646772C20D07E2C3DD0002C4ED18A
:1049C000FFF7A4FE284D294B294FDFF8B08018705F
:1049D0002C602B6857F823202AB9264A13707723B6
:1049E000338001203EE008F80340936800218020D6
:1049F00098472B6801332B60EBE700231E4A1360B6
:104A0000194A1360184B1B4A1B6812789A4204DC3F
:104A1000194B1B68002BF0D1E1E7184AD256002A47
:104A200019DA134A002052F82320104B1978FFF7A7
:104A3000DBFE28B97E23D3E70C4B1B788B42D0D109
:104A4000094B0E491A688B5C03F07F038B540A4AAA
:104A5000136801331360044A13680133D1E700235C
:104A600003800320BDE8F081AC0300208E0E0020FF
:104A700040000020220E0020A8030020890E002004
:104A800010B40A4B0A491A780023934203DA51F80A
:104A90002340A04208D107490748CA5C62F07F0260
:104AA000CA5410BCFFF7E0BE0133EEE7220E00202F
:104AB00040000020890E002098000020064A13685C
:104AC00043F004031360054B186804331B6840EA85
:104AD000032080B2704700BF00700D4014700D407D
:104AE00010B5174A136823F00C0313600122154B0D
:104AF0001A601A68012AFCD10822134B13491A6064
:104B0000E32203F505731A601A460B68DB07FCD530
:104B10000F4C102100232068013900F0010043EA06
:104B200000034FEA43039BB2F5D1002BF1D00949B2
:104B3000180A03F0FE0308600B60EF23136010BD3A
:104B400000700D40A8200D4024860840648608406F
:104B50009C86084014700D400378407840EA03209A
:104B6000054B00FA01F1985CC2F1080200EA21202D
:104B70001041C0B2704700BFC7762000F8B50646A6
:104B80000A480D46174601F054FF044630B93A462C
:104B900029463046BDE8F84002F08FB9A3680BB152
:104BA00028469847204601F07DFFEEE7B00300203D
:104BB00038B500F09FF80546094801F03AFF044671
:104BC00028B95DB12846BDE8384002F071B9636884
:104BD00003B19847204601F065FFF0E738BD00BFFC
:104BE000B003002010B5044600F092F838B100F090
:104BF000B7F9034B034821469B689847012010BD35
:104C0000A07420007D4B200070B50B4C0023616E1A
:104C10000A4A04F13800FFF7E5FCFFF74FFF616E29
:104C20000023B0FBF1F5064A05FB110104F1180061
:104C3000BDE87040FFF7D6BCB4030020454C20000F
:104C40005D4C2000044B5A6E196E5200914294BF85
:104C500059665A66FFF7D8BFB403002010B500F0BC
:104C600013FA00F0A1F900230380044600F0C6F80F
:104C70002288930008B1017B51B9981C80B200F0E2
:104C800053F9238873B1BDE81040074800F08CB891
:104C9000818823445980C18801329980228001F0A3
:104CA00001FFE5E710BD00BFB40300209DF8003010
:104CB000012B04D1024B9A6D5A66FFF7A5BF7047CE
:104CC000B4030020F8B50F4616461D46064C0146B3
:104CD000064A204600F056F8C4E9167625660448D0
:104CE000BDE8F84000F084B8B40300203C74200014
:104CF000AD4C2000054B10B51B689847044618B111
:104D00008188012000F00EFA204610BD2474200096
:104D100038B5064B05465B6898470446A9880120CC
:104D200000F000FA201C18BF012038BD24742000B8
:104D3000014B9B68184700BF24742000014801F014
:104D400075BE00BF2004002081800146014801F0AB
:104D50008DBE00BF200400200146014801F073BE53
:104D60002004002010B50446054801F062FE00B999
:104D700010BD8388A342FBD001F094FEF7E700BF8B
:104D80002004002070B505460C461646044A00F083
:104D900019F86E612046BDE87040024902F060B823
:104DA00044742000D576200010B5044604491A202A
:104DB00000F0C6F92046BDE8104002F077B800BF09
:104DC000860E002070B505460C461646FFF7BCFF60
:104DD0002E612046BDE87040014902F041B800BF95
:104DE000D9762000014801F021BE00BF2404002034
:104DF000014B1860704700BF28040020014801F0F3
:104E000018BE00BF240400202DE9F04106460C48DE
:104E10000C46174601F00DFE08B9BDE8F081838805
:104E2000A34209D18568002DF7D03B462246314682
:104E3000AC46BDE8F041604701F034FEECE700BF4E
:104E40002404002008B5044801F02FFEBDE8084006
:104E5000024801F02ABE00BFB4000020A8000020D4
:104E600038B50E4801F031FE054650B10C4801F04E
:104E70002CFE0446286030B92946084801F039FE66
:104E80002546284638BD00F097F804F1B601A4F88D
:104E9000800004F1820000F01DF9F2E7A800002074
:104EA000B400002010B501460446074801F037FE63
:104EB00048B12168054801F01CFE2146BDE81040BC
:104EC000014801F016BE10BDA8000020B40000206B
:104ED00010B501460446094801F021FE68B1246876
:104EE000B4F88010204600F0DFF804F1B60104F1B8
:104EF0008200BDE8104000F001B910BDA8000020FC
:104F000010B507490B88834208DB064C80B2228823
:104F10000244181A08800120228010BD0020FCE7FE
:104F20000C0D00200E0D0020014B1880704700BFB3
:104F30000C0D0020004870474C040020014B1888DD
:104F4000704700BF0C0D0020034A044B10781B78FB
:104F50001844C0B2704700BF330E00200E0D002071
:104F60002DE9F0410C4F3A8872B100240B4B0C4EE6
:104F7000B3F800800B4B1D78354421B2414504F154
:104F8000010403DB00233B80BDE8F081FFF7DCFF79
:104F90003044435C6B54F0E70E0D00200C0D0020F4
:104FA0004C040020330E002008B5FFF7CDFF014B65
:104FB000184408BD4C040020F8B50C4B05461E787B
:104FC0000B4B1F88F419802C0DDC3246094901F087
:104FD0006FFBFFF7E9FF354401463A46284601F0EA
:104FE00067FB2046F8BD0024FBE700BF330E00201E
:104FF0000C0D00204C04002008B5FFF7A5FF024B64
:105000001B88184480B208BD0C0D002010B5014665
:10501000FFF7F2FF4318802B0FDC094B013800B279
:105020005A18040405D5074B187808441870012055
:1050300010BDC45C14540138F3E70020F8E700BF4A
:105040004C040020330E002038B50C4D0C4C34229B
:1050500000210C4801F0A2FB2946204601F05BFF2D
:105060002946A01C01F057FF2946201D01F053FFDF
:105070002946A01DBDE8384001F04DBFC474200092
:105080004A0E0020520E00200023044A1380044AD6
:105090001380044A1370FFF7D7BF00BF0E0D002026
:1050A0000C0D0020330E002038B50C460546FFF7E6
:1050B000EBFF802C28BF802429462246034801F0BC
:1050C000F7FA034B20461C8038BD00BF4C0400207B
:1050D0000C0D002010B5074B03F1340253F8044BBC
:1050E000934240F8044BF9D1034A13680B605368AC
:1050F0004B6010BD520E00204A0E002010B5074B29
:1051000000F1340250F8044B904243F8044BF9D1BB
:105110000B68034A13604B68536010BD520E0020A9
:105120004A0E0020024B23F810100120704700BFE8
:10513000520E0020014B33F810007047520E002031
:1051400008B5044B1A3803EB400001F0E4FE0120DF
:1051500008BD00BF4A0E0020024B1A3803EB400086
:10516000704700BF4A0E00200149024801F0D6BE38
:10517000C47420004C0E0020084B10B51B689847E3
:10518000074B5B689847074B5B689847064B5B6823
:105190009847BDE81040054B5B6818475C732000DA
:1051A00074742000A0742000587420003074200013
:1051B0002DE9F041FDF71EFC002504460C27DFF821
:1051C0003C8007FB05861A20FFF7C6FF314601F039
:1051D000A5FE70B10A20FFF7ADFF337A83420BD1F1
:1051E0007068201AB0F5206F8CBF00200120BDE848
:1051F000F0810135102DE4D10020F8E7CC04002027
:10520000F8B5164E002537460C241A20FFF7A4FFE8
:1052100004FB056101F082FE013508B9102DF3D1C0
:1052200004FB05F30C3B0FD10A20FFF783FF387214
:10523000FDF7E0FB78601A20FFF78EFFBDE8F8402D
:105240000146064801F067BE9819014651F80C2D39
:105250009A514A6842608A688260E3E7CC04002081
:1052600030B591B0054600F04DFA4FF6FF73984205
:1052700004D14FF0FF34204611B030BD4022002150
:10528000684601F08BFA404B1A782AB901221A704D
:10529000FFF714FC3D4B18701420FFF74BFF8DF8FF
:1052A00010001320FFF746FF8DF81200FFF75CFF98
:1052B0000446002848D000238DF813308DF81530AF
:1052C000002301248DF814308DF818404DB10A20C8
:1052D000FFF730FF00283FD00A20FFF72BFF8DF8A3
:1052E0001A0002248DF8194000F00CFAADF81C00E9
:1052F000FFF73AFF00283CD04FF6FF738DF81740B8
:10530000ADF8003000F0FEF9ADF81E001A20FFF7EE
:1053100023FF014602A801F0FEFDFFF745FE0E90B7
:10532000FFF70CFE0F90684601F002FF0446002DC7
:10533000A1D0FFF76BFE00289BD0FFF7FBFD0146D5
:10534000684601F03DFF96E70B20FFF7F3FE8DF86E
:1053500015408DF81300B3E70C4B1A7802B91C7096
:1053600019780A204A1C1A708DF81A10FFF7DAFE15
:10537000B7E71B20FFF7F0FE0146684601F0CBFDC2
:105380008DF81740BEE700BF340E0020350E002018
:10539000014BDB68184700BFA0742000014B5B691C
:1053A000184700BF74742000014B9B69184700BF69
:1053B00074742000024BD86900B10047704700BFE9
:1053C0007474200070B590F829500F4B042D28BF3D
:1053D00004250124DB6906469847AC40651E002879
:1053E00014BF044601246C4305D0FFF767FBB0FBF4
:1053F000F4F303FB14043346214606F10800034A84
:10540000BDE87040FFF7EEB8747420007D552000B1
:105410002DE9F04107461B208846FFF79DFE484BCB
:1054200005461A78474C22B901221A70FFF746FB4D
:10543000208023880BB90123238021880A204B1C5C
:105440002380FFF76FFE404801F0F3FA044600287E
:1054500045D13E4801F039FB0446002865D0294675
:10546000201D01F058FD002304F12C00C4E90B308D
:10547000238501F0DBFA2146334801F0F7FA206B6F
:1054800001F009FB072850DC314801F01EFB0546FE
:1054900000283ED02F4801F018FBA860A8B3FFF702
:1054A000DFFC686068B30920AE68FFF743FE00BB0D
:1054B00008233372C6E900780D20FFF73BFE012870
:1054C0002946206B1AD101F0DEFA206B01F0B1FA07
:1054D000854232D12046BDE8F041FFF773BF29462F
:1054E000201D01F01BFD0028C9D1204601F0DAFA89
:1054F000ACE70920FFF71EFE3072DBE701F0B6FAD9
:10550000E3E7A968134801F0F4FA2946104801F0CE
:10551000F0FA206B01F0BFFA38B921460A4801F0D1
:1055200092FA2146094801F0E4FA41463846BDE8BE
:10553000F0410123042201F0AABEBDE8F08100BFC2
:10554000360E0020100D0020EC050020CC000020BD
:10555000D8000020C000002008B5054801F0A5FAD9
:10556000044801F0A2FABDE80840034801F09DBAE2
:10557000D8000020C0000020CC00002013B5044655
:1055800068B1006B01F055FA024640B12146054B67
:105590000548DB68019302B0BDE81040184702B02F
:1055A00010BD00BF74742000295620002DE9F0477B
:1055B0000D4614468B688046D3E90067106B92F85D
:1055C000289001F040FA6868FFF76CFCA96812485F
:1055D00001F08FFA2946114801F08BFA206B01F097
:1055E00028FA60B1002320462385FFF7EBFE4B46E7
:1055F000424639463046BDE8F04701F048BE04F166
:105600000800FEF7F9FF2146054801F01CFA214683
:10561000044801F06EFAEAE7C0000020D80000203C
:10562000EC050020CC0000202DE9F0410E46174685
:10563000044620B1006B01F0FCF9054608B9BDE84D
:10564000F0810A21686801F060FC80460A20FFF7BB
:1056500071FD804546D0284601F024FAEDE794F824
:10566000282000203A4484F828202946224684F83D
:105670002900BDE8F041FFF799BF002284F82920F6
:1056800094F828203A44D2B284F828201B7A934216
:105690001CD8224629460220EBE794F829203A44F8
:1056A000D2B2052A84F8292007D9002194F82820AD
:1056B00084F82910013284F8282094F828201B7AD5
:1056C0009A4203D3224629460120D2E72046FFF71B
:1056D00079FE6868BDE8F04101F011BC2246294618
:1056E0003046C6E7AB68002BA9D0032EF6D801A23E
:1056F00052F826F05F5620009B5620007B56200073
:105700003F562000014B1888704700BF0801002059
:105710002DE9F041012986B006460F46144603DC08
:10572000002006B0BDE8F08103A901F090FD03ABB5
:1057300003CB1B88206123839DF811306161002B0E
:1057400044D0B51C02AA01A903A801F044FC9DF8AD
:105750001380B8F1000F4CD0029B23B16A7815F882
:10576000023B03EB0223B8F1020FA38332D132498B
:10577000204601F0D0FB6B78237015F8023B637074
:105780009DF81580B8F1000F4DD0019B002B37D04C
:105790006A7815F8023B03EB0223029A9BB2E3837B
:1057A00002B9A383B8F1020F2DD1234904F10800F7
:1057B00001F0B1FB6B78237215F8023B6372A81BF2
:1057C0003B1A8742C4E90E53AADBAAE7B378F51C5B
:1057D000A376B7E7B8F1030FD2D105F1080213465B
:1057E000611E13F8010D9D4201F8010FF9D1154614
:1057F000C6E71149204601F08EFBA4F81C80BFE7E4
:10580000A38BE383CEE7B8F1030FD8D105F10802EB
:10581000134604F1080113F8010D9D4201F8010B34
:10582000F9D11546CBE7044904F1080001F073FBF8
:10583000A4F81E80C3E700BFC4742000014B1B6A9C
:10584000184700BF5C7320002DE9FF4E81468A4651
:105850001A203F49FFF774FC01210B20FFF762FC7F
:105860003C4B5B689847002870DBFFF763FB3A4DC1
:1058700090F802B06C68FFF75DFB0646FFF7BCFBD3
:1058800001463046A047FFF76FFCAE690746B047B8
:10589000044610B1012200240CE0A7B1AB680193CB
:1058A000FFF7AAFB019B9847024688B102280CBF6C
:1058B0000122042248460123514601F0E8FC20461B
:1058C00004B0BDE8F08EEB6998470028E6D0E1E728
:1058D000002F39D1FDF7BCF80446FDF73DFAC4F1BD
:1058E000FF2404F57F04F334FDF7B2F8C442FBD47F
:1058F000B047EE69E8B1FDF7ABF80446FDF72CFAC6
:10590000C4F1FF2404F57F04EB34FDF7A1F8C44291
:10591000FBD4B0470446A0B12B69032103A89847E4
:10592000032803D19DF80E305B450CD000240122E2
:10593000C0E7B04704460028DDD16B6998470028CE
:10594000D9D00222B6E700220124B3E70522A2E75C
:10595000860E0020947420005C73200082B0044BFB
:1059600018B11B6A019302B018475B6AFAE700BFDF
:105970005C73200007B5FFF7E1FA03281BD00F4B3B
:105980009B689847002816DB1B20FFF7E5FB0C49B6
:1059900001F0C4FA58B1FFF70BFC60B9FFF730FC17
:1059A000084BDB68019303B05DF804EB1847FFF781
:1059B000DBFB0028EFD103B05DF804FB94742000FA
:1059C000860E00205874200008B5024B1B689847CB
:1059D000023008BD4C74200038B50C4B9B689847CA
:1059E000041E02DA4FF0FF3038BDFFF7DDFA03780E
:1059F0000546002BF6D10220FFF782FA0028F1D0ED
:105A00006878FFF791FAA01CEEE700BF4C74200005
:105A100070B50220FFF7FAFA10B94FF0FF3070BDF1
:105A2000FFF788FA002505700446FFF787FA6070D3
:105A3000FFF7E2FA0446FFF7C7FF20442A2812DCEA
:105A4000C0F12B00C4B2FFF7AFFA0646FFF776FAB3
:105A500022462946304400F0A1FEFFF76FFA2044A9
:105A600080B2FFF761FA044B5B689847041ED4DBF1
:105A7000FFF776FAA01CD2E74C742000014B9B681C
:105A8000184700BF3074200070B504460D4614203E
:105A90000121FFF747FB034B29462046BDE8704034
:105AA0009B68184758742000832910B5044602D11A
:105AB0000B4801F007FA23882BB1912B0CD000235F
:105AC000032023800BE0074B042180209B6898472C
:105AD0008021054800F071FF91230120238010BD33
:105AE00000070020D4722000F006002010B50C46FC
:105AF0000220FCF763FDFFF757FA0420FFF71AFBBB
:105B00006378032B81BF4043044A043B22F813000F
:105B1000BDE810400220FCF759BD00BF0A0100207B
:105B200007B50C4B01A99B6A012098470A4800F071
:105B3000E9FE0A4B0A4819785A78FEF787F8019966
:105B40000848FEF783F8084800F0DCFE03B05DF873
:105B500004FB00BF5C73200056772000860E0020F7
:105B60007D77200092772000AA77200081F0004105
:105B700002E000BF83F0004330B54FEA41044FEA32
:105B8000430594EA050F08BF90EA020F1FBF54EACD
:105B9000000C55EA020C7FEA645C7FEA655C00F069
:105BA000E2804FEA5454D4EB5555B8BF6D420CDD3A
:105BB0002C4480EA020281EA030382EA000083EABD
:105BC000010180EA020281EA0303362D88BF30BD5D
:105BD00011F0004F4FEA01314FF4801C4CEA1131B3
:105BE00002D0404261EB410113F0004F4FEA033312
:105BF0004CEA133302D0524263EB430394EA050F9D
:105C000000F0A780A4F10104D5F1200E0DDB02FA0B
:105C10000EFC22FA05F2801841F1000103FA0EF29F
:105C2000801843FA05F359410EE0A5F120050EF165
:105C3000200E012A03FA0EFC28BF4CF0020C43FA96
:105C400005F3C01851EBE37101F0004507D54FF0A3
:105C5000000EDCF1000C7EEB00006EEB0101B1F5F3
:105C6000801F1BD3B1F5001F0CD349085FEA300039
:105C70004FEA3C0C04F101044FEA445212F5800F44
:105C800080F09A80BCF1004F08BF5FEA500C50F1E1
:105C9000000041EB045141EA050130BD5FEA4C0CC4
:105CA000404141EB010111F4801FA4F10104E9D14D
:105CB00091F0000F04BF01460020B1FA81F308BF44
:105CC0002033A3F10B03B3F120020CDA0C3208DD10
:105CD00002F1140CC2F10C0201FA0CF021FA02F1EB
:105CE0000CE002F11402D8BFC2F1200C01FA02F15B
:105CF00020FA0CFCDCBF41EA0C019040E41AA2BF80
:105D000001EB0451294330BD6FEA04041F3C1CDA47
:105D10000C340EDC04F11404C4F1200220FA04F067
:105D200001FA02F340EA030021FA04F345EA030111
:105D300030BDC4F10C04C4F1200220FA02F001FAD3
:105D400004F340EA0300294630BD21FA04F0294655
:105D500030BD94F0000F83F4801306BF81F48011EE
:105D60000134013D4EE77FEA645C18BF7FEA655C61
:105D700029D094EA050F08BF90EA020F05D054EA33
:105D8000000C04BF1946104630BD91EA030F1EBF38
:105D90000021002030BD5FEA545C05D1400049413C
:105DA00028BF41F0004130BD14F580043CBF01F52F
:105DB000801130BD01F0004545F0FE4141F4700115
:105DC0004FF0000030BD7FEA645C1ABF19461046F0
:105DD0007FEA655C1CBF0B46024650EA013406BFF1
:105DE00052EA033591EA030F41F4002130BD00BFB0
:105DF00090F0000F04BF0021704730B54FF480646D
:105E000004F132044FF000054FF0000150E700BFED
:105E100090F0000F04BF0021704730B54FF480644C
:105E200004F1320410F0004548BF40424FF0000139
:105E30003EE700BF42004FEAE2014FEA31014FEA7C
:105E400002701FBF12F07F4393F07F4F81F06051CB
:105E5000704732F07F4208BF704793F07F4F04BF16
:105E600041F40021704730B54FF4607401F00045F3
:105E700021F000411CE700BF50EA010208BF704753
:105E800030B54FF000050AE050EA010208BF704744
:105E900030B511F0004502D5404261EB41014FF4AD
:105EA000806404F132045FEA915C3FF4D8AE4FF0B5
:105EB00003025FEADC0C18BF03325FEADC0C18BF98
:105EC000033202EBDC02C2F1200300FA03FC20FAE9
:105ED00002F001FA03FE40EA0E0021FA02F1144436
:105EE000BDE600BF70B54FF0FF0C4CF4E06C1CEA4F
:105EF00011541DBF1CEA135594EA0C0F95EA0C0FC0
:105F000000F0DEF82C4481EA030621EA4C5123EA32
:105F10004C5350EA013518BF52EA033541F4801161
:105F200043F4801338D0A0FB02CE4FF00005E1FB14
:105F300002E506F00042E0FB03E54FF00006E1FB5E
:105F400003569CF0000F18BF4EF0010EA4F1FF04A1
:105F5000B6F5007F64F5407404D25FEA4E0E6D41E1
:105F600046EB060642EAC62141EA55514FEAC520F2
:105F700040EA5E504FEACE2EB4F1FD0C88BFBCF56E
:105F8000E06F1ED8BEF1004F08BF5FEA500E50F11F
:105F9000000041EB045170BD06F0004646EA0101E5
:105FA00040EA020081EA0301B4EB5C04C2BFD4EB17
:105FB0000C0541EA045170BD41F480114FF0000E10
:105FC000013C00F3AB8014F1360FDEBF002001F07E
:105FD000004170BDC4F10004203C35DA0C341BDCF8
:105FE00004F11404C4F1200500FA05F320FA04F0CA
:105FF00001FA05F240EA020001F0004221F00041FE
:1060000010EBD37021FA04F642EB06015EEA430E70
:1060100008BF20EAD37070BDC4F10C04C4F12005A0
:1060200000FA04F320FA05F001FA04F240EA020053
:1060300001F0004110EBD37041F100015EEA430E24
:1060400008BF20EAD37070BDC4F1200500FA05F244
:106050004EEA020E20FA04F301FA05F243EA0203C3
:1060600021FA04F001F0004121FA04F220EA0200D2
:1060700000EBD3705EEA430E08BF20EAD37070BD18
:1060800094F0000F0FD101F00046400041EB0101F8
:1060900011F4801F08BF013CF7D041EA060195F0DA
:1060A000000F18BF704703F00046520043EB030394
:1060B00013F4801F08BF013DF7D043EA0603704781
:1060C00094EA0C0F0CEA135518BF95EA0C0F0CD08C
:1060D00050EA410618BF52EA4306D1D181EA0301D2
:1060E00001F000414FF0000070BD50EA410606BFCC
:1060F0001046194652EA430619D094EA0C0F02D111
:1061000050EA013613D195EA0C0F05D152EA033655
:106110001CBF104619460AD181EA030101F0004173
:1061200041F0FE4141F470014FF0000070BD41F0BC
:10613000FE4141F4780170BD70B54FF0FF0C4CF496
:10614000E06C1CEA11541DBF1CEA135594EA0C0FB5
:1061500095EA0C0F00F0A7F8A4EB050481EA030E02
:1061600052EA03354FEA013100F088804FEA0333E9
:106170004FF0805545EA131343EA12634FEA0222B7
:1061800045EA111545EA10654FEA00260EF0004178
:106190009D4208BF964244F1FD0404F5407402D2CA
:1061A0005B084FEA3202B61A65EB03055B084FEA5B
:1061B00032024FF480104FF4002CB6EB020E75EB58
:1061C000030E22BFB61A754640EA0C005B084FEA80
:1061D0003202B6EB020E75EB030E22BFB61A7546FD
:1061E00040EA5C005B084FEA3202B6EB020E75EB48
:1061F000030E22BFB61A754640EA9C005B084FEAC0
:106200003202B6EB020E75EB030E22BFB61A7546CC
:1062100040EADC0055EA060E18D04FEA051545EABB
:1062200016754FEA06164FEAC30343EA52734FEA64
:10623000C2025FEA1C1CC0D111F4801F0BD141EADD
:1062400000014FF000004FF0004CB6E711F4801F42
:1062500004BF01430020B4F1FD0C88BFBCF5E06F22
:106260003FF6AFAEB5EB030C04BFB6EB020C5FEA32
:10627000500C50F1000041EB045170BD0EF0004E87
:106280004EEA113114EB5C04C2BFD4EB0C0541EAB9
:10629000045170BD41F480114FF0000E013C90E6B6
:1062A00045EA060E8DE60CEA135594EA0C0F08BF7A
:1062B00095EA0C0F3FF43BAF94EA0C0F0AD150EA79
:1062C00001347FF434AF95EA0C0F7FF425AF10460C
:1062D00019462CE795EA0C0F06D152EA03353FF434
:1062E000FDAE1046194622E750EA410618BF52EAB1
:1062F00043067FF4C5AE50EA41047FF40DAF52EA85
:1063000043057FF4EBAE12E74A0011D212F50012FA
:1063100011D20DD56FF47873B3EB62520ED44FEAFD
:10632000C12343F0004343EA505323FA02F070477D
:106330004FF00000704750EA013002D14FF0FF30BB
:1063400070474FF00000704753B94AB9002908BFA1
:1063500000281CBF4FF0FF314FF0FF3000F074B940
:10636000ADF1080C6DE904CE00F006F8DDF804E0AC
:10637000DDE9022304B070472DE9F0478C4604465E
:10638000089E002B4BD18A42154667D9B2FA82F299
:106390004AB1C2F1200701FA02F320FA07F795404B
:1063A00047EA030C94404FEA154EBCFBFEF71FFA78
:1063B00085F80EFB17C307FB08F9210C41EA0343DC
:1063C000994509D9EB1807F1FF3180F01C819945F7
:1063D00040F21981023F2B44A3EB0903B3FBFEF00B
:1063E0000EFB103300FB08F1A4B244EA0344A142BF
:1063F00009D92C1900F1FF3380F00781A14240F246
:10640000048102382C4440EA07400027641A1EB178
:106410000023D440C6E900433946BDE8F0878B42EB
:1064200009D9002E00F0EC800027C6E900013846AB
:106430003946BDE8F087B3FA83F7002F48D18B4285
:1064400002D3824200F2FB80841A61EB0303012035
:106450009C46002EE0D0C6E9004CDDE702B9FFDE25
:10646000B2FA82F2002A40F08F800127491B4FEADE
:1064700015481FFA85F9B1FBF8FE08FB1E1109FB50
:106480000EF04FEA144C4CEA0143984207D9EB183E
:106490000EF1FF3102D2984200F2CD808E461B1AD7
:1064A000B3FBF8F008FB103309FB00F9A4B244EA8F
:1064B0000344A14507D92C1900F1FF3302D2A145AD
:1064C00000F2B6801846A4EB090440EA0E409EE7AD
:1064D000C7F12005BB4022FA05FC4CEA030C21FA67
:1064E00005F44FEA1C4EB4FBFEF91FFA8CF80EFBC4
:1064F000194420FA05F3B94009FB08FA19430B0CBB
:1065000043EA0444A24502FA07F200FA07F30BD962
:106510001CEB040409F1FF3080F08880A24540F2B2
:106520008580A9F102096444A4EB0A04B4FBFEF0DF
:106530000EFB104400FB08FA89B241EA0444A2456C
:1065400008D91CEB040400F1FF316BD2A24569D9D4
:106550000238644440EA0940A0FB0289A4EB0A0423
:106560004C454146CE4654D351D0002E69D05A1ADC
:1065700064EB0E0404FA05F522FA07F3FC401D4310
:10658000C6E90054002747E79540C2F1200321FAED
:1065900003F04FEA1548B0FBF8F71FFA85F908FB3E
:1065A000170024FA03F3914007FB09FC0B43190C75
:1065B00041EA00418C4504FA02F407D9691807F151
:1065C000FF3031D28C452FD9023F2944A1EB0C0179
:1065D000B1FBF8F008FB101C00FB09FE99B241EA80
:1065E0000C418E4507D9691800F1FF3318D28E454A
:1065F00016D902382944A1EB0E0140EA07473AE7D1
:106600003746304608E70F46E6E61846FBE64345C0
:10661000ABD2B8EB020169EB0C0201389646A4E755
:106620001846E8E7084695E70746CFE781467BE747
:1066300002382C4447E7AEF1020E2B442FE73846D0
:1066400007E73746E8E600BF704700BF032A70B48B
:1066500014D940EA0105AD0704460B4622D11D6856
:1066600026681946AE42204603F1040304F10404EF
:1066700018D1043A032A20461946F0D8541E72B1A4
:1066800002780B789A4208BF641806D00CE010F824
:10669000012F11F8013F9A4206D1A142F7D1002003
:1066A00070BC7047541EEBE7D01A70BC704700BF37
:1066B000844641EA000313F0030349D1403A23D34F
:1066C0000B6803604B6843608B688360CB68C36072
:1066D0000B6903614B6943618B698361CB69C3615A
:1066E0000B6A03624B6A43628B6A8362CB6AC36242
:1066F0000B6B03634B6B43638B6B8363CB6BC3632A
:1067000040304031403ADBD230320BD30B6803606B
:106710004B6843608B688360CB68C3601030103176
:10672000103AF3D20C3205D351F8043B40F8043B45
:10673000043AF9D2043208D0D2071CBF11F8013B49
:1067400000F8013B01D30B8803806046704700BF0F
:10675000082A13D38B07B1D010F00303AED0C3F1D6
:106760000403D21ADB071CBF11F8013B00F8013B00
:10677000A4D331F8023B20F8023B9FE7043AD9D377
:10678000013A11F8013B00F8013BF9D20B78037094
:106790004B7843708B78837060467047F0B48607FF
:1067A00043D0541E002A3ED0CAB2034602E014F180
:1067B000FF3438D303F8012B9D07F8D1032C2BD9D4
:1067C000CDB245EA05250F2C45EA054516D9A4F1B9
:1067D00010073F0903F1200606EB071603F110022C
:1067E00042E9045542E902551032B242F8D104F0B0
:1067F0000F040137032C03EB07130DD91E46224665
:10680000043A032A46F8045BFAD8221F22F0030256
:106810000432134404F003042CB1C9B21C4403F83D
:10682000011B9C42FBD1F0BC704714460346C5E7F0
:10683000FEE708B5FBF7D4FDF7B50024064625466C
:1068400027463046FBF7BAFE0197019BAB4215DBAA
:106850003046FBF7BBFEC5F5C8750197019B9D420D
:1068600011DC0134B4F5487F01D103B0F0BDB4F5BB
:10687000C87FCCBFC4F548752546E2E700BF019B41
:1068800001330193E1E700BF019B01330193E5E789
:1068900001207047FBF7B2BFFCF75AB870470020E1
:1068A000FCF73CB90120FCF739B90020FCF7E8BA45
:1068B0000120FCF7E5BA0220FCF7E2BA0320FCF75E
:1068C000DFBA10B50C46FCF7CBFD2046BDE8104002
:1068D000FCF7F8BD10B50446C1B20020FCF722FA5F
:1068E000204610BD70B5054604464618601B0CB125
:1068F000237803B970BDB442FCD018460134FFF7C9
:10690000E9FFF3E770B505460446661B14F8010B72
:1069100020B1FFF7DFFF661B002CF6D10A20FFF73E
:10692000D9FF304670BD002070470120704710B578
:106930000446302200210E20FCF7FCFA6CB1012C39
:106940000CD142F210730011A0F28E5058432A234A
:1069500090FBF3F000F5C340283010BD4FF000402D
:10696000FBE7002070470120704710B50446302235
:1069700000210F20FCF7DEFA5CB1012C03BF40F6CA
:10698000F253584347F6F0734FF0004008BF90FBB6
:10699000F3F010BD08B5084612B11146FFF7A2FF8B
:1069A000002008BD10B5041F54F8040F00B910BD35
:1069B0000021FDF741FFF7E7704710B5044600F0EE
:1069C0001BF82046BDE81040FDF756BD10B5044643
:1069D00000F019F82046BDE81040FDF74DBDC06835
:1069E000B0FA80F040097047837BDB0701D5FDF7E3
:1069F00019BE7047FFF752BF10B541600446FBF760
:106A0000F9FF206010BDD0E90032134403607047E5
:106A100010B50446FBF7EEFF2368C3F101030344FE
:106A2000606898422CBF0020012010BD0023036045
:106A3000704700687047006808B9704718460368D7
:106A4000002BFBD17047036810B53BB1002499427D
:106A50001A6806D11CB9026000230B6010BD2260C9
:106A6000FAE71C46002AF9D01346F0E738B5054688
:106A7000FFF7E9FF00230B60FFF7DDFF08B929608E
:106A800038BD0160FCE738B50446FFF7DCFF03685A
:106A90000B60216038BD0368002003B970470130E6
:106AA0001B68FAE700B10068704710B504464288D9
:106AB00000214068FFF772FE23886288A0685A436D
:106AC000BDE810400021FFF769BE002310B54188E2
:106AD000994201DC002009E04268D418D25C32B946
:106AE000012222700288806803FB020010BD01337E
:106AF000EEE7002330B5826844889C4201DCFF2029
:106B000008E08A4207D14168CA5C0AB1013ACA5416
:106B10004268D05C30BD058801332A44EDE78268C5
:106B20008A4208D84388008800FB032081422CBF9A
:106B3000002001207047002070470023013A0160C7
:106B4000027143718371704710B54279837904797A
:106B5000D31A34EA030308D00368995443790279BD
:106B6000013313404371012010BD0020FCE78379FD
:106B700042790179D21A0A421FBF0268D25C0133FE
:106B80000B401ABF837110464FF0FF307047831CD3
:106B90000020023313F8042C02B9704713F8032CB9
:106BA0001044F6E7072B2DE9F843074688461546BB
:106BB0001C4607DC1A4629464046FDF7CDFF3870D3
:106BC000BDE8F883DE10BAB14FF0000908EB090008
:106BD00008222946FDF7C0FF07F8090009F101095D
:106BE0004E45F3DC14F00702EAD0294608EB060014
:106BF000FDF7B2FFB855E3E718F805307B550135CE
:106C0000AE42F9DC14F00702DAD00021EEE72DE9FC
:106C1000F743FEF7C9F904460220FEF771F920B9DF
:106C20000025284603B0BDE8F0836378207800EBA8
:106C3000032080B2FEF796F805460028F0D0FEF754
:106C4000B3F98046287B10F0070318BF012303EB3C
:106C5000D000FEF755F90028E2D00026B146AC6816
:106C6000023414F8023C002BDBD0192B14F8017C01
:106C700008EBE60106F007020BD901A83B46FFF737
:106C800091FF01A914F8020CFEF75AFA3E440234AF
:106C9000E7E73B4601A8ADF80490FFF783FF9DF8B6
:106CA00005109DF8043014F8020C43EA0121FEF7A8
:106CB00039FAEBE7072B2DE9F0410FDC1478C1F12D
:106CC0001001CB1A04FA03F30178C3F307220A4335
:106CD000417802700B434370BDE8F081DD1081B351
:106CE000044602F1FF3CC1F1080E261AB54218DC39
:106CF00013F0070325EAE575EED0525DC3F10806EF
:106D000031440A41D2B2C3F11003415D02FA03F3E8
:106D1000C3F307220A434419425562781343637050
:106D2000DAE71CF8016F94F8008006FA0EF6C6F355
:106D3000072747EA0807277014F8017F3E432670AB
:106D4000D3E7545C44540131A942FADB13F0070342
:106D5000C2D0525DC3F108042241C3F11003445D67
:106D600002FA03F3C3F307222243411942554A783A
:106D700013434B70B0E72DE9F743047B054614F04D
:106D8000070318BF012303EBD404A01CFEF73EF950
:106D9000A8B1FEF7CFF8AB880370AB881B0A43702D
:106DA000FEF7C8F8871C224600213846FFF7F6FC9C
:106DB000AC680025023414F8020C18B9012003B0A5
:106DC000BDE8F083192814F8016C07EBE50805F01D
:106DD00007090AD9FEF7C0F933460246494640463C
:106DE000FFF768FF35440234E5E7FEF7A3F98DF8B5
:106DF0000400000A8DF80500334601AAEEE710B53D
:106E0000FEF720F8FEF740F9FDF7ECFF00F026F85A
:106E1000BDE810404FF4E1234FF4F0524FF40071FD
:106E20000220FDF74FBF7047F8B50F46FEF7BCF8DC
:106E300006880446FEF782F8B3000233834203D883
:106E400000250234AE4200DCF8BD54F8041B38467D
:106E50000A0C89B2FDF7D8FF0135F3E7FDF76EBFE5
:106E600038B50D46FDF77EFF044620B18560284603
:106E7000FDF75EFF207338BD43695B6803B11847B7
:106E8000704713B504461A20FEF766F9014601A8BB
:106E900000F041F863691B6813B101A920469847C7
:106EA00002B010BD00F000B8FDF756BFFDF79ABE66
:106EB00003691B6803B11847704703695B6803B136
:106EC00018477047FFF7EEBF0EF00F000D2808BF00
:106ED00000F00EB800982DE9F04F00F1240181F385
:106EE000098890E8F08F0EF00F000D2818BF70474A
:106EF000EFF3098020E9F04F0990BDE8F08F0068BA
:106F000000F1B6018230FEF7E5B8036803EB4101FA
:106F1000B1F8820070470B880380704708B50222E1
:106F2000FFF794FBB0FA80F0400908BD30B591B08E
:106F3000FEF73AF80446FEF701F86A460146204695
:106F4000FEF7E6FB044620B94FF0FF34204611B0AF
:106F500030BDFDF7D5FF0028F6D09DF810101420A5
:106F6000FEF7E0F89DF81730ABB1BDF81C50FEF706
:106F7000C9FB854205D04FF6FF73BDF81C209A422D
:106F8000E2D169469DF8170000F0C3F818B96946C8
:106F90001B20FEF7D5F802A91A20FEF7D1F89DF8BC
:106FA00012101320FEF7BEF89DF8153053B99DF866
:106FB0001A100A20FEF7B6F89DF81A100E20FEF7F8
:106FC000B1F8C3E74FF6FF71F3E70120FEF748B9C8
:106FD0000020FEF745B930B528B3037A022B2BD138
:106FE000C579437A04792DB9002B4DD1012C4BD1B1
:106FF000204614E003B9ECB1032D2FD1032B2FD180
:10700000B4FA84F04009002309E0002B38D1002CA9
:107010003CD11846023B012B8CBF0023012301B158
:107020000B6002B1106030BD023B012B8CBF00230E
:107030000123DDE701201BE00378022B26D0037932
:1070400053B9437A13F0030318BF0123C07910F03A
:10705000030018BF0120E2E70023F7E7022DD4D098
:10706000A3F1020CDCF1000040EB0C00002CCAD1B3
:10707000022DCFD0032DC6D19C1E63426341CEE7C3
:107080000120002CBFD1C5E7002CCDD00020034645
:10709000C5E7002337B50B608B80437D0D46D907CC
:1070A0005CBF01232B70037E0446012B0BD8C37DEC
:1070B0009A072CD0437E9B0729D0C28B838B9A42A0
:1070C00025D10123237501AA694604F11000FFF7B9
:1070D00082FF009B0BB10223EB70019B0BB10223DB
:1070E0006B70E37D03F00303022B03D0032B0CBF73
:1070F00008230023AB70637E03F00303022B03D04D
:10710000032B0CBF082300232B7103B030BD0023D9
:10711000D8E702280CBF022308230B448B4201D17D
:107120000120704713F8012DFF2AF7D00020704787
:1071300007B56946FFF7ADFF9DF800309DF80100E7
:10714000023303449DF8020003449DF80300034406
:107150009DF8040003449DF80500184403B05DF851
:1071600004FB43788278DB00120102F0100203F086
:1071700008031343027802F007021343C278520156
:1071800002F0200213430279920102F040021343FD
:107190000B704379427A03F0010343EA8213827948
:1071A000520002F002021343C279920002F00C0274
:1071B0001343027A120102F0300213434B707047FE
:1071C00037B504460D466946FFF763FF04F110002A
:1071D0002946FFF7C6FF9DF80030012B02BFA37EB2
:1071E0000320AB709DF8013018BF0220022B08D19C
:1071F000A28B431C2A54A28BDBB20230120AC0B20B
:10720000EA549DF802301844C0B2C21AD2B2ABB9E7
:107210009DF80330022B08D1E28B431C2A54E28BE9
:10722000DBB20230120AC0B2EA549DF804301844AE
:10723000C0B2C21AD2B22BB903B030BD013BE15C7F
:10724000A954E2E7013BE118097AA954F1E7027871
:10725000437802F007000870C2F3C0004870C2F320
:1072600000108870C2F34010C2F380120A7103F05C
:1072700001024A71C3F340028A71C3F38102CA71E9
:10728000C3F301129B09C8700A724B72704730B485
:107290000D460446114620B11A462846234630BC06
:1072A000184730BC704700207047FEF7C7BA70B56A
:1072B00004460D4652B1D2E90060FDF709FE2946A9
:1072C0002046FEF7C1FA32460028F3D170BDFEF722
:1072D000BBBA70473C752000E1252000192620002C
:1072E0009168200051752000A5262000012720006C
:1072F000000000000100000001000000010000008B
:1073000000C0004000410D400000000008000000E7
:107310002C00000000000001FFFFFFFF050000003F
:1073200002000000020000000200000000D0004047
:1073300008410D4002000000080000002C00000081
:1073400002010200FFFFFFFF06000000EC752000B5
:10735000F0752000FF7520000376200075362000B0
:1073600061342000C5342000C3682000913520001E
:10737000313320009D302000B53020005D312000E9
:107380005D302000D13120006D332000CD3720004A
:107390006135200007000000FF000000050000002C
:1073A000ED00000003000000D50000000100000017
:1073B000C500000000000000B6000000FFFFFFFF56
:1073C000B0000000FDFFFFFFA1000000FBFFFFFF7A
:1073D00091000000F9FFFFFF88000000F7FFFFFFAA
:1073E00072000000F5FFFFFF62000000F3FFFFFFE7
:1073F00058000000F1FFFFFF42000000E8FFFFFF20
:10740000000000002A7620002F6920002769200054
:107410002B6920003E7620006B6920006369200004
:10742000676920000F6C2000776D20008F6B2000B3
:10743000D0762000FF6D2000B14B2000296E200087
:10744000276E2000836E2000796E2000D16F20000F
:10745000CB6F20002D6F2000DB76200059552000D7
:1074600011542000915320009D532000A953200067
:10747000B5532000E0762000AB722000CF722000D0
:10748000AF722000755920003D5820005D59200042
:10749000A7722000C9592000115A2000D959200094
:1074A000E8762000D3722000895A20007D5A2000FF
:1074B000E8000020F800002000000000ED5A200045
:1074C000000000000000436F6E74696B692D386422
:1074D00038633237333135005A6F6C6572746961C5
:1074E0002052452D4D6F7465207265766973696F02
:1074F0006E204220706C6174666F726D0052696D0F
:107500006520636F6E66696775726564207769745C
:107510006820616464726573732000253032783AA4
:1075200000253032780A00204E65743A2000204D44
:1075300041433A2000205244433A20004144432032
:1075400073656E736F7220696E74657266616365D0
:1075500000427574746F6E004343323533383A20FD
:1075600049443A2030782530346C782C2072657686
:107570002E3A20504725642E25642C20466C6173DA
:10758000683A20256C75204B69422C205352414D9E
:107590003A20256C75204B69422C204145532F53CE
:1075A00048413A2025752C204543432F5253413AF8
:1075B0002025750A53797374656D20636C6F636B56
:1075C0003A20256C7520487A0A492F4F20636C6F4A
:1075D000636B3A20256C7520487A0A52657365748E
:1075E0002063617573653A2025730A00504F52007D
:1075F00045787465726E616C2072657365740057AE
:10760000445400434C44206F7220736F667477615A
:107610007265207265736574006363323533382098
:10762000524620647269766572004F6E2D43686918
:10763000702054656D706572617475726500564492
:107640004433002020202020202020202020202023
:10765000202020303030303030303030303030305A
:1076600030303030313233343536373839414243B7
:10767000444546003031323334353637383961626B
:1076800063646566003078003058002B00286E7502
:107690006C6C290025004576656E742074696D65F3
:1076A00072004374696D65722070726F63657373E5
:1076B0000053657269616C2064726976657200536B
:1076C000656E736F7273000080C0E0F0F8FCFEFF1F
:1076D00052696D65001A100000000043534D4100CF
:1076E0006E756C6C726463006E756C6C73656300B0
:1076F000480042726F616463617374206D657373D7
:107700006167652073656E742E20636E74203D2062
:10771000202564200D0A0053656E736F72204D6F33
:107720007465207061636B65742073656E64696E47
:10773000672070726F636573730053656E736F7249
:10774000204D6F746520526F7574696E672070727A
:107750006F63657373000A2D2D2D2D2D2D2D2D2D6D
:107760002D2D2D2D2D2D2D2D2D2D2D2D2D2D2D2D49
:107770002D2D2D2D2D2D2D2D2D2D2D2D0052494D05
:10778000452061646472203D200930782578257891
:107790000A005573696E6720726164696F206368BF
:1077A000616E6E656C2025640A002D2D2D2D2D2D0A
:1077B0002D2D2D2D2D2D2D2D2D2D2D2D2D2D2D2DF9
:1077C0002D2D2D2D2D2D2D2D2D2D2D2D2D2D2D2DE9
:0277D0002D008A
:1077D40014742000E47220000474200000000000EF
:1077E40000000000197620003D3720000000000052
:1077F400956920000000000000000000967620003B
:10780400CD4320000000000000000000A27620000C
:10781400FD4420000000000000000000B1762000BC
:10782400A94820000000000000000000BF762000EE
:10783400AD4920000000000004000800230E0020D1
:107844002C040020BE0008002B0E00201C07002082
:107854000C000800370E00208C05002034000200C4
:107864003F0E0020F00500200C000800410E00200F
:107874005806002003000000000000003A772000B2
:107884009122200000000000000000001777200073
:10789400A95A200000000000CDABA861A861A8612E
:0878A400A861A861A8611A01A6
:0878AC00CCEAFF7F010000009F
:020000040027D3
:10FFD400FFFFFFF30000000000202000FFFFFFFFF1
:10FFE400FFFFFFFFFFFFFFFFFFFFFFFFFFFFFFFF1D
:0CFFF400FFFFFFFFFFFFFFFFFFFFFFFF0D
:040000050027FFD4FD
:00000001FF
